:020000040800F2
:1030000008100020AD310008613900080D390008B2
:1030100000000000000000000000000000000000B0
:10302000000000000000000000000000D13A00088D
:103030000000000000000000B5390008353B000822
:10304000BF310008BF310008BF310008BF310008A0
:10305000BF3100081D380008BF310008BF3100082B
:10306000BF310008BF310008BF310008BF31000880
:10307000BF310008BF310008BF310008BF31000870
:10308000BF310008BF31000800000000E13B00082C
:10309000BF310008BF310008BF310008BF31000850
:1030A000BF310008BF310008BF310008513D0008A2
:1030B000BF31000800000000BF3100080000000020
:1030C00000F002F800F046F80CA030C808382418C8
:1030D0002D18A246671EAB4654465D46AC4201D150
:1030E00000F038F87E460F3E0FCCB646012633423C
:1030F00000D0FB1AA246AB4633431847CC1200005F
:10310000EC120000103A02D378C878C1FAD85207FE
:1031100001D330C830C101D504680C60704700008D
:103120000023002400250026103A01D378C1FBD8E3
:10313000520700D330C100D50B60704710B5642929
:1031400002D100F05FF810BD002010BD1FB51FBDFB
:1031500010B510BD00F0D0FA1146FFF7F7FF00F0F0
:1031600079FF00F0E8FA03B4FFF7F2FF03BC00F0C8
:10317000BFFE000070B505460C46164602E00FCCB7
:103180000FC5103E102EFAD2082E02D303CC03C571
:10319000083E042E07D301CC01C5361F03E0217879
:1031A0002970641C6D1C761EF9D270BD07488047DB
:1031B00007480047FEE7FEE7FEE7FEE7FEE7FEE71B
:1031C00004480549054A064B704700003D3B00088E
:1031D000C1300008080A002008100020080C002058
:1031E000080C0020704700000FB4054910B503AA71
:1031F000029800F01DFA10BC08BC04B0184700008B
:10320000FC000020F7B5002575291068009914A668
:1032100011D0C046C046002802DA404211A608E09C
:10322000009909688A0701D50FA602E0490704D56D
:103230000EA6012501E0C046C046009F00242437A9
:1032400004E000F029FA30313955641C0028F8D127
:103250002B4632462146009800F091F9FEBD000051
:10326000000000002D0000002B00000020000000E6
:10327000F8B50F460546002028622846E9688847C9
:10328000002852D0252802D06A68A96849E0E96878
:103290002846002688476C2804460AD0682C08D0A7
:1032A0004C2C37D06A2C33D0742C33D07A2C31D0BC
:1032B00015E0E968064628468847B042044608D12A
:1032C0006C2E25D00126B6022846E96888470446B8
:1032D00005E06C2E02D0FF26013600E04026002CCF
:1032E00023D020464138192803D80120C0020643C4
:1032F00020343A4628462E602146FFF71FFF00285B
:103300000CD0012808D0FF1DFF08FF000837B4E7E4
:103310008026D9E70026D7E73F1DAEE76A6820463A
:10332000A9689047286A401CA6E7286AF8BDF8B546
:10333000042A2CD3830712D00B78491C0370401C3D
:10334000521E83070BD00B78491C0370401C521E81
:10335000830704D00B78491C0370401C521E8B0756
:103360009B0F05D0C91ADF002023DE1B08C90AE025
:10337000FFF700FFF8BD1D4608C9FD401C46B440DC
:103380002C4310C0121F042AF5D2F308C91A521E8A
:10339000F0D40B78491C0370401C521EEAD40B7801
:1033A000491C0370401C012AE4D409780170F8BD5F
:1033B000F8B507460B4639461943890713D1164C11
:1033C000E601042A0FD302CB0D1B8D43354202D1F7
:1033D00002C0121FF5E7CBB20370401C521E002B37
:1033E00013D0090AF7E7002A14D01978521E5B1C83
:1033F0000170401C002908D0002A0BD01978521EF9
:103400005B1C0170401C0029EDD1002A02D011463E
:1034100000F03EF93846F8BD010101010022030920
:103420008B422CD3030A8B4211D300239C464EE0DF
:1034300003460B433CD4002243088B4231D303099B
:103440008B421CD3030A8B4201D394463FE0C3094D
:103450008B4201D3CB01C01A524183098B4201D365
:103460008B01C01A524143098B4201D34B01C01A50
:10347000524103098B4201D30B01C01A5241C308C8
:103480008B4201D3CB00C01A524183088B4201D337
:103490008B00C01A524143088B4201D34B00C01A23
:1034A0005241411A00D201465241104670475DE038
:1034B000CA0F00D04942031000D3404253400022BB
:1034C0009C4603098B422DD3030A8B4212D3FC2264
:1034D000890112BA030A8B420CD3890192118B42E3
:1034E00008D3890192118B4204D389013AD09211F9
:1034F00000E08909C3098B4201D3CB01C01A5241B4
:1035000083098B4201D38B01C01A524143098B427C
:1035100001D34B01C01A524103098B4201D30B0165
:10352000C01A5241C3088B4201D3CB00C01A52418A
:1035300083088B4201D38B00C01A5241D9D2430871
:103540008B4201D34B00C01A5241411A00D20146AE
:10355000634652415B10104601D34042002B00D518
:103560004942704763465B1000D3404201B50020DA
:10357000C046C04602BD7047704770477047FFB5F0
:1035800004460D4681B0243000902168880604D599
:103590001022E0699143216000E00120A84201DD92
:1035A000471B00E000270498A1697A191018081A2F
:1035B000A0612078C00602D42046C046C04600263E
:1035C00008E003986268A168805D9047206A401C0B
:1035D000761C206204988642F3DB2078C0060AD568
:1035E0002046C046C04606E06268A1683020904789
:1035F000206A401C206238467F1E0028F4DC07E069
:1036000000986268A168405D9047206A401C206273
:1036100028466D1E0028F3DC2046C046C0462078B0
:10362000000602D5022005B0F0BD0120FBE7000036
:10363000084B70B50D467B4400F047F80446284619
:1036400000F056F8002802D00020C04370BD20468C
:1036500070BD0000CF08000001E004C0091F04296C
:10366000FBD28B0701D50280801CC90700D00270F5
:10367000704700290BD0C30702D00270401C491EBE
:10368000022904D3830702D50280801C891EE3E748
:103690000022EEE70022DFE701468008081A02094F
:1036A0001018020A1018020C1018C0088200121814
:1036B0005200891A01E0401C0A390A29FBD27047DE
:1036C00001694A1C02610878704700B58FB0029109
:1036D0000021059105490193794403911146049015
:1036E0006846FFF7C5FD0FB000BD0000E5FFFFFF16
:1036F000C068802108407047754600F025F8AE4646
:10370000050069465346C008C000854618B020B57C
:10371000FFF756FD60BC00274908B6460026C0C525
:10372000C0C5C0C5C0C5C0C5C0C5C0C5C0C5403D79
:1037300049008D46704710B50446C046C046204635
:10374000FFF711FD10BD000000487047A8090020D8
:103750000029016802D00122114301E0014A114011
:1037600001607047FEFF00000168184A11400160C7
:103770000021016041608160C1601549144A083927
:10378000904202D148680F2205E0114A143290425B
:1037900004D14868F0221043486070470C4A283230
:1037A000904203D148680F221202F4E7084A3C32E3
:1037B000904203D148680F221203ECE7044A5032CA
:1037C0009042EAD148680F221204E4E7FEFF0000AD
:1037D00008000240406880B27047000030B50368BE
:1037E0000C4A0C6A13408A684D6922430C692C43C9
:1037F00022438C692243CC6922434C6A22438C6A5F
:1038000022431A430260CA6842600A6882604968BB
:10381000C16030BD0F80FFFF4160704710B50120CF
:1038200000F00AF8012000F001F810BD01494861DC
:103830007047000000040140034A0146526900201D
:103840000A4200D00120704700040140F0B5002278
:10385000012423460D6893401D409D422AD10D79D5
:10386000012D01D0022D12D1876855000326AE40EC
:10387000B74387604E79AE4085682E438660858861
:103880009D43858085888B7993401D43858006689C
:1038900055000323AB409E4306600E790768AE4097
:1038A0003E430660C6689E43C660CB79AB40C568A0
:1038B0002B43C360521C102ACBD3F0BD4B07DB0E49
:1038C0009A40C90810B589000818016A0F249C4065
:1038D000A1430162016A1143016210BD70B50A4D36
:1038E000FF22EE1D1346F93605E0047854402A5DA8
:1038F0005A40335D401C0C46491E89B2002CF4D15D
:103900001002184370BD0000C641000800F020F806
:10391000FEE70920C006818A0122D203514081823C
:1039200070477CB50121480400F046F80124E40307
:1039300001206946009408710020887103224A71B1
:103940000925C871ED062846FFF780FFAC617CBDF4
:1039500001200249C0030881704700002000004890
:103960007047000030B5837801210278002B15D014
:1039700094080E4BA400E41823689207D50EFF228A
:10398000AA40934342789207120EAA401A4322603B
:103990000078C006C00E8140054804E0D006C00E85
:1039A000814003488030016030BD000000E400E049
:1039B00000E100E070470000044A0029516901D08D
:1039C000014300E081435161704700000010024054
:1039D000044A0029916901D0014300E081439161CB
:1039E0007047000000100240F8B5334D0446686887
:1039F0000C21324E084003D0042801D0082801D001
:103A0000266012E0696868680122890212040F0FBB
:103A10001040BF1C00281CD0E86A0107090F30467F
:103A2000491CFFF7FBFC784320606868244B0006C4
:103A3000000F1A5C20680146D14061606A68520537
:103A4000520F9A5CD140A1602A6BD20505D41D4A61
:103A500009E01D4847432760E7E76A68520401D43C
:103A60004A0800E08A08E2602A6B5306174A03D42A
:103A7000164B1233236100E022612B6BDB0601D46D
:103A8000666100E060612B6B9B070FD0296B890793
:103A9000890F01290CD0286B8007800F022809D0DC
:103AA000286BC043800700D1A661F8BDA161F8BDB5
:103AB000A061F8BDA261F8BD0010024000127A00BA
:103AC00004010020809FD50000093D000080000017
:103AD0007047000008B500200090144911200860CC
:103AE0001348416841604168416041683F221204C7
:103AF0009143416041680522D2041143416001684D
:103B0000012212061143016001688901FCD5416858
:103B1000890889004160416802221143416041687F
:103B20000907890F0229FAD108BD000000200240D0
:103B30000010024010B500F071F810BD10B5144827
:103B400001680122114301604168124A114041603D
:103B50000168114A114001600168012292049143F9
:103B6000016041683F22120491434160C16A090922
:103B70000901C162016BFF22543291430163416B21
:103B800049084900416300218160FFF7A3FF10BD90
:103B9000001002400CB8FFF8FFFFF6FE10B50C480D
:103BA0007D21C9000068FFF739FC0A49401E8842A0
:103BB0000DD80949486109480722C3691B021B0A3D
:103BC0004C042343C361002088610A6110BDFEE7F5
:103BD000E4000020FFFFFF0000E000E004ED00E053
:103BE00010B5054C0121204600F00BF801212046BC
:103BF00000F004F810BD000000200040C94301821D
:103C000070470246138A002092890B400A40002B1D
:103C100002D0002A00D001207047000010B50548EE
:103C20000168002902D00168491E016000F092F984
:103C300010BD0000F8000020F0B50646012195B047
:103C40004804FFF7B9FE01218803FFF7C1FE0921EF
:103C5000CF0601223846FFF731FE01220A213846FD
:103C6000FFF72CFE032040020090022168460171FC
:103C7000002484710125C5710321417169463846CC
:103C8000FFF7E4FD0E960C202A4E12900F9410942C
:103C900011940EA91394304600F0DEF80121084675
:103CA000FFF78AFE244F3846FFF75EFD2148079450
:103CB0002430039021480490412000010690802088
:103CC00008900320000305940C9009940A940B9427
:103CD00003A90D943846FFF781FD01213846FFF70F
:103CE00037FD00221649304600F0A0F801221549A0
:103CF000304600F09BF8306A102108433062002201
:103D00001149304600F092F801224021304600F07F
:103D100069F80121304600F05BF81B21684601720A
:103D20004472857202A8FFF71DFE0848847415B01E
:103D3000F0BD000000380140300002404601002084
:103D400006010600040104000501050056090020D3
:103D5000F8B51A4C1849204600F04CF800282AD033
:103D6000206A102108432062154E00213046FFF7DB
:103D7000EFFC3046FFF72EFD41273F01381A84B291
:103D8000601E791E88420ED20E4DA87C00280AD1F2
:103D90000D492246C819FFF7CAFA0C492C820020A7
:103DA00008550120A87439463046FFF735FD01213A
:103DB0003046FFF7CDFCF8BD040104000038014097
:103DC0003000024056090020460100205605002020
:103DD0000029016802D00122114301E0490849008D
:103DE00001607047002A826801D00A4300E08A43DC
:103DF0008260704730B50A04130E01221446002574
:103E00008C40012B0ED0022B0ED08368090C23406E
:103E1000C0698A401040002B02D0002800D0012544
:103E2000284630BD0368F1E74368EFE710B50B049F
:103E30001C0E01238B40022C02D0032C02D002E086
:103E4000001D00E008300168002A01D0194300E09D
:103E50009943016010BD000030B50446006887B08A
:103E60000D46400840002060606803210903884334
:103E7000A9680143616020681749EA6808406968D9
:103E800011432A69024311432160A06803210902FA
:103E9000884369690143A1606846FFF7A5FD0F48A3
:103EA000844201D1069800E002982168090429683B
:103EB00000D54000FFF7B2FA2A6852088A4200D8BB
:103EC000401C2168090404D50107054A490F104028
:103ED0000843A08107B030BDF3E9FFFF003801407F
:103EE000F0FF000001490020887470475609002047
:103EF0007047000001B5034800990160016800297E
:103F0000FCD108BDF80000200349CA691206FCD59F
:103F100001492031088170470038014030B5002048
:103F20000A4B0146FD24142242439950D2181174C1
:103F300051609160D160557C401C6D086D0025403A
:103F400055740328EFD30248016030BD6C0900208E
:103F50000001002002480168491C01607047000010
:103F600000010020F0B50026F6430546002918D0D0
:103F70000D4C0020142747433F197F7CBF070DD409
:103F8000142646433419667C02273E4376087600A1
:103F900066746560E260A1602374F0BD401C032874
:103FA000E8DB3046F0BD00006C090020014600202F
:103FB00010B5C04303290ED21422074B5143CA182F
:103FC000547CA40707D5054800685850507C01214F
:103FD00008435074002010BD6C090020000100202F
:103FE000F0B5002785B03D4614202E4646431748BD
:103FF0003418617C8A071DD5C9071BD01449825922
:1040000009688A1A61688A4212D3214614226846D6
:10401000FFF7B0F8029903988847207C012810D058
:104020000028607C01D0FD210840400840006074F9
:104030007F1CFFB26D1CEDB2032DD5D3384605B001
:10404000F0BD0348016801488151F1E76C09002087
:104050000001002008B5454E0024B0698047FFF7F5
:104060009DFDFFF75EFCE1204002FFF7E5FDFFF755
:1040700055FF012300223E49C820FFF773FFFFF7D9
:1040800095FF012109043BA0FFF7AEF83F4800F07F
:1040900091F801203E4D80022F18B87C00285AD09C
:1040A0003078002855D12878AA284FD16878BB28C5
:1040B0004CD1A878CC2802D0EE283ED046E0E87853
:1040C000DD2843D1688941BA00910621281DFFF7F8
:1040D00005FC0102000A014388B2009988422AD1F6
:1040E00028790106687900040843A9790902014387
:1040F000E87908430D21B06009037060884225D833
:10410000298949BAF160FFF789F9002900D0012116
:104110004018306100201E49706164220C311D4836
:10412000FFF746F9306AFFF741FFF0698047062044
:1041300000F036F80DE00720FAE7BFF34F8F17497C
:104140001548C860BFF34F8F00BFFDE70F4800F070
:1041500031F8FFF7C7FE641CE4B20A20FFF7CAFE7D
:10416000C82C00D90024FFF73BFF96E7C0000020D1
:10417000133900082D4150502DD7DCBFD5BCE43A8F
:10418000256C64204279746520000000FFFF000068
:1041900056050020140100200400FA0500ED00E09F
:1041A0000349CA691206FCD50149203108817047CC
:1041B0000038014000B50346C0B2FFF7F1FF180A0E
:1041C000FFF7EEFF00BD00C1814001C0804101C08A
:1041D000804100C1814001C0804100C1814000C1D7
:1041E000814001C0804101C0804100C1814000C1C7
:1041F000814001C0804100C1814001C0804101C0B7
:10420000804100C1814001C0804100C1814000C1A6
:10421000814001C0804100C1814001C0804101C096
:10422000804100C1814000C1814001C0804101C086
:10423000804100C1814001C0804100C1814000C176
:10424000814001C0804101C0804100C1814000C166
:10425000814001C0804100C1814001C0804101C056
:10426000804100C1814000C1814001C0804101C046
:10427000804100C1814001C0804100C1814000C136
:10428000814001C0804100C1814001C0804101C026
:10429000804100C1814001C0804100C1814000C116
:1042A000814001C0804101C0804100C1814000C106
:1042B000814001C0804100C1814001C0804101C0F6
:1042C000804100C1814000C0C101C30302C2C606D3
:1042D00007C705C5C404CC0C0DCD0FCFCE0E0ACA3E
:1042E000CB0BC90908C8D81819D91BDBDA1A1EDE8E
:1042F000DF1FDD1D1CDC14D4D515D71716D6D2123E
:1043000013D311D1D010F03031F133F3F23236F64D
:10431000F737F53534F43CFCFD3DFF3F3EFEFA3AFD
:104320003BFB39F9F83828E8E929EB2B2AEAEE2E8D
:104330002FEF2DEDEC2CE42425E527E7E62622E2FD
:10434000E323E12120E0A06061A163A3A26266A64D
:10435000A767A56564A46CACAD6DAF6F6EAEAA6ABD
:104360006BAB69A9A86878B8B979BB7B7ABABE7E0D
:104370007FBF7DBDBC7CB47475B577B7B67672B2BD
:10438000B373B17170B0509091519353529296564D
:104390005797559594549C5C5D9D5F9F9E5E5A9A7D
:1043A0009B5B99595898884849894B8B8A4A4E8E0D
:1043B0008F4F8D4D4C8C448485458747468682427D
:1043C0004383418180400000E8430008C000002092
:1043D00054000000043100083C440008140100208F
:1043E000F40E000020310008000000000000000072
:1043F00000000000000000000000000000000000BD
:10440000011000086110000800000000006CDC02D0
:104410000000000000000000010203040607080974
:10442000000000000000000000000000000000008C
:0C4430000102030401020304060708094E
:04000005080030C1FE
:00000001FF
