:020000040800F2
:10000000400D0020054F0008414F0008434F0008F5
:1000100000000000000000000000000000000000E0
:10002000000000000000000000000000454F000834
:100030000000000000000000474F0008494F000882
:100040001F1D0008000000002F1F0008BB20000833
:10005000D3320008175000082F500008514F0008F5
:1000600000000000315000083350000835500008EF
:1000700037500008395000083B50000800000000CD
:100080003D50000800000000000000003F50000844
:1000900041500008435000084550000847500008F0
:1000A000495000084B5000084D5000084F500008C0
:1000B0005150000803E00B780370491C401C1300EA
:1000C0005A1E002BF7D17047130000D1704780B53E
:1000D0000A00190001F02AF901BD70B50500287960
:1000E00000281FD0EC6A01232200290030316878F3
:1000F00001F079F9002801D0012070BD2871286A2B
:10010000201AA96988420DD2EE7809E0A86924185E
:100110000123220029003031687801F064F9761E4D
:10012000022EF3D2002070BD38B505000C00E86A3D
:10013000844210D02800FFF7D0FF002808D1012307
:10014000220029003031687801F03AF9002801D006
:10015000012032BDEC62002032BD38B50400FFF74B
:10016000BCFF05005AD1207803284FD160790128BF
:100170004CD180229200002120003030FFF7A4FFF4
:100180005520A2496054AA20491C605452203021B5
:100190006054312160546120322160544121332266
:1001A000A154722285239B00E2545B1CE2545A1C2A
:1001B000A154511C60542069491C605420690004FA
:1001C000000E491C60542069000C491C60542069D1
:1001D000000E491C6054E068491C6054E06800044B
:1001E000000E491C6054E068000C491C6054E06833
:1001F000000E491C6054E269521CE2620123210096
:100200003031607801F0EFF80020607100220021A9
:10021000607801F0FDF8002800D00125280032BDEB
:10022000891E4269921E914201D300207047827854
:100230005143806A08187047F8B507000C00022C7B
:1002400002D37869844201D30120F2BDB64D3878DB
:10025000012804D059D303283ED02CD355E06008A0
:1002600020180090386A0099490A41183800FFF7B1
:100270005BFF002849D100982840381830300678B4
:100280000098401C0090386A0099490A41183800CB
:10029000FFF74AFF002838D1009805407819303020
:1002A0000078000230430600E00701D53009F2BDB6
:1002B0003005000DF2BD386A090A41183800FFF711
:1002C00033FF002821D1600005407919303148788A
:1002D000000209780843F2BD386AC909411838009C
:1002E000FFF722FF002810D1A00005407919303116
:1002F000C87800068A781204024348780002104346
:100300000978014308010009F2BD0020C043F2BD95
:10031000F0B583B007000E0014000220022E74D343
:1003200079698E4271D2804D3978012904D06AD31F
:1003300003294ED03CD366E0700830180090386A2C
:100340000099490A41183800FFF7EEFE00285AD1FB
:10035000009828403A183032F007C00F01900F265D
:10036000002804D0117831402001084300E020002B
:1003700010700098401C009001203871386A009974
:10038000490A41183800FFF7CFFE00283BD10099F9
:100390000D407A1930320199002901D0260905E073
:1003A0001178F0230B40210A0E401E4316702AE0FC
:1003B000386A310A41183800FFF7B6FE002822D10A
:1003C00071000D407A19303214702104090E5170F9
:1003D00019E0386AF10941183800FFF7A5FE002836
:1003E00011D1B1000D407A193032D1780906090FC8
:1003F000090721430C0011700904090E5170210CEA
:100400009170210ED17001213971FEBD2E020000C4
:10041000F1B50C00022C0BD34069844208D20025B0
:1004200021000098FFF708FF070024D0012F01D119
:10043000022520E001260020C043874201D101258A
:1004400019E0002221000098FFF762FF050012D199
:10045000009800690021C943884207D0401C0099D8
:100460000861009840790643009846713C00009866
:1004700040698442D4D32800F2BDF8B505000F00CE
:100480000126002F08D1E8680090002802D0696991
:1004900088420BD3009609E0FFF7CEFE022801D276
:1004A0000120F2BD696988423DD30097009C641C1D
:1004B0006869844203D30224009802282AD32100C9
:1004C0002800FFF7B9FE00281BD1184A2100280098
:1004D000FFF71EFF002806D1002F06D022003900AA
:1004E0002800FFF715FF002816D1EC6028690021CD
:1004F000C943884216D0401E2861687906436E7150
:1005000010E00021C94388420DD001280BD000988B
:100510008442CCD10020F2BD012802D10024E44362
:1005200000E001242000F2BDFF010000FFFFFF0FEB
:1005300010B50200546A241D480A1168897800F039
:10054000AAFF01E0401A241D2168241D002901D1C1
:10055000002010BD8842F5D22168401810BD70B54A
:1005600004000D00E580A168012929D020684269B6
:10057000914225D2002903D10178032902D1416A91
:10058000002906D10021E16001898D4218D2406A1C
:100590001BE08078060100E0AD1B2068ADB2B542DB
:1005A00010D3FFF749FE01000020C043814201D172
:1005B000012070BD022903D3206840698142EBD33A
:1005C000022070BDE160FFF72BFE29094018206171
:1005D0002807C00D2168081830306061002070BD08
:1005E000F8B504000E00E7887F1CBFB2002F22D0B0
:1005F000206900281FD039075ED1401C2061E168C6
:100600002068002903D10089874255DB13E03A09AD
:1006100083785B1E13404FD1FFF70EFE0500022DBD
:1006200014D30020C04385423BD0206841698D42ED
:100630003CD3002E01D10420F2BDE168FFF71DFF7D
:10064000050001D10720F2BD012D01D10220F2BD2C
:100650000020C043854224D02068FFF73EFD0028DB
:100660001FD180229200002120683030FFF72CFD3E
:1006700029002068FFF7D4FD2168C862002604E045
:100680002068C16A491CC162761C20688178F6B274
:100690008E4208D2012101712068FFF71EFD00285B
:1006A000EED00120F2BDC16A891BC162E56029005C
:1006B0002068FFF7B5FD2061E7803807C00D21688D
:1006C0000818303060610020F2BD0200C87E0002D0
:1006D0008B7E18431278032A06D10200487D00025F
:1006E000097D084300041043704781760A04120E06
:1006F000C276090C0175090A41757047BCB5040042
:100700000F00042000252169002920D02068FFF770
:100710000BFD00281BD162691178002901D104204A
:1007200017E0D27A9206920EE5290AD02E2908D037
:100730000F2A06D0082A01D1012100E00021B94288
:1007400008D000212000FFF74BFF0028DBD0002855
:1007500000D02561B6BD38B504000021FFF7FFFECB
:10076000002817D1002521692068FFF7DDFC00284B
:1007700010D161690978E52903D0002901D000254D
:1007800002E06D1C012D08D001212000FFF728FF99
:100790000028E8D0042800D10720050012D12169E3
:1007A0002068FFF7C1FC05000CD120220021606900
:1007B000FFF78AFC0B22A1696069FFF77BFC01202F
:1007C00021680871E8B232BD7AB584B0096801E0E9
:1007D0000199491C0191019909782F29F8D05C29C8
:1007E000F6D0806900900B222021FFF76DFC0023DA
:1007F00000210020082204E0082A4BD108210B2206
:10080000029B019C245C401C9D00EDB202950325D7
:10081000212C03DB2F2C01D05C2C07D1019E30183A
:10082000049E3060212C32DA042431E02E2CE3D0F7
:1008300091422FD2802C07DB1E0003233343DBB20F
:1008400023A52C19803C2478039400BF40A500E028
:100850006D1C2E78002E01D0A642F9D1002E19D1A0
:100860002500413D1A2D04D21D0002232B43DBB28B
:1008700009E02500613D1A2D05D21D0001232B43FF
:10088000DBB2203CE4B2009D6C54491CB9E7002463
:10089000002901D1062019E000980078E52802D14E
:1008A000052000990870082A00D1029B1D40012DE7
:1008B00002D12000102404430C201840042802D147
:1008C0002000082404430098C472002006B070BDC4
:1008D000808182838485868788898A8B8C8D8E8FA0
:1008E00090919293949596979899AD9B8C9DAE9F7D
:1008F000A021A2A3A4A5A6A7A8A9AAABACADAEAF00
:10090000B0B1B2B3B4B5B6B7B8B9BABBBCBDBEBF6F
:10091000C0C1C2C3C4C5C6C7C8C9CACBCCCDCECF5F
:10092000D0D1D2D3D4D5D6D7D8D9DADBDCDDDEDF4F
:10093000C0C1C2C3C4C5C6C7C8C9CACBCCCDCECF3F
:10094000D0D1D2D3D4D5D6F7D8D9DADBDCDDDE9F4F
:10095000222A2B2C3A3B3C3D3E3F5B5D7C7F0000D6
:1009600070B50A00093200230469002C28D04069C0
:100970000024055D641C202D09D0052D00D1E5253E
:10098000092C02D12E261670521C1570521C0B2CED
:10099000EFD3C47A0C72C47F2406857F2D042543CF
:1009A000447F24022C43057F25430D60447E2402AE
:1009B000057E2C438C80C47D2402807D0443CC8042
:1009C000137070BD01000022D24310000B68002B91
:1009D00000D1704710B518783038092808D25C78F3
:1009E0003A2C05D19B1C0B60012802DB100010BDC6
:1009F000002010BDF2B5040008782F2801D05C2833
:100A000001D1481C00900020A060009800782028A8
:100A10000AD200212000FFF7A2FD00216161F2BD92
:100A20002068FFF752FEA06069462000FFF7CCFE69
:100A300000283CD100212000FFF791FD042500286B
:100A400024D121692068FFF76FFB00281ED161695E
:100A50000A78002A01D1042018E0CA7A12070FD4BC
:100A60000B23A26900261F007B1E002F06D00E78E4
:100A70001778F61B521C491C002EF4D0002E05D00E
:100A800000212000FFF7ACFD0028DAD0A169C97A67
:100A90000D40002804D0042809D1002D07D105E01D
:100AA000002D04D16169C87AC006B9D40520F2BD11
:100AB00010B50400001D00220270D24382622000A3
:100AC000FFF732FB002801D0032010BDBE482018DC
:100AD00041780902007801430E48814201D002208A
:100AE00010BD66340C48A1780904627812020A43EA
:100AF00021781143814208D0A17F0904627F12024C
:100B00000A43217F1143814201D1002010BD012001
:100B100010BD000055AA000046415400F0B587B052
:100B200006000800170000213160FFF74BFF0500A9
:100B300001D50B2074E1A800BA4908184468002CBC
:100B400001D10C206CE1346004262078002809D003
:100B5000607800F025FCC10704D4002F01D030429A
:100B60000ED15CE1002020706570607800F008FC18
:100B7000C10701D5032053E1002F03D0304201D03B
:100B80000A204DE10020009000212000FFF790FF97
:100B90000500012D2CD10020F72149000201A218E7
:100BA00051180A79002A0AD0CA7A12068B7A1B04D5
:100BB00013434A7A12021A43097A114300E00021D2
:100BC000820003AB9950401C0428E5D30026B000F6
:100BD00003A908580090002804D001462000FFF720
:100BE00067FF00E00220050002D0761C042EEED341
:100BF000032D01D1012013E1002D25D13C20205CE3
:100C000000023B21615C08438021890088421BD19E
:100C10004720205C06024620205C06430DD1572069
:100C2000205C00065621615C090401435520205CCC
:100C3000000208435421665C0643A6614020205C04
:100C4000E070012801D0022879D146433D20215C83
:100C5000A170002973D0481E014270D14220205C4F
:100C600007024120205C07432781380767D14420D1
:100C7000205C00024322A25C10430DD15320205C73
:100C800002065220205C000410435122A25C120292
:100C900002435020205C10433F22A25C12023E23FC
:100CA000E35C1A4302924AD092193B09D21801928E
:100CB000904244D3801A00F0EEFB00283FD001217F
:100CC0000125784A904200D30225774A904200D30A
:100CD0000325801C60610098E0610098029A8018EA
:100CE00020620098019A8018A062032D12D1002F73
:100CF00025D15F20205C00065E21615C0904014370
:100D00005D20205C02020A435C20205C1043616984
:100D100089000DE0002F12D0206A80196269022D2F
:100D200001D1510004E053009B185B081140591891
:100D30006062A0695D4A8918490A884201D20D2083
:100D40006EE00020C0432061E06080206071032DD0
:100D50005ED16120205C00026021615C08430128B3
:100D600056D10099491C2000FFF7DEF900284FD129
:100D700060714F48205C00021349615C08434D4993
:100D8000884245D13320205C00063221615C090491
:100D900001433120205C000208433021615C0143A3
:100DA0004548814234D14548205C00064449615C95
:100DB000090401434348205C00020843852189005F
:100DC000615C0143404801E02E02000081421FD1D6
:100DD0003E48205C00063E49615C090401433D48F1
:100DE000205C0002084386218900615C0143216187
:100DF0003948205C00063949615C090401433848E0
:100E0000205C0002084387218900615C0143E160A6
:100E1000257004480088401C02490880E0800020BA
:100E200007B0F0BD2C09002080B5002809D001686A
:100E3000002906D00A78002A03D0CA888088824216
:100E400001D0092002BD487800F0AAFAC00701D5F8
:100E5000032002BD002002BD13B5140001A8FFF756
:100E6000B1FD002801D50B2016BD80001D490818D2
:100E700041680022002900D00A700099002901D1A0
:100E8000426007E00A70009941600098002801D094
:100E9000012C01D0002016BD01A96846FFF73EFED7
:100EA00016BD0000F60F0000F6FF0000FF01000075
:100EB0002F02000055AA00005252614117020000A3
:100EC0001602000015020000727241611B02000050
:100ED0001A020000190200001F0200001E0200009A
:100EE0001D0200002C090020F3B58BB0002801D1B1
:100EF000092090E000200B990860D406E40EFE2241
:100F000022400CA901A8FFF709FE050050D108A84E
:100F100007900C9901A8FFF76DFD0500069E02D110
:100F2000002E00D1062504201C210C427DD0002D6E
:100F300073D0042D03D101A8FFF70DFC050020009C
:100F400008240443069E002D31D1200736D500F039
:100F50005DFA0700B0730004000EF073380C3074B3
:100F6000380E70740020F07230777077B077F077B9
:100F700031000198FFF7A9FB009000213000FFF736
:100F8000B4FB0120019908710098002811D0019844
:100F9000C76A0099FFF73CFA050008D10098401E87
:100FA0000199C86039000198FFF7BEF80500002DCF
:100FB00030D1200702D52000202404430198C06AC4
:100FC0000B99C8610B9806620B98847100200B99ED
:100FD000C87131000198FFF778FB0B990861F07F29
:100FE0000006B17F09040143707F00020843317F8E
:100FF00001430B98C16000200B9988600B998861B0
:101000000B99486201980B9908600B980068C0889A
:101010000B99888028000DB0F0BDF17A11221142A1
:101020000ED1044291D00825F4E7002DBFD1F17A0A
:10103000CA0601D50425EDE7A007BAD5C807B8D57B
:101040000725E7E7FEB5040016000091002002998D
:1010500008602000FFF7E8FE002806D1E0790028AC
:1010600003D1A079C00701D40720FEBDE068A168C4
:10107000401AB0421ED806001CE0A561A068C00559
:10108000C00D80218900091A35008E4200D90D005B
:101090002A00211828310098FFF70CF80098401911
:1010A0000090A0684019A060029800684019029959
:1010B0000860761B002E6ED0A168C805DED12068BE
:1010C0004A0A83785B1E1340DBB2002B019314D1D4
:1010D000002901D1206909E0626A002A03D02000BA
:1010E000FFF726FA02E06169FFF7A6F802280AD3A3
:1010F0000021C94388424BD0606161692068FFF7D5
:101100008FF8050001D1022043E001982D18770ADD
:1011100021D020688178019AD219914201D2019A96
:101120008F1A3B002A000099407800F049F9002806
:101130002ED1A07940060CD5A069401BB84208D238
:1011400080229200210028314002009B1818FEF7EF
:10115000B1FF7D02A2E7A269AA428ED0A079400623
:101160000CD50123210028312068407800F03BF99C
:1011700000280DD1A079BF210140A17101232A00CF
:10118000210028312068407800F01AF90028E4D0C6
:101190000120E071FEBD0020FEBD70B50400FFF728
:1011A00043FE002846D1A1792026314242D048068C
:1011B0000FD50123A269210028312068407800F072
:1011C00012F9002801D0012070BDA079BF21014093
:1011D000A171E1692068FEF7A7FF00282AD1256ADE
:1011E000E87A0643EE72E0682877E0680004000EB3
:1011F0006877E068000CA877E068000EE87721695E
:101200002800FFF772FA00F001F9A8750104090E31
:10121000E975010C2976000E68760020A874E87440
:10122000A079DF210140A1710120216808712068A7
:10123000FEF793FF70BD10B50400FFF7AEFF31E07D
:1012400012B585B0040001D1092029E0002205A9CA
:101250006846FFF763FC00281ED10098206001A8B3
:10126000A06105992000FFF7C5FB002810D1616936
:10127000002906D0C87AC0060CD50098FFF725FAD9
:10128000A0600098C088A08000212000FFF767F9C7
:10129000042801D1052001E0002801D000212160AF
:1012A00006B010BD002801D10021216010BD70B52D
:1012B00084B004000E00FFF7B7FD00281FD1002EF8
:1012C00004D100212000FFF74AF918E06846A06128
:1012D00000212000FFF712FA0025042801D1256122
:1012E00001E000280BD131002000FFF739FB00217D
:1012F0002000FFF775F9042801D12561002004B012
:1013000070BD38B4012100220368001D002B0BD0F2
:101310000468001D0C4202D04D466D1E6419226007
:10132000241D1B1FF0D0FAE732BC70471206130AC7
:101330001A43130C1A4300BF094205D0830705D096
:101340000270401C491EF9D170470000130030B4F0
:1013500014001500103902D310393CC0FCD24907E3
:1013600000D30CC000D504C0890002D30280801CC9
:10137000002900D5027030BC704700000022E5E76C
:1013800010B5374C01212170002807D100F0DAF8A0
:10139000002803D12078FE2101402170207810BD63
:1013A00010B52F4C002809D10120207000F0D9FA87
:1013B000FF2803D12078FE2101402170207810BD44
:1013C00038B50C00150000280BD100F0CAFAFF2830
:1013D00001D0032032BD802292006902200000F07B
:1013E000BDF8002032BD38B50C00150000280BD127
:1013F00000F0B7FAFF2801D0032032BD802292000E
:101400006902200000F0D7F8002032BD00207047AC
:1014100010B594B0140000281ED111480078C00700
:1014200001D5032019E000290BD002290BD002D3EB
:1014300003290CD010E0684600F0F8F81198400A33
:101440002060002009E0802080002080F9E76846C5
:1014500000F0ECF812982060042014B010BD0000D9
:1014600028000020F446002804D4494200F013F874
:10147000404260474042002905D45FD000F00BF89D
:10148000404249426047494200F005F849426047FE
:1014900003460B43E6D40022030A8B420BD2030916
:1014A0008B4219D243088B422ED2411A00D20146F8
:1014B000524110467047FF2209023FD012068B426C
:1014C00005D3121209028B4201D312120902030939
:1014D0008B4219D300E0090AC3098B4201D3CB0127
:1014E000C01A524183098B4201D38B01C01A524169
:1014F00043098B4201D34B01C01A524103098B426D
:1015000001D30B01C01A5241C3088B4201D3CB0057
:10151000C01A524183088B4201D38B00C01A52413A
:1015200043088B4201D34B00C01A5241884200D37A
:10153000401A5241CFD201461046704708B500F01C
:1015400051FA08BD10B500F028FB0A24FF2000F076
:1015500039FB641EFAD100F01CFA10BDF4B582B05C
:10156000050000270024FF206A46107020262E4A1E
:101570001682FF22112000F0B5F9002000F0DFF9FB
:10158000002817D1FE2000F0DAF9002812D105E07A
:10159000FF2000F017FB28706D1C641C6846008952
:1015A0008442F5D3FF2000F00DFBFF2000F00AFB82
:1015B000684607702FE0F4B582B0050000270024CC
:1015C000FF206A4610702026174A1682FF22182034
:1015D00000F088F9002000F0B2F900281BD1FF20AC
:1015E00000F0F0FAFE2000F0EDFA04E0287800F0B8
:1015F000E9FA6D1C641C684600898442F6D3FF201A
:1016000000F0E0FAFF2000F0DDFA00F081F9052893
:1016100001D16846077004480660FF2000F0D2FA46
:1016200068460078FEBD00001804004838B5040084
:1016300000F015F820002C3000F0E1F82269521C6F
:1016400062640123257EAD1C0121A9404A436264E6
:10165000217A8B40A36419464A43626432BDF0B5D7
:1016600085B004000025FF272020DC490882FF22E6
:101670000021092000F036F96E46002000F05FF9E5
:10168000002812D1FE2000F05AF9002806D1FF20D0
:1016900000F098FA70556D1C102DF8D3FF2000F063
:1016A00091FAFF2000F08EFA00272020CB49086035
:1016B000FF2000F087FA3078800920700F21307801
:1016C00080080F2202406270032032780323134007
:1016D000A3707278E270B2782271F2786271327916
:1016E0001201E2807279E38815092B43E3801140EF
:1016F0002172B279D10961720121930901251D403E
:10170000A572530901251D40E572130901251D40ED
:101710002573002363730240920222612269F379E8
:101720009B0013432361327A236995091D43256188
:1017300093065B0F23755207520F6275727A530935
:10174000A375D3065B0FE375032313405A0022767B
:10175000B27A237ED5091D432576930901251D40C4
:1017600065769206520EA276F27AA37ED5091D43C3
:10177000A5765206520EE276327BD30923775309BF
:1017800003251D406577D3065B0FA3770323134022
:101790009A00E277727BE37F95091D43E57755094F
:1017A00001232B4020256355002321256355012368
:1017B00013402222A354B27BD309232563559509F4
:1017C00001232B4024256355550901232B40252552
:1017D0006355150901232B402625635595080323DE
:1017E0002B402725635510402822A054F07B400849
:1017F0002922A0542A342170380005B0F0BDF0B57C
:1018000085B004000025FF20694608702027734931
:101810000F82FF2200210A2000F064F801AE0020B0
:1018200000F08DF8002814D1FE2000F088F8002880
:1018300006D1FF2000F0C6F970556D1C102DF8D3AD
:10184000FF2000F0BFF9FF2000F0BCF9002069463E
:10185000087062480760FF2000F0B4F9307820700B
:101860007078000260806088B17808436080F0780A
:101870000006606060683179090401436160606856
:1018800071790902014361606068B1790143616067
:10189000F0792072307A6072707A0006E060E06859
:1018A000B17A09040143E160E068F17A0902014379
:1018B000E160E068317B0143E160707B217C0209DB
:1018C0000A4322740007000D6082608AB17B0843DE
:1018D0006082F07B400820750120607568460078C2
:1018E00005B0F0BD30B583B000246D4640230343FE
:1018F0002B70080E6870080CA870080AE87029712F
:101900006A71285D00F05EF9641C062CF9D337BDBE
:1019100038B54124FF2000F055F9C506ED0E28002A
:10192000052D05D00B2D09D00D2D07D0641EF1D14A
:10193000FF2000F047F90028FAD0280032BD38B562
:101940000400274D02E0002D07D06D1EFF2000F09F
:1019500039F9A042F7D1002D01D1FF2032BD00207E
:1019600032BDF8B51D4F20243C82FF2200210D20FE
:10197000FFF7B8FFFF2000F025F90500FF2000F079
:1019800021F906003C60FF2000F01CF930022843DA
:10199000F2BD38B5114D20242C8295220021002063
:1019A000FFF7A0FF0120FFF7CAFF002801D0FF20AA
:1019B00032BD2C60FF2000F005F92C82FF220021AF
:1019C0000120FFF78FFF0020FFF7B9FF0028F0D1BB
:1019D0002C60FF2000F0F6F8002032BD180400480B
:1019E000FF0F000070470268531C036011707047BE
:1019F00030B583B00500AC00012100BFC1A0005983
:101A000000F01AFA680000BFBDA1085A009001203A
:101A10006946087100228A71C87103204871AF4875
:101A2000005900F037FA37BD8100AC4A51588A8A14
:101A3000400000BFB2A3185A50408882704700008F
:101A4000F0B587B00C000600B000009001210098AE
:101A5000AEA2105800F0F0F90121012000F0F6F9D3
:101A6000002504A80571C571770000BFA6A0C05B62
:101A7000049004A900989A4A105800F00BFA012C1F
:101A80001AD100BFA4A0815DA2A0805D00F050FA31
:101A90009FA0C05B029002A805710821417184716A
:101AA00000F05AFA01A800BF9CA1895D01700321D2
:101AB0004170847000F08CFA07B0F0BDF0B587B0CB
:101AC0000121480400F0B8F90121080300F0BEF933
:101AD00020200090022568460571012646710024E9
:101AE0008471C5719027FF056946380000F0D2F96E
:101AF000402000906946380000F0CCF9802000902A
:101B00006946380000F0C6F900220521380000F0CF
:101B1000FEF900220621380000F0F9F90022072121
:101B2000380000F0F4F902A80480822149004180C5
:101B3000E021C9008180C5800681290241811021F0
:101B40008181C48107210182664C02A9200000F036
:101B500067FAA10C200000F091FA0121200000F0AA
:101B600083FA07B0F0BD30B583B00121C020C002B8
:101B700000F062F9402400940120694608710022B7
:101B80008A71C8714871584D280000F083F9E0004F
:101B9000009069469020C00510E030B583B0012167
:101BA000880400F049F92024009401206946087156
:101BB00000228A71C87148714B4D280000F06AF903
:101BC000AC6137BD38B50500464C0221200000F05D
:101BD0006DFA0128F9D12900200000F052FA012104
:101BE000200000F063FA0128F9D1200000F04BFA40
:101BF00005008021200000F059FA0028F9D12800C2
:101C000032BD70B588B00121480200F01FF90121F2
:101C1000880400F011F90124009468460321017141
:101C20000025C5716946304800F034F902A800F07B
:101C300066FA2E4E300000F041FA02A800F05FFA7A
:101C4000029502A8047104950695079502A9300033
:101C500000F043FA07222102300000F061FA300060
:101C600000F063FA0121300000F051FA0121300048
:101C700000F077FA0028F9D0300000F06AFA08B0D6
:101C800070BD38B50024194D280000F067FA1849D6
:101C900041184F2901D205241AE016494118632939
:101CA00001D2042414E0144941184F2901D201241F
:101CB0000EE0010033394F2901D2022408E00F4918
:101CC00041184F2908D2032402E0280000F046FA08
:101CD000FA2109018842F8DB200032BD20000020F3
:101CE000240000200030014000040048002401408E
:101CF00025F8FFFF57FDFFFF09FBFFFF9FF1FFFFE7
:101D00002000000000000200002000000000080089
:101D100000200000020000000D0000000700FEE7A8
:101D2000F0B504000020434D2968524E0C220A40B1
:101D3000082A02D00C2A17D018E0286829688002E7
:101D4000070FBF1CC0204002084003D138007108B3
:101D5000484307E0A96A30000907090F491CFFF74B
:101D60009AFB7843010002E0434900E03100216022
:101D70002B68424922681B061B0FCB5CDA4062606D
:101D80002B685B055B0FC95CCA40A260E96AC905A4
:101D900001D43B4905E02968490401D4510800E019
:101DA0009108E16080210902EA6A520601D4354AAD
:101DB00000E00A002261EA6AD20601D4320000E0A3
:101DC000226862610322EB6A134001D1A26804E039
:101DD000EB6A1340012B02D12268A2610AE0EB6A90
:101DE0001340022B01D1A16104E0EB6A1A40032ADF
:101DF00000D1A661C0229202EB6A134001D1A16812
:101E00000BE0EB6A13404F00BB4201D1216804E0B4
:101E1000EB6A13408F00BB4201D1E16104E0E96A43
:101E20001140914200D1E661E96A090600D41248E6
:101E30002062F0BD04100240134A0029116802D04C
:101E40000843106070478143116070470F4A0029B2
:101E5000116802D0084310607047814311607047D9
:101E60000B4A0029116802D0084310607047814373
:101E70001160704700127A00006CDC020000002044
:101E8000809FD500128000001410024018100240FC
:101E90000C100240F0B5002301229A400C68144057
:101EA000944228D15C000326A640F5430E79012E0A
:101EB00001D0022E0FD186682E40866086684F7949
:101EC000A7403743876086889643868082888E79CC
:101ED0009E401643868002682A40026002680E799E
:101EE000A64016430660C2681540C560C268CD7939
:101EF000A5401543C5605B1C102BCDD3F0BD02007F
:101F00000020128AFFE70A4200D00120704710B576
:101F1000CB089B00C0184907C90E036A0F248C40E8
:101F2000A3430362036A8A401A43026210BDFEE7BC
:101F300010B50A0003239A43064B9A188907090F24
:101F400013680F248C40A343136013688840184320
:101F5000106010BD0800014030B50168CC431A493B
:101F60008279002A25D00A4613681C401460536801
:101F70000468A343536003795B181C680568254314
:101F80001D6093680468A3439360D3680468A34307
:101F9000D36043790468102B07D191680C43946097
:101FA000D16800680843D06030BD5B1818680443EE
:101FB00003E000794318186804401C6030BD0349F1
:101FC0000860704700000000000401401404014054
:101FD00070B503781F2101228478002C15D01C00D5
:101FE0000325AC430B4D2C1925689B07DB0EFF2600
:101FF0009E40B5434678B607360E9E402E43266077
:10200000007801408A40044802E019408A400348B1
:10201000026070BD00E400E000E100E080E100E06B
:102020000288C1239B0113400A881A43CB891343BA
:10203000CA881A430B8913434A891A438B8913436D
:1020400003808288114B13408A881A4382800A8A4F
:10205000028202880E4B1340498819430180818B0C
:102060000C4A0A40828370470029018802D040222E
:102070000A4301E0084A0A40028070478288074B01
:102080000EE001737047007B70470000FFF0000016
:10209000FBFF0000FFF70000BFFF0000FFEF0000A4
:1020A00013408380828811438180704702000020A2
:1020B00012890A4200D001207047FEE73049884269
:1020C00000D0704710B54C0D01212000FFF7C8FE6D
:1020D00000212000FFF7C4FE10BDC268294B134049
:1020E0000A681A430B795B0313438A681A43CB6867
:1020F00013430A691A4349691143C16070470021BB
:10210000016001718160C160016141617047002916
:10211000816801D0012200E002220A4382607047F8
:10212000836A194381624261704710B50100002043
:10213000802212068B6813438B60F0231B028C688D
:102140005B1E01D01440FAD18B681A4000D1086C94
:1021500010BD816804220A4382607047006C80B21F
:10216000704702000020CB0103D59368064A1A404D
:1021700000E01268114000D001207047000000000C
:102180000024014003D2FFFFFFFFFFFEE0225200C8
:1021900080180268914203D34368D218914202D357
:1021A00080680028F5D170471848016800290ED1D1
:1021B000802149028160090941600021C943C16051
:1021C000016104214161124A11601249016001203C
:1021D000704738B407230C0008341C4201D1002397
:1021E00004E008240D000835641B2340C918D21AE6
:1021F0008161C260012313434B60282389184B601F
:1022000002490969C16131BC70470000140900200E
:10221000C40800206859883CF1B586B007200C003E
:102220000834044201D1002404E008240D000835DC
:10223000641B04400919029111000831014201D1C7
:10224000002004E0082114000834091B084010187D
:1022500000900298C71800980299411ACC1A0326D8
:10226000334302994B60874201D301F02DF80125D9
:1022700000984068284001D101F026F8102C01D2C6
:1022800001F022F8009806998969884209D10698D8
:10229000C06800190699C86006998F6105437D6082
:1022A0008EE10699496988420AD10698806800192A
:1022B0000699886006994F6105437D6038507FE13B
:1022C00040680640012E00D0D7E0072188430490E3
:1022D000C00820284AD200998E68C96801910390ED
:1022E00000980199884201D100F0EEFF0098B042B9
:1022F00001D100F0E9FF0098406807218843039965
:10230000C900884201D000F0DFFF0398C0000699A1
:102310000818010028318E4209D0069909698E42B9
:1023200000D2A2E0F168009A914200D09DE00199AC
:10233000B14208D106980168039A01209040814378
:102340000698016093E0283081420AD00846069939
:102350000969884200D288E080680099884200D0EC
:1023600083E00198F0600198866080E000988069C1
:1023700001900098C66886420ED080680699096967
:10238000884226D3C168009A914222D1B168914215
:102390001FD1C660B0601EE014300668002E07D161
:1023A000009810300668002E15D001E0080006687D
:1023B000310014310A68002AF8D1310010310A685E
:1023C000002AF3D106990969884202D300210160ED
:1023D00001E000F079FF0198002848D098204000E3
:1023E0000099C9698900069A51180818009902686D
:1023F00091420CD10660002E19D1069841680098D0
:10240000C269012090408143069841602FE0019805
:1024100006990969884208D30069009988420198A1
:1024200001D1066103E0466101E000F04DFF002E9E
:102430001DD006980069864217D30199B1610099B1
:102440000969002906D0814202D331618E6101E021
:1024500000F03AFF00984069002808D00699096901
:10246000884202D37061866101E000F02DFF04987C
:102470000099081800900498241800984068A84310
:10248000009948600120204378603C51E0082028F2
:1024900027D20090C00006990818283001900646FF
:1024A000102C01D200F010FF06980068009902007D
:1024B000CA402A4004D18D4005430698056009E0D2
:1024C0000198806806990969884201D3060001E0F5
:1024D00000F0FAFE01988760F760BE600198F8602E
:1024E0006EE0200A01D1002223E02904884201D3B2
:1024F0001F221EE0FF21C9434118090C0822114088
:102500008840314A8218120C04231A4090402F4B05
:10251000C3181B0C022633400E26711A891AC91AD9
:102520009840C00B08184100C01D2200C2402A403C
:102530008A18982040009100069B59180918FA61E2
:10254000002078613861069B5B681E00D6402E40F3
:1025500005D195401D43069845600F601DE0096850
:102560001F2A01D1002302E0192352089B1A2200DE
:102570009A4000E029004B680725AB43A34210D0E6
:10258000D30F9B00CB18103352001D68002DF1D1E2
:1025900006980069834211D31F60B961FF60BF6074
:1025A0000EE08A68069B1B69994207D39A4205D3BD
:1025B000D7608F60BA60F960B86101E000F084FE16
:1025C0000298083007B0F0BD00F0FFFF00C0FFFF29
:1025D000F2B586B0040089480068002801D1FFF7F1
:1025E000E3FD86488168069840182F30491E8843CD
:1025F0000699814200D3CDE1DC21490061580029D0
:102600000AD0D8225200A21812681018824200D3B1
:10261000C0E1814200D2BDE100F05CFE002800D1A3
:10262000B8E1009005680021C943884200D1B1E1BA
:10263000D82040002218106840191060DA214900A3
:1026400061180A68824200D202000A60A06900286C
:1026500035D12069002802D00099814201D200982A
:1026600020610098E02149006050E22040002550A0
:102670000026083026506148006860620020C04390
:10268000206220002830C060010008310860C96065
:102690008960B61C1030202EF5D3C048844203D187
:1026A000283D2A00009927E0201F00680721884361
:1026B0002118083900984019421A283A1CE0E020F5
:1026C0004000201800E08068002819D00099426876
:1026D00003689A189142F6D1017B090710D4A169C9
:1026E0001A4691420CD34368D218914208D2591924
:1026F0004160E0684219A1692000FFF76AFD35E1F9
:1027000000982169884200D22061E0204000201812
:102710000099491900E08068002810D002688A42B8
:10272000F9D1017B09070AD4009901604168491970
:102730004160069B00992000FFF76EFD2BE1A76921
:1027400039002000FFF722FD41680068401805901D
:102750002F38002601000831490701D1002105E08A
:10276000082102000832891A4907490F4018390028
:102770001031884201D2019700E0019001980830A1
:102780000490019818300390029628002838009988
:102790000831490701D1002205E00821009A0832DA
:1027A000891A4A07520F00998918801AA161E060BE
:1027B000012202434A602822081842600F4800693B
:1027C000E0610498400701D000F07EFD1B200199D4
:1027D00048600498E02149006118102200F090FD43
:1027E0000098E02149006050E22040002550083068
:1027F0002650049808316050059802E01409002022
:1028000003910399091D0722039B5A60029A521CE7
:1028100002920A1D8242F3D30298022801DA00F0E4
:1028200053FD0198B84200D1A0E0C11B42680123CA
:102830009A43426001220A437A600160C808202856
:1028400021D20090C000261828363500102901D268
:1028500000F03AFD206800990200CA40D10705D473
:102860000121009A91400143216007E0B06821698D
:10287000884201D3050001E000F026FDB760EF605B
:10288000BD60FE6072E0080A01D1002228E01A044F
:10289000904201D31F2223E0FF22D2438218120C60
:1028A00008231A40009290403D4A8218120C0423DB
:1028B0001A4090403B4BC3181B0C02252B40019340
:1028C0000E23009D5B1B9A1A019BD21A9840C00BE5
:1028D00010184200C01D0B00C340D807C00F1218CB
:1028E000982040009300E31818180090FA617E6168
:1028F0003E6160680300D340DB0707D401219140AB
:10290000014361600098076000981DE0009800682E
:102910001F2A01D1002302E0192352089B1A0A0042
:102920009A4000E0280043680725AB438B420FD054
:10293000D30F9B00C318103352001D68002DF1D136
:1029400021698B4210D31F60B861FF60BF600DE04A
:1029500081682269904207D3914205D3CF60876096
:10296000B960F860BE6101E000F0AEFCE068069975
:1029700081420FD2411AE160A069069A8218A261D1
:1029800001220A43A1694A60069903220A43426070
:10299000083000E0002007B0F0BD0000080700206C
:1029A00000F0FFFF00C0FFFFF2B584B0040000207C
:1029B000009004984542000A25D0802149028842AF
:1029C00001D31F201FE0FF21C9434118090C082231
:1029D00011408840B34A8218120C04231A409040D8
:1029E0000E4BC3181B0C022633400E26711A891A8F
:1029F000C91A9840C00B08184100049AC01DC24073
:102A0000D007C00F0818982149008200A218515819
:102A1000002929D01F2803D1002304E000C0FFFFB4
:102A200019224308D31A049A9A40002300E0520066
:102A30004E680727BE43049FF61BAE4202D20091A8
:102A400035000CD04E69D70FBF00C9190969002E97
:102A500002D08E4200D033000029E8D119000029AD
:102A60003FD1009900293ED101210122824050002E
:102A70004342034362681A4000D177E1504210405C
:102A8000401E020B10231A40D04043090826334051
:102A9000D840860804273E400296F04046080227A8
:102AA0003E400196F0404608314098267600D21804
:102AB000029BD218019BD2185218C84010188000EF
:102AC000201881590DE00100486807229043049ABC
:102AD000801AA84201D20500009108690028F2D1AD
:102AE00049690029F0D10098002800D13EE1A06892
:102AF0000499401A854200D338E1009E206986423D
:102B000000D231E1771868180290009840680721D8
:102B100088430299884201D000F0D6FBBE4200D320
:102B200022E10098806901900098C66886420DD025
:102B300080682169884225D3C168009A914221D1D9
:102B4000B16891421ED1C660B0601DE014300668C5
:102B5000002E07D1009810300668002E14D001E036
:102B600008000668310014310A68002AF8D13100E3
:102B700010310A68002AF3D12169884202D300216A
:102B8000016001E000F0A0FB0198002843D09820EC
:102B900040000099C9698900611808180099026805
:102BA00091420AD10660002E16D160680121009A78
:102BB000D2699140884360602DE001982169884284
:102BC00008D3006900998842019801D1066103E0A9
:102BD000466101E000F078FB002E1CD0206986429F
:102BE00017D30198B06100980069002807D02169C7
:102BF000884202D33061866101E000F065FB0098F5
:102C00004069002807D02169884202D3706186613B
:102C100001E000F059FB03200121102D0AD2029A95
:102C20001043009A50600298009A101842681143AD
:102C3000416096E0049A1043009A506001202843B6
:102C400078607D51E808202819D2C200A6182836DD
:102C5000350022681300C3400B4003D1814011436B
:102C6000216007E0B0682169884201D3050001E0D6
:102C700000F02AFBB760EF60BD60FE6071E0280ADB
:102C800001D100222AE00A04904201D31F2225E04C
:102C9000FF22D2438218120C08231A40019290405E
:102CA000004A01E000F0FFFF8218120C04231A40D2
:102CB0009040304BC3181B0C0226334002930E2366
:102CC000019E9B1B9A1A029BD21A9840C00B1018A7
:102CD0004200C01D2B00C3400B40D218982040007A
:102CE0009300E3181818FA6100237B613B61636865
:102CF0001E00D6400E4004D1914019436160076028
:102D00001CE000681F2A01D1002202E019215208AC
:102D10008A1A2900914000E01000426807239A4374
:102D2000AA420FD0CA0F92008318103349001A68C4
:102D3000002AF1D121698B4211D31F60B861FF6075
:102D4000BF600EE081682269904208D3914206D3A9
:102D5000CF608760B960F8600020B86101E000F0E2
:102D6000B3FA0098083002E000F0AEFA002005B097
:102D7000F0BD000000C0FFFFF3B585B041684842D8
:102D80000840401E010B10221140C8404209082390
:102D90001A40D040830804242340D8404508022428
:102DA0002540E84001244608264098277F008918DE
:102DB000C91849198919F0400818800005990818A0
:102DC000C0590700416807229143069A8D1A09E00D
:102DD0000800416807229143069A891AA94201D244
:102DE0000D00070001690029F2D140690028F0D1E7
:102DF00005980069874200D2E1E0B818049006986F
:102E0000281801907868072188430199884201D0E9
:102E100000F05AFA0498874200D3D0E0B8690090D5
:102E2000FE68BE420DD0B86805990969884226D36C
:102E3000C168B94223D1B168B94220D1C660B0603F
:102E40001FE0380014300668002E07D1380010301B
:102E50000668002E15D001E0080006683100143124
:102E60000A68002AF8D1310010310A68002AF3D12B
:102E700005990969884202D30021016001E000F050
:102E800023FA0098002843D098204000F96989006F
:102E9000059A5118081801688F420BD10660002E60
:102EA00016D105984168FA69012090408143059840
:102EB00041602DE000981169884207D30069B8424B
:102EC000009801D1066103E0466101E000F0FCF9E1
:102ED000002E1DD005980069864217D30098B06176
:102EE0003869002808D005990969884202D3306101
:102EF000866101E000F0E8F97869002808D00599BA
:102F00000969884202D37061866101E000F0DCF952
:102F10000320102D08D201990843786001983818D1
:102F200041680C43446047E00699084378600120FB
:102F3000284304994860049845510598806800909A
:102F4000C608202E01D300F0BFF9009800282ED02B
:102F50000598406903900196F000059908182830FB
:102F6000029006460098102801D200F0ADF90598AD
:102F7000006801990200CA40224004D18C400443F9
:102F80000598046009E002988068059909698842FB
:102F900001D3060001E000F097F9039802998860D8
:102FA0000398F0600398866002980399C8600598BA
:102FB00085600498059948610837380002E000F000
:102FC00083F9002007B0F0BDF0B587B00400C0461B
:102FD000C046BC4FF52C00D328E10B2C01D21024A5
:102FE00002E00B3407208443E0080190386801991F
:102FF000C8400325284250D0012601228243881868
:103000000190C0003C182834A06800900198C000CE
:10301000039000984068072188430399884201D0B3
:1030200000F052F90098806802900098A04201D107
:1030300000F04AF900980299884201D100F044F961
:1030400000984068072188430399884201D000F026
:103050003BF90298844206D13968019A01209040D8
:10306000814339600DE03969884208D3C06800990E
:10307000884204D10298A0600298C46001E000F088
:1030800023F90398054300984560039800990818B0
:1030900041680E434660009D07E1B968A14200D334
:1030A000D7E0002800D1B7E00126019901228A402B
:1030B0005100019A90404A420A4302405142114055
:1030C000491E080B10221040C1404A0908231A402B
:1030D0000092D1408A0804231A400192D1404A0844
:1030E00002231A400292D1404A083240009BC01885
:1030F000019BC018029BC0188018D1404018039053
:10310000C000381828300090806804900398C000F0
:10311000029004984068072188430299884201D0B0
:1031200000F0D2F8049880680190049800998842D1
:1031300001D100F0C9F804980199884201D100F04A
:10314000C3F804984068072188430299884201D057
:1031500000F0BAF800980199884206D13968039ABC
:10316000012090408143396010E008463969884267
:103170000AD3C0680499884206D1019800998860F2
:1031800000980199C86001E000F09EF80298001BC9
:10319000039025430498456004980019059003980E
:1031A0003043059948600398059A1050B86801901B
:1031B000C408202C01D300F087F80198002825D0FE
:1031C000786902900094E0003D1828352C000198A1
:1031D000102801D200F078F8386800990200CA403F
:1031E000324003D18E4006433E6007E0A86839694B
:1031F000884201D3040001E000F066F80298A8605C
:103200000298E060029884600298C5600398B860F4
:1032100005987861049D48E07868002836D0210040
:103220003800FFF7A9FD050013D045E03F20C0435B
:10323000844202D30024E4430BE00B340720844390
:103240007868002805D021003800FFF7ADFB0500A5
:1032500032D1BA68A24219D3111B7869012603251D
:10326000102908D302197A61B9600E435660515093
:103270002543456008E00021B96079611543456048
:1032800081184A6816434E6005000EE0F8688442D3
:103290000DD2001BF860BD692919B96101210143F4
:1032A000B8694160032020436860083504E02100CC
:1032B0003800FFF78DF90500C046C046280007B06A
:1032C000F0BD00000807002080B5012000F032F8B2
:1032D00001BDFEE707490868002801D000207047BB
:1032E000054807229043086004499143091A016088
:1032F000704700BF38090020470D0020400F002014
:1033000070B4103A03D378C9103A78C0FBD253078F
:1033100001D318C918C001D508C908C0D20704D301
:103320000B880380891C801C002A01D50B78037050
:1033300070BC704780B5C046C046024A11001820D4
:10334000ABBEFBE72600020070B58CB002A8FEF70A
:10335000E7FC0398FA218900FEF79DF8401E00243F
:103360008021490488420CD2B8494860B8480268B4
:103370001202120AC0231B06134303608C6007204D
:10338000086001218804FEF757FD0120009068467F
:1033900004710221C171AF4E69463000FEF77AFD1B
:1033A000AD4D01213000FEF7AAFD00281DD0FEF72B
:1033B00085FB00F079FCFEF7C5F80022A7A12800E4
:1033C0007C30FDF749FD002803D0042000F0CCFA42
:1033D00008E00B20FFF7F8FDA10069184860641CA5
:1033E000192CF6D300F024FAFEE7FEF701FB0121C9
:1033F0000020FEF725FB6C7005E0FEF715FBFA20B8
:10340000400000F08EFB68780028F6D0687801282C
:1034100004D10020FEF708FB6420F2E76878022858
:10342000F1D10020FEF700FB3220EAE738B5F8249E
:103430002402200000F0F2FD00F0FEFD89A1C0880A
:103440004004000C00F0C8FD00F0F6FD8AA1C08821
:103450008004000C00F0C0FD1F2000F0DFFD00F034
:10346000EBFD00BF89A1C088C004000C00F0B4FDD2
:1034700000F0E2FD8AA1C0880A22504380B200F029
:10348000ABFD00F0D9FD00BF8AA1C0880C225043DB
:1034900080B200F0A1FD002000F0C0FD00F0CCFDE6
:1034A00089A1C0880005000C00F096FD00F0C4FD65
:1034B0008AA1C0881222504380B200F08DFDFEF731
:1034C000E0FB0228FBD1002000F0A8FD00F0B4FDD5
:1034D00087A52900C0880622504380B200F07CFDF9
:1034E00000F0AAFD87A1C088C004000C00F074FDA4
:1034F0001F2000F093FD00F09FFD00BF86A1C08853
:103500000A22504380B200F067FD00F095FD00BF35
:1035100086A1C0880C22504380B200F05DFD00F00F
:103520008BFD00BF86A1C0880E22504380B200F000
:1035300053FD00F081FD00BF86A1C0880005000C8E
:1035400000F04AFD00F078FD2900C08812225043A7
:1035500080B200F041FDFEF794FB0500022D01D082
:10356000052DF8D13E4800F0C3FC052D3DD12000CB
:1035700000F054FD00F060FD7BA1C0888004000CC9
:1035800000F02AFD00F058FD7CA1C08806225043BF
:1035900080B200F021FD1F2000F040FD00F04CFD46
:1035A0007BA1C0880A22504380B200F015FD00F0D4
:1035B00043FD00BF7BA1C0880C22504380B200F0C5
:1035C0000BFD00F039FD00BF7BA1C0880005000C99
:1035D00000F002FD00F030FD7CA1C08812225043B3
:1035E00080B200F0F9FC02242DE0200000F016FD6E
:1035F00000F022FD7AA1C0888004000C00F0ECFCF1
:1036000000F01AFD7BA1C0880622504380B200F072
:10361000E3FC1F2000F002FD00F00EFD7AA1C0883F
:103620000E22504380B200F0D7FC00F005FD00BF31
:103630007AA1C0880005000C00F0CEFC0124FA201D
:10364000C00000F06EFA0448047031BD10E000E0E4
:1036500020ED00E0000400482C0000202F000000B6
:10366000FFFF0000204E55434C454F2D4630333070
:103670005238202000000000202020202044454D0A
:103680004F2020202020202000000000446973707B
:103690006C617920696D616765732020000000000E
:1036A00073746F72656420756E646572207553441F
:1036B000000000006F6E20544654204C43442020EC
:1036C0002020202000000000205072657373204AE3
:1036D0004F5920444F574E202020000020746F2067
:1036E000636F6E74696E75652E2E2E20202000008B
:1036F00020202020202020202020202020202020CA
:1037000000000000205072657373204A6F79737453
:1037100069636B200000000020555020666F723AEC
:10372000202020202020202000000000204D616E5D
:1037300075616C204D6F6465202020200000000022
:1037400020444F574E20666F723A202020202020C0
:1037500000000000204175746F6D61746963204D35
:103760006F6465200000000020204D616E75616C63
:10377000204D6F6465202020000000002020205391
:10378000656C6563746564202020202000000000C3
:1037900052494748543D4E65787420696D616765AC
:1037A000000000004C454654203D50726576696F1C
:1037B000757320200000000053454C20203D5377B6
:1037C0006974636820746F20000000006175746F75
:1037D0006D61746963206D6F6465202000000000D6
:1037E000204175746F6D61746963204D6F6465204D
:1037F000200000002020202053656C656374656400
:1038000020202020200000002053454C20203D5344
:10381000776974636820746F20000000206D616E0A
:1038200075616C206D6F64652020202020000000F1
:10383000F0B589B000200190FEF793F8FF2804D07E
:10384000002000F091F809B0F0BDFEF7DAF9FFF7BB
:10385000EDFDBDA4210002A8FDF7F2FC002806D072
:103860000D2801D1012000E0032000F07DF8B74EC3
:10387000311D200000F0F4FC00900127012400E03D
:103880000446FEF7FEF90500012D09D13078401CF1
:103890003070C0B2032802D13770002503E0002544
:1038A0003078012821D1A000325800BFABA13000F0
:1038B000683000F021FD01A93000683000F0BCFC48
:1038C000002806D1320068329F217F2000F02AFCB8
:1038D00006E0012801D1002000E0022000F044F8B9
:1038E000641C0098A04200D2012430780228C8D17C
:1038F000042D12D1641C0098A042C1D3A0003258FC
:1039000096A13000683000F0F7FC01A93000683063
:1039100000F092FC002815D01BE0032DB1D1641EED
:10392000022C01D201241BE0A00032588BA13000F0
:10393000683000F0E1FC01A93000683000F07CFC48
:10394000002806D1320068329F217F2000F0EAFB78
:1039500006E0012801D1002000E0022000F004F878
:10396000022030708DE7000038B50500784800F07F
:10397000BFFA784800F058FBF820000200F04EFB38
:103980007EA4002D30D100F057FB00BF76A1C08887
:10399000C004000C00F020FB00F04EFB2100C088AA
:1039A000C200101880B200F017FB00F045FB00BF0A
:1039B00077A1C0880A22504380B200F00DFB00F0CE
:1039C0003BFB00BF77A1C0880B22504380B200F0C0
:1039D00003FB00F031FB00BF77A1C0880C225043ED
:1039E00080B200F0F9FAFEE7012D3FD100F024FB90
:1039F00076A1C088C200101A80B200F0EDFA00F083
:103A00001BFB00BF76A1C088C004000C00F0E4FAE4
:103A100000F012FB77A1C088C200101880B200F03D
:103A2000DBFA00F009FB2100C0880A22504380B273
:103A300000F0D2FA00F000FB73A1C0880B225043C3
:103A400080B200F0C9FA00F0F7FA2100C0880C2219
:103A5000504380B200F0C0FA00F0EEFA6FA1C088C7
:103A60000D22504380B200F0B7FAFEE7022D1BD1C1
:103A700000F0E2FA6EA1C088C004000C00F0ACFABD
:103A800000F0DAFA2100C088C200101880B200F0FD
:103A9000A3FA00F0D1FA00BF6AA1C0880A225043FD
:103AA00080B200F099FAFEE7032D1BD100F0C4FAB2
:103AB00069A1C088C004000C00F08EFA00F0BCFAC6
:103AC0002100C088C200101880B200F085FA00F012
:103AD000B3FA00BF65A1C0880A22504380B200F04B
:103AE0007BFAFEE7042D1BD100F0A6FA64A1C08882
:103AF000C004000C00F070FA00F09EFA2100C088AB
:103B0000C200101880B200F067FA00F095FA00BF0A
:103B100060A1C0880A22504380B200F05DFAFEE73F
:103B200031BD81B001B40C480099016001680029E1
:103B3000FCD102B0704708480168002902D0016832
:103B4000491E0160704700002F0000002C0000207B
:103B5000FFFF0000DEF7000034090020252D313181
:103B60002E31317300000000506C6561736520696F
:103B70006E736572742020202020000020202020F9
:103B80002020202020202020202020202020000075
:103B9000616E205344206361726420616E64202052
:103BA0002000000020202020202020202020202075
:103BB0002020202020000000726573657420746846
:103BC0006520626F6172642020000000534420432E
:103BD000617264206973206E6F74202020202000A1
:103BE00020202020202020202020202020202020D5
:103BF000202020002046415420666F726D6174744D
:103C0000656420202020200020506C6561736520B1
:103C1000466F726D617420202020000020202074E7
:103C2000686520636172642020202020202000002D
:103C300046696C652074797065206E6F7420202051
:103C400020200000737570706F72746564202020EE
:103C500020202020200000004F70656E20646972D3
:103C60006563746F727920202020000020202020BE
:103C7000206661696C732020202020202000000035
:103C800043616E6E6F74206D6F756E742046617443
:103C900046730000206F6E204472697665202020F4
:103CA000202020202000000080B5FDF75CFF00F000
:103CB00007F8D94800F01CF9DA48DD49486001BD31
:103CC00038B5DC4C40252582112000F012FAFA208C
:103CD0004000FFF726FFB12000F00BFA012000F0B2
:103CE00013FA2C2000F010FA2D2000F00DFAB2206B
:103CF00000F0FFF9012000F007FA2C2000F004FA90
:103D00002D2000F001FAB32000F0F3F9012000F0BB
:103D1000FBF92C2000F0F8F92D2000F0F5F9012036
:103D200000F0F2F92C2000F0EFF92D2000F0ECF972
:103D3000B42000F0DEF9072000F0E6F9C02000F022
:103D4000D8F9A22000F0E0F9022000F0DDF984208B
:103D500000F0DAF9C12000F0CCF9C52000F0D4F968
:103D6000C22000F0C6F90A2000F0CEF9002000F0D1
:103D7000CBF9C32000F0BDF98A2000F0C5F92A2054
:103D800000F0C2F9C42000F0B4F98A2000F0BCF9B8
:103D9000EE2000F0B9F9C52000F0ABF90E2000F0DC
:103DA000B3F9202000F0A5F9362000F0A2F9C820D0
:103DB00000F0AAF93A2000F09CF9052000F0A4F9DF
:103DC0002A2000F096F9002000F09EF9002000F073
:103DD0009BF9002000F098F97F2000F095F92B2046
:103DE00000F087F9002000F08FF9002000F08CF936
:103DF000002000F089F99F2000F086F9E02000F013
:103E000078F9022000F080F91C2000F07DF90720ED
:103E100000F07AF9122000F077F9372000F074F9F9
:103E2000322000F071F9292000F06EF92D2000F009
:103E30006BF9292000F068F9252000F065F92B20A6
:103E400000F062F9392000F05FF9002000F05CF921
:103E5000012000F059F9032000F056F9102000F07D
:103E600053F9E12000F045F9032000F04DF91D2041
:103E700000F04AF9072000F047F9062000F044F965
:103E80002E2000F041F92C2000F03EF9292000F00E
:103E90003BF92D2000F038F92E2000F035F92E20C6
:103EA00000F032F9372000F02FF93F2000F02CF914
:103EB000002000F029F9002000F026F9022000F08F
:103EC00023F9102000F020F9132000F012F90A2045
:103ED000FFF727FE292000F00CF90A20FFF721FE4A
:103EE000362000F006F9C02000F00EF9256031BD43
:103EF00080B54F490880A02380220021002000F0D7
:103F0000E4F801BDF4B586B00C0000210391060071
:103F1000049404E0761C049C0398401C03900398CE
:103F200043494968C988884231D2002507E04048A2
:103F30000288F1B2E0B200F02CF8641C6D1C3C4821
:103F400040688788BD42E5D2039840000699085A28
:103F500069460881684601890191802000903800F7
:103F60000C21FDF795FAC100802088402841019975
:103F7000014201D10D2F07DB684600890121A940CC
:103F80000842D4D10D2FD2DB29484288D1E707B0AF
:103F9000F0BD70B51400802810DAA0290EDA0B00ED
:103FA000020000F04CF8234D40262E822004000E23
:103FB00000F0AAF8E0B200F0A7F82E6070BD10B5CE
:103FC0001B4B5B68203AD2B2DC88624352001B680C
:103FD0009A18FFF797FF10BDF1B50E000024402797
:103FE00014490F82124D3278002A12D068688088F6
:103FF000211889B281420CDB210068460088C0B2DA
:10400000FFF7DDFF686880882418A4B2761C802C36
:10401000E9DB08480760F1BDFFFF0000394908806F
:1040200070470000100000203649488070470000AB
:104030001800002018040048324840687047F7B55F
:1040400004001F00344D40262E822A2000F051F833
:10405000200000F059F86846007A00F055F82B204F
:1040600000F047F86846007900F04EF8380000F09C
:104070004BF82C2000F03DF82E60F7BDF1B50F0095
:104080001600204D0024002B0FD1801981281BDA47
:10409000E4B2B44218D22A88390068460078001980
:1040A000C0B2FFF776FF641CF2E7B819A12808DB5D
:1040B000F1BD2A883919C9B268460078FFF769FF4F
:1040C000641CE4B2B442F4D3F1BDF1B50F001600A4
:1040D0001D00002409E00023F2B23919C9B2684674
:1040E0000088C0B2FFF7CAFF641CA4B2AC42F2D38E
:1040F000F1BD80B580218900084A1180FDF762FD7D
:1041000001BD00001800002080B580218900044A0C
:104110001160FDF757FD01BD180400482800004854
:1041200018000048F4B5FFB091B09F26002401228A
:10413000909906A8FCF7D8FE6848039003461E2213
:10414000674906A8FCF77EFF654841898289150406
:104150000D43418A0591818BC9080191418880886E
:1041600000040843471B06A8FDF765F80122909953
:1041700006A8FCF7B9FE039B2A00594906A8FCF7DC
:1041800061FF80208000874200D8380002903F1AEB
:10419000039B0246524906A8FCF754FF00250298EB
:1041A0000199FDF778F9049017E028000199FDF7CF
:1041B00072F9002905D14A48401941780C0200786B
:1041C0000443F1B2009128000199FDF764F922003F
:1041D0000099C0B2FFF7DDFE6D1C04988542E4D360
:1041E000761E0096049D19E028000199FDF753F909
:1041F000002905D13A48401941780C02007804435F
:104200000099CEB228000199FDF745F90599401AA9
:1042100022003100C0B2FFF7BCFE6D1C029885423F
:10422000E2D3009E761E002FABD106A8FDF703F85F
:1042300001207FB012B0F0BD38B505000024FDF7B5
:1042400090FBFF2801D0012407E001222900254826
:10425000FCF74AFE002800D00224200032BD0000F6
:10426000F2B505000024204E290030001830FCF77C
:10427000E7FF00282FD1280000F05AF8050000BF02
:104280001AA71EE02E281CD0307AC00619D46D1C47
:104290007019417A2E29FAD1192C11D2817A42292A
:1042A0000ED1C17A4D290BD1007B502808D13200A4
:1042B00009323900A000009B185800F01DF8641C5A
:1042C0000025310030001830FCF7F1FF002802D142
:1042D000707A0028D6D12000F2BD0000040700202B
:1042E00000050020D8020020E0080020252D3131F3
:1042F0002E313173000000000CB41CB5040004A87A
:104300000190009401AB0A006946084878441C30CB
:1043100000F016F80021009A1170002801D40098CE
:10432000001B02B0019910BC03B00847BBD6FFFFC9
:10433000010000E0491C0A78002AFBD1081A7047E6
:10434000F1B594B015001F000A9109AC0020E0619E
:104350000AE00A98149A90470A90002800D1BFE119
:10436000E069401CE0616D1C2978002901D1E069F9
:10437000B8E12529EDD1002020616061A06102E053
:104380000100012008436D1C29782029F8D0232939
:104390000ED02B2904D02D2907D030290BD00DE0C9
:1043A00001000220084380B2EDE701000420F9E794
:1043B00001000820F6E701001020F3E72A290ED1BA
:1043C00039680A1D3A6009686162002905D54A42C8
:1043D000626201000420084380B26D1C12E00021DB
:1043E00061620AE0626A0B4B9A4205D093009A1808
:1043F00052005118303961626D1C29780A00303A38
:104400000A2AEFD329782E2906D00021C943216238
:1044100020E000BFFFFFFF7F6D1C29782A2906D10D
:1044200039680A1D3A60096821626D1C12E000219A
:1044300021620AE0226AAC4B9A4205D093009A1896
:1044400052005118303921626D1C29780A00303A27
:104450000A2AEFD320852978A4A000F0DFF90028EC
:1044600001D028786D1C2A216054605C682805D131
:104470002878682802D1622060546D1C03A8E0608F
:104480002A78252A13D0582A35D0632A00D1A0E0F3
:10449000642A66D0692A64D06F2A2CD0702A21D071
:1044A000732A09D0752A26D0782A24D09BE0206967
:1044B000411C2161252193E03868011D39600068A5
:1044C000A060226A002A02D5FFF732FF08E000212F
:1044D00000F0AEF9002802D0A168401A00E0206A7E
:1044E00060618DE03868011D39600068099003A89B
:1044F000A060782169E0635C6C2B01D138680FE023
:10450000712B01D1386802E06A2B386808D1C01DD0
:1045100007218843386001000831396003C802E090
:10452000011D396000680990682B01D180B202E05A
:10453000622B01D1C0B209902820205C00073FD532
:10454000099800283CD020201043782838D12069D1
:10455000302103AB1954401C411C216103A90A54AA
:104560002EE0605C622803D0682807D06C280BE03E
:104570003868011D3960006840B209E03868011DE3
:104580003960006800B203E03868011D39600068D6
:104590000990002804D52069411C21612D210DE0DE
:1045A000208D810704D52069411C21612B2105E064
:1045B000C00705D52069411C2161202103AB195496
:1045C000206903A90818A060110009A800F092F85A
:1045D00016E02069411C216139680A1D3A600968AA
:1045E00003AA11540CE02069411C2161252103AB71
:1045F0001954002A04D02069411C216103A90A54DE
:104600006D1C606A2169401AA169401A6169401AEB
:1046100002902820205C400710D4202069460871B1
:10462000002608E0012301AA09A9149800F0DEF889
:10463000002855D1761C02988642F3DB266903A830
:1046400000900EE0009801780A98149A90470A901A
:10465000002845D0E069401CE0610098401C0090B3
:10466000761E002EEED1302069460871A0690090B8
:1046700008E0012301AA09A9149800F0B7F800285E
:104680002ED1761C00988642F3DB6669A068009004
:104690000EE0009801780A98149A90470A90002832
:1046A0001ED0E069401CE0610098401C0090761E1E
:1046B000002EEED12820205C400700D454E62020B4
:1046C0006946087100E0761C0298864200DB4BE6E2
:1046D000012301AA09A9149800F088F80028F2D053
:1046E0000020C04315B0F0BDFFFFFF7F686C747AF7
:1046F0004C000000F2B582B00400E068009068460B
:10470000007A6F2801D1082506E020220243782A8A
:1047100001D00A2500E01025182721680E00642822
:1047200001D0692803D1002901D570420600002E6E
:104730000DD1206A00280AD1082D31D12820205C13
:1047400000072DD5172730200099C87528E07F1E57
:10475000019730002900FCF79EFE3031C9B23A299A
:1047600003DB6846007A51380918009AD1553000A9
:104770002900FCF790FE060004D0A0680099C91932
:104780008842E4D3082D0BD12820205C000707D5F0
:104790000098C05D302803D07F1E30200099C85596
:1047A0001820C01B60610099C919A160216A884264
:1047B00006DA081AA061208D0B490140218510E01E
:1047C00000290ED52821615C14220A40102A08D144
:1047D000616A2269891AA269891A0F1A012F00DBFE
:1047E000A76103B0F0BD0000EFFF000079B50C0039
:1047F00016001D00002005E0E069401CE06100207B
:10480000761C6D1E002D08D031786068009A9047A4
:1048100060600028F0D10020C04376BDC9B200E03E
:10482000401C02788A4202D0002AF9D10020704749
:10483000C9B201E0401C521E002A03D003788B420B
:10484000F8D1704700207047000000000000000011
:104850000000000000000000400040004000400058
:104860004000400000004000A000A000A0000000A8
:104870000000000000000000000024002400FE00F2
:104880004800FC0048004800380054005000380040
:1048900014001400540038004400A800A800500080
:1048A00014001A002A00240010002800280010001C
:1048B00074004C004C00300010001000100000008C
:1048C00000000000000000000800100010001000B0
:1048D0001000100010000800100008000800080078
:1048E0000800080008001000000000002400180064
:1048F0003C00180024000000000000001000100020
:104900007C0010001000000000000000000000000B
:104910000000080008001000000000000000000077
:104920003C0000000000000000000000000000004B
:10493000000000001800180008000800080010001F
:104940001000200020002000180024002400240073
:104950002400240024001800080018002800080083
:1049600008000800080008003800440000000400A7
:104970000800100020007C0018002400040018002B
:10498000040004002400180004000C00140024009B
:1049900044007E00040004003C0020002000380099
:1049A000040004002400180018002400200038002F
:1049B00024002400240018003C0004000800080023
:1049C0000800100010001000180024002400180037
:1049D00024002400240018001800240024002400CF
:1049E0001C0004002400180000000000100000005B
:1049F000000010000000000000000000080000009F
:104A00000000080010000000000000000400180072
:104A100020001800040000000000000000003C001E
:104A200000003C0000000000000000002000180012
:104A300004001800200000001800240004000800F2
:104A400010001000000010003C0042009900A5007A
:104A5000A5009D0042003800380044004400440096
:104A60007C00440044004400780044004400780086
:104A700044004400440078001C0022004200400032
:104A80004000420022001C00700048004400440026
:104A900044004400480070007C00400040007C005E
:104AA0004000400040007C003C0020002000380016
:104AB00020002000200020001C00220042004000B6
:104AC0004E00420022001C004400440044007C00D0
:104AD0004400440044004400100010001000100086
:104AE0001000100010001000040004000400040076
:104AF0000400240024001800440048005000700006
:104B00005000480048004400200020002000200001
:104B10002000200020003C008200C600C600AA0041
:104B2000AA00AA00AA0092004200620052005200AD
:104B30004A004A0046004200180024004200420099
:104B40004200420024001800780044004400440061
:104B5000780040004000400018002400420042005D
:104B6000420042002C001A00780044004400780003
:104B70005000480044004200380044004000380023
:104B800004004400440038007C00100010001000B5
:104B900010001000100010004200420042004200CD
:104BA000420042002400180044004400280028006D
:104BB00028002800280010009200AA00AA00AA00DD
:104BC000AA00AA00AA004400420024002400180001
:104BD000180024002400420044002800280010008F
:104BE00010001000100010007C00040008001000ED
:104BF0001000200040007C001C001000100010007D
:104C00001000100010001C00100010000800080028
:104C100008000800040004001C0004000400040054
:104C20000400040004001C001000280044000000E0
:104C30000000000000000000000000000000000074
:104C40000000000000000000200010001000000024
:104C50000000000000000000000000001800040038
:104C60001C00240024001C00200020002800340028
:104C70002400240034002800000000001800240054
:104C800020002000240018000400040014002C0060
:104C9000240024002C001400000000001800240050
:104CA0003C00200024001800000018001000100034
:104CB000180010001000100000001800240024004C
:104CC00018000400240018002000200028003400F0
:104CD0002400240024002400100000001000100014
:104CE000100010001000100008000000080008006C
:104CF00008000800280010002000200024002800E0
:104D000030002800240024001000100010001000C3
:104D1000100010001000100000000000A600DA00D3
:104D200092009200920092000000000028003400DF
:104D300024002400240024000000000018002400A7
:104D4000240024002400180000002800340024005F
:104D50003800200020002000000014002C00240057
:104D60001C00040004000400000000002C003000BF
:104D70002000200020002000000000001800240077
:104D80001000080024001800000010003800100077
:104D90001000100010001800000000002400240083
:104DA000240024002C0014000000000044004400F3
:104DB0002800280028001000000000009200AA002F
:104DC000AA00AA00AA004400000000004400280035
:104DD00010001000280044000000280028002800CF
:104DE0001000100010001000000000003C00040043
:104DF0000800100020003C00000008001000100017
:104E0000200010001000080010001000100010001A
:104E10001000100010001000000010000800080032
:104E200004000800080010000000000000006000FE
:104E300092000C0000000000FF00FF00FF00FF00D8
:104E4000FF00FF00FF00FF0082B02648016801223A
:104E50000A4302604168244A0A4042600168234ACA
:104E60000A4002600168224A0A4002604168214A01
:104E70000A404260C16A0F229143C162016B1E4A1F
:104E80000A400263416B012291434163002181602A
:104E9000009100911121194A1160416841604168F7
:104EA00041604168164A0A4042604168A02292036C
:104EB0000A4342600168802252040A43026001688A
:104EC0008901FCD541680322914341604168022277
:104ED0000A43426041680C220A40082AFAD102B013
:104EE00070470000001002400CB8FF08FFFFF6FEFC
:104EF000FFFFFBFFFFFFC0FFACFEFFFF00200240F3
:104F0000FF7FC2FF094880F3088804200168090E6A
:104F10001F22914205D10648012101600548002168
:104F2000016005488047054800470000400D00200B
:104F30001810024000000140494E000823500008AC
:104F40007047FEE77047704780B5FEF7F4FD01BD7E
:104F500080B507480178022901D1002101E00178DC
:104F6000491C017080208001FDF729F801BD000077
:104F70002D00002038B401210268001D002A0FD046
:104F80000368C318446808300C4202D04D466D1EB9
:104F900064191D6825601B1D241D121FECD0F8E745
:104FA00032BC704710B5074979441831064C7C442F
:104FB000163404E0081D0A68891888470100A142D8
:104FC000F8D110BD080000002800000037C3FFFF23
:104FD000100900002C0000200000000099FFFFFFD6
:104FE0002C00000070000000000000200000000005
:104FF00000F00BF8002801D0FFF7D4FF0020C046D6
:10500000C046FEF7A1F900F002F80120704780B514
:1050100000F002F801BDFEE707463846FEF78AF9C0
:10502000FBE7C046C046C046C046FFF7E1FFFEE7CB
:10503000FEE7FEE7FEE7FEE7FEE7FEE7FEE7FEE748
:10504000FEE7FEE7FEE7FEE7FEE7FEE7FEE7FEE738
:10505000FEE7000000000000010203040102030457
:105060000607080948480008080008000000FFFF7C
:105070000000000000000048000800480100000097
:04000005080050237C
:00000001FF
