:020000040800F2
:1000000090040020190A00082D0900082F09000893
:100010003109000833090008350900080000000014
:100020000000000000000000000000003709000888
:1000300039090008000000003B0900083D090008DC
:10004000350A0008390A00083D0A0008410A00087C
:10005000450A0008490A00084D0A0008510A00082C
:10006000550A0008590A00085D0A0008610A0008DC
:10007000650A0008690A00086D0A0008710A00088C
:10008000750A0008790A00087D0A0008810A00083C
:10009000850A0008890A00088D0A0008910A0008EC
:1000A000950A0008990A00089D0A0008A10A00089C
:1000B000A50A00080000000000000000A90A0008CE
:1000C000AD0A0008B10A0008B50A000800000000E7
:1000D000B90A0008BD0A0008C10A0008C50A0008DC
:1000E00041090008C90A0008CD0A00080000000004
:1000F0000000000000000000000000000000000000
:10010000000000000000000000000000D10A00080C
:100110000000000000000000D50A000800000000F8
:1001200000000000000000000000000000000000CF
:1001300000000000000000000000000000000000BF
:10014000D90A0008DD0A00080000000000000000D5
:10015000000000000000000000000000000000009F
:10016000E10A0008E50A0008E90A0008ED0A0008AB
:10017000F10A00080000000000000000000000007C
:1001800000000000F50A0008F0B5DFF8B412DFF84F
:10019000B4220C68002304F00C04082C13D10B6863
:1001A0000C68C3F383439B1CE40303D4DFF8984239
:1001B000634306E08C6A04F00F04641CB2FBF4F4A1
:1001C00063431C4600E0144604600D68DFF87C427F
:1001D000C5F303152D5D076827FA05FCC0F804C0B8
:1001E0000E68C6F30226365D2CFA06F686600E68A7
:1001F000C6F3C226365D2CFA06FCC0F80CC0D1F856
:1002000028C0CCF3041C0CF00F0E04EB4E0E5FEA7A
:10021000CC6CBEF810E004D5BEF1000F18BFB3FBE4
:10022000FEF707618F6AC7F3442707F00F0C04EB52
:100230004C04FF06248A03D514B1B3FBF4F400E0A8
:1002400004684461CC6AE40654BF144604688461BF
:10025000CC6AA40654BF14460468C461CC6A640620
:1002600054BF1446046804625C00CF6AFF0505D5DC
:1002700007689F4204BFAE42274600D0C768476266
:10028000CF6AFF0405D507689F4204BFAE422746E8
:1002900000D0C7688762CF6ABF0505D507689F424F
:1002A00004BFAE42274600D0C768C762CF6A7F0549
:1002B00005D507689F4204BFAE42274600D0C768F5
:1002C0004764CF6A3F0505D507689F4204BFAE4229
:1002D000274600D0C7688764CF6ABF0405D5076882
:1002E0009F4204BFAE42C46401D0C36883644FF42C
:1002F0000043CC6A14F0030F08BF846805D0CC6AB1
:1003000004F00304012C02D1046804630CE0CC6AFD
:1003100004F00304022C08BF036305D0CC6A04F088
:100320000304032C08BF0263CC6A14F4403F08BFE7
:10033000846806D0CC6A04F44034B4F5803F02D11E
:10034000046844630EE0CC6A04F44034B4F5003F22
:1003500008BF436306D0CC6A04F44034B4F5403F90
:1003600008BF4263CC6A14F4402F08BF846806D0EB
:10037000CC6A04F44024B4F5802F02D1046884636D
:100380000EE0CC6A04F44024B4F5002F08BF836368
:1003900006D0CC6A04F44024B4F5402F08BF826331
:1003A000CC6A14F4401F08BF846806D0CC6A04F4F9
:1003B0004014B4F5801F02D10468C4630EE0CC6A17
:1003C00004F44014B4F5001F08BFC36306D0CC6A20
:1003D00004F44014B4F5401F08BFC263CC6A14F49F
:1003E000400F08BF816806D0CC6A04F44004B4F51D
:1003F000800F02D101680164F0BDCC6A04F44004AE
:10040000B4F5000F01D10364F0BDC96A01F44001E5
:10041000B1F5400F08BF0264F0BD0D4A0029116814
:1004200014BF084321EA000010607047094A002900
:10043000116814BF084321EA0000106070470000F3
:100440000410024000127A0000093D000000002064
:100450001410024018100240F0B50268012102F0A9
:100460001F0301FA03F3DC43857953093D4A002D4C
:1004700058D002EB43131D682C401C6003683A4DB2
:100480005C0905EB441403F01F03256801FA03F32C
:1004900025EA0303236004680379650903EB451328
:1004A000D31804F01F041D6801FA04F42C431C60E7
:1004B0002E4B0468650903EB451504F01F042E68F4
:1004C00001FA04F426EA04042C600568284C6E093D
:1004D00004EB461605F01F05376801FA05F527EA13
:1004E000050535600568477905F01F066D096D0142
:1004F00001FA06F6102F0FD15A191368334313600F
:100500000068420904EB421200F01F00136801FA70
:1005100000F018431060F0BD55FA87F01318186802
:10052000304305E0007900EB4310131818682040B1
:100530001860F0BD00BF410949010E4A515800F052
:100540001F0021FA00F000F00100704700BF0121F8
:1005500000F01F02914040094001064A11507047C7
:1005600000000000000401400404014008040140B0
:100570000C040140140401401CB504460FF2F800BD
:1005800000F068F80FF2EC0030F81400009000A9B9
:1005900001208DF8040000F062F803208DF80500BA
:1005A000324850F8240000F08BF813BD2F490FF2A9
:1005B000C40351F820108A8A33F810005040888212
:1005C000704730B504460FF2B80085B00D4600F014
:1005D00041F801210120FFF729FF00208DF81000CC
:1005E0008DF8130003A90FF2940030F81400039063
:1005F0001F4850F8240000F063F8012D28D10FF2B5
:100600008C00215C0FF28000205C00F09FF80FF25C
:10061000740030F81400019000208DF808000C20C0
:100620008DF8090001208DF80A0001A8FFF714FFDA
:100630000FF25C00205C8DF800000F208DF80100A7
:100640008DF8020001208DF8030000A800F092F858
:1006500005B030BD50F824000121FFF7DEBE0020B8
:100660008DF8060001208DF807007047300000204B
:1006700034000020002000000000040000200000E2
:10068000000008000D000000020000000D00000046
:10069000280010B450F8041B81B102681218001D24
:1006A00050F8043BDC0744BFA9F10104E31852F8F9
:1006B000044B43F8044B091FF9D1EBE710BC70471A
:1006C000F0B5002201230C6893401C409C4228D1C5
:1006D00054000325A5400E79ED43012E18BF022ECC
:1006E00010D186682E40866086684F79A7403E43C9
:1006F0008660868826EA0303838083888E79964005
:100700003343838003682B40036003680E79A6405F
:1007100033430360C3682B40CD7905FA04F42343C7
:10072000C360521C102ACDD3F0BD50F8041B61B138
:1007300050F8042BD30744BFA9F101039A180023F2
:1007400042F8043B091FFAD1EFE7704730B501F0DA
:10075000030221F00301064B9200CC580F2595406F
:10076000AC43CC509040CC582043C85030BD000022
:100770000800014070B50378C4781A460121E4B13D
:10078000124B1B68447803F4E063C3F5E0631B0A73
:10079000C3F10405AC4085780F2626FA03F32B40FD
:1007A00023430B4C1B011355007800F01F029140AE
:1007B000084A400942F8201070BD03F01F0001FAFA
:1007C00000F05109044A42F8210070BD0CED00E030
:1007D00000E400E000E100E080E100E02748284A72
:1007E00081B0016841F4700101602648016841F060
:1007F00001010160416811404160234A01681140D4
:100800000160224A016821F480210160C16A09095E
:100810000901C162016B11400163002181600091F7
:1008200000911B4A416821F474114160416841F410
:10083000601141601221116041684160416841606E
:10084000416841F480614160016841F0807101605C
:1008500001688901FCD541688908890041604168C7
:1008600041F002014160416801F00C010829FAD110
:100870004FF000600749086001B0704788ED00E064
:100880000CC0C00800100240FFFFF6FECCFEF0FFD7
:100890000020024008ED00E010B5204C201DFFF7BD
:1008A00073FCA0684FF47A71B0FBF1F0401EB0F118
:1008B000807F08D21A491B4A4860F020107000203F
:1008C0008860072008600020FFF756FE0121002005
:1008D000FFF777FE0020207004E0FFF767FE32206C
:1008E00000F00BF820780028F7D020780128F9D103
:1008F0000020FFF75BFEC820F2E701B40A48009928
:10090000016001680029FCD101B070470648016808
:1009100011B10168491E01607047000038000020D5
:1009200010E000E023ED00E08C0000207047FEE7BF
:10093000FEE7FEE7FEE7704770477047FFF7E6BF48
:1009400080B50D20FFF7F6FD01280CD1064801788F
:1009500001290EBF00210178491C01700D20BDE85E
:100960000240FFF7F3BD01BD3800002010B5074974
:1009700079441831064C7C44163404E00A68081D9A
:10098000511888470146A142F8D110BD0800000067
:100990002800000097FDFFFF5800000038000020ED
:1009A00000000000EFFCFFFF380000004C010000D9
:1009B00000000020000000004EF68851CEF2000139
:1009C000086840F4700008604FF00070E1EE100A13
:1009D0007047000000F00BF8002801D0FFF7C6FFB9
:1009E0000020C046C046FFF757FF00F002F8012084
:1009F000704700F001B800000746384600F002F8E2
:100A0000FBE7000080B5C046C046024A110018202E
:100A1000ABBEFBE7260002000148804701480047C3
:100A2000DD070008290A0008C046C046FFF7C4FFDA
:100A3000FFF7D0FFFFF7FEBFFFF7FEBFFFF7FEBFD8
:100A4000FFF7FEBFFFF7FEBFFFF7FEBFFFF7FEBFDA
:100A5000FFF7FEBFFFF7FEBFFFF7FEBFFFF7FEBFCA
:100A6000FFF7FEBFFFF7FEBFFFF7FEBFFFF7FEBFBA
:100A7000FFF7FEBFFFF7FEBFFFF7FEBFFFF7FEBFAA
:100A8000FFF7FEBFFFF7FEBFFFF7FEBFFFF7FEBF9A
:100A9000FFF7FEBFFFF7FEBFFFF7FEBFFFF7FEBF8A
:100AA000FFF7FEBFFFF7FEBFFFF7FEBFFFF7FEBF7A
:100AB000FFF7FEBFFFF7FEBFFFF7FEBFFFF7FEBF6A
:100AC000FFF7FEBFFFF7FEBFFFF7FEBFFFF7FEBF5A
:100AD000FFF7FEBFFFF7FEBFFFF7FEBFFFF7FEBF4A
:100AE000FFF7FEBFFFF7FEBFFFF7FEBFFFF7FEBF3A
:100AF000FFF7FEBFFFF7FEBF000000000102030486
:100B000001020304060708090100020004000600B0
:100B100008000A000C0010002000400080000001C6
:100B20000000000000000000000400480008004829
:0400000508000A29BC
:00000001FF
