:020000040800F2
:100000004804002015070008CD060008CF060008A8
:1000100000000000000000000000000000000000E0
:10002000000000000000000000000000D1060008F1
:100030000000000000000000D3060008D5060008FC
:10004000EB02000800000000F30300086F04000842
:10005000F3070008FF07000821080008DD06000874
:1000600000000000230800082508000827080008F1
:10007000290800082B0800082D08000800000000CF
:100080002F080008000000000000000031080008F0
:100090003308000835080008370800083908000848
:1000A0003B0800083D0800083F0800084108000818
:1000B00043080008F0B504000020434D29684D4E68
:1000C0000C220A40082A02D00C2A17D018E028680F
:1000D00029688002070FBF1CC0204002084003D1DE
:1000E00038007108484307E0A96A30000907090F82
:1000F000491C00F08DF87843010002E03E4900E021
:10010000310021602B683D4922681B061B0FCB5C28
:10011000DA4062602B685B055B0FC95CCA40A26075
:10012000E96AC90501D4364905E02968490401D4C2
:10013000510800E09108E16080210902EA6A520654
:1001400001D4304A00E00A002261EA6AD20601D4F2
:10015000320000E0226862610322EB6A134001D1A1
:10016000A26804E0EB6A1340012B02D12268A2616D
:100170000AE0EB6A1340022B01D1A16104E0EB6AB3
:100180001A40032A00D1A661C0229202EB6A1340F2
:1001900001D1A1680BE0EB6A13404F00BB4201D1D3
:1001A000216804E0EB6A13408F00BB4201D1E1619A
:1001B00004E0E96A1140914200D1E661E96A09066A
:1001C00000D40D482062F0BD041002400E4A002900
:1001D000116802D008431060704781431160704776
:1001E0000A4A0029116802D0084310607047814311
:1001F0001160704700127A00006CDC0200000020E1
:10020000809FD50012800000141002401810024098
:100210000022030A8B420BD203098B4219D24308F6
:100220008B422ED2411A00D20146524110467047ED
:10023000FF2209023FD012068B4205D31212090297
:100240008B4201D31212090203098B4219D300E039
:10025000090AC3098B4201D3CB01C01A5241830959
:100260008B4201D38B01C01A524143098B4201D307
:100270004B01C01A524103098B4201D30B01C01A32
:100280005241C3088B4201D3CB00C01A52418308AC
:100290008B4201D38B00C01A524143088B4201D3D9
:1002A0004B00C01A5241884200D3401A5241CFD26B
:1002B00001461046704708B500F016F808BD38B47E
:1002C000012100220368001D002B0BD00468001DD3
:1002D0000C4202D04D466D1E64192260241D1B1F66
:1002E000F0D0FAE732BC70477047FEE730B583B014
:1002F0000500AC00012100BF37A00059FFF766FFE1
:10030000680000BF33A1085A0090012069460871B7
:1003100000228A71C871032048712C48005900F0EE
:1003200069F837BD8100294A51588A8A400000BFC8
:1003300028A3185A5040888270470000F0B587B053
:100340000C000600B00000900121009824A2105873
:10035000FFF73CFF01210120FFF742FF002504A821
:100360000571C571770000BF1CA0C05B049004A993
:100370000098174A105800F03DF8012C1AD100BF20
:100380001AA0815D18A0805D00F072F815A0C05B16
:10039000029002A8057108214171847100F07CF877
:1003A00001A800BF12A1895D017003214170847012
:1003B00000F0B6F807B0F0BD80B5410007A2515A71
:1003C0008000034A105800F04AF802BD10000020D7
:1003D00014000020200000000000020000200000A7
:1003E0000000080000200000020000000D000000D6
:1003F0000700FEE7F0B5002301229A400C68144084
:10040000944228D15C000326A640F5430E79012EC4
:1004100001D0022E0FD186682E40866086684F7903
:10042000A7403743876086889643868082888E7986
:100430009E401643868002682A40026002680E7958
:10044000A64016430660C2681540C560C268CD79F3
:10045000A5401543C5605B1C102BCDD3F0BD020039
:100460000020128AFFE70A4200D001207047FEE711
:1004700010B50A0003239A43064B9A188907090FFF
:1004800013680F248C40A3431360136888401843FB
:10049000106010BD0800014030B50168CC431E4912
:1004A0008279002A25D00A4613681C4014605368DC
:1004B0000468A343536003795B181C6805682543EF
:1004C0001D6093680468A3439360D3680468A343E2
:1004D000D36043790468102B07D191680C43946072
:1004E000D16800680843D06030BD5B1818680443C9
:1004F00003E000794318186804401C6030BD00BF59
:1005000001000020054A1268114000D00120704708
:1005100002490860704700000004014014040140D3
:1005200070B503781F2101228478002C15D01C009F
:100530000325AC430B4D2C1925689B07DB0EFF26CA
:100540009E40B5434678B607360E9E402E43266041
:10055000007801408A40044802E019408A4003487C
:10056000026070BD00E400E000E100E080E100E036
:1005700082B02648016801220A4302604168244A89
:100580000A4042600168234A0A4002600168224A28
:100590000A4002604168214A0A404260C16A0F2253
:1005A0009143C162016B1E4A0A400263416B012202
:1005B0009143416300218160009100911121194A0A
:1005C000116041684160416841604168164A0A40D3
:1005D00042604168A02292030A434260016880227F
:1005E00052040A43026001688901FCD54168032274
:1005F00091434160416802220A43426041680C22F3
:100600000A40082AFAD102B07047000000100240E8
:100610000CB8FF08FFFFF6FEFFFFFBFFFFFFC0FF68
:10062000ACFEFFFF00200240FF7FC2FF38B5234C25
:10063000201DFFF73FFDA068FA218900FFF7E8FDC4
:10064000401E00258021490488420CD21C49486084
:100650001C4802681202120AC0231B0613430360DF
:100660008D60072008600020FFF740FE0121002078
:10067000FFF764FE257004E0FFF754FE322000F01F
:100680000BF820780028F7D020780128F9D1002035
:10069000FFF748FEC820F2E781B001B40A4800998C
:1006A000016001680029FCD102B07047064801686A
:1006B000002902D00168491E01607047180000201F
:1006C00010E000E020ED00E0400000207047FEE771
:1006D0007047704780B5FFF7E9FF01BD10B5802472
:1006E000A4012000FFF70BFF012810D10020FFF725
:1006F00063FE00280BD006480178012901D10021B2
:1007000001E00178491C01702000FFF701FF10BDD6
:1007100018000020094880F3088804200168090EA9
:100720001F22914205D106480121016005480021A0
:100730000160054880470548004700004804002044
:10074000181002400000014071050008150800085B
:1007500038B401210268001D002A0FD00368C318B5
:10076000446808300C4202D04D466D1E64191D6865
:1007700025601B1D241D121FECD0F8E732BC70470A
:1007800010B5074979441831064C7C44163404E00E
:10079000081D0A68891888470100A142F8D110BDD8
:1007A000080000002800000017FBFFFF2C000000DD
:1007B000180000200000000099FFFFFF1800000053
:1007C00084000000000000200000000000F00BF892
:1007D000002801D0FFF7D4FF0020C046C046FFF735
:1007E00025FF00F002F80120704780B500F002F804
:1007F00001BDFEE70746384600F002F8FBE7FEE7DA
:1008000080B5C046C046024A11001820ABBEFBE7C7
:1008100026000200C046C046C046C046FFF7D6FFCD
:10082000FEE7FEE7FEE7FEE7FEE7FEE7FEE7FEE7A0
:10083000FEE7FEE7FEE7FEE7FEE7FEE7FEE7FEE790
:10084000FEE7FEE7000000000102030401020304CA
:0C085000060708090000004800080048E6
:0400000508000815D2
:00000001FF
