:020000040800F2
:1000000078040020C90000085B02000859020008BB
:1000100000000000000000000000000000000000E0
:100020000000000000000000000000005D09000862
:100030000000000000000000C5020008C10900081F
:10004000F90000080000000059060008F900000847
:10005000F9000008F9000008F9000008F90000089C
:1000600000000000F9000008F9000008F90000088D
:10007000F9000008F9000008F9000008000000007D
:10008000F90000080000000000000000F90000086E
:10009000F9000008F9000008F9000008F90000085C
:1000A000F9000008F9000008F9000008F90000084C
:1000B000F90000080348854600F048F8004800476A
:1000C000C50B0008780400200C4880F308880C4811
:1000D0000168090E0B4A914205D10B480B4901609A
:1000E0000B480C4901600C4880470C480047FEE76C
:1000F000FEE7FEE7FEE7FEE7FEE7000078040020EB
:10010000040000001F000000181002400100000061
:100110000000014000000000C5090008B50000080B
:1001200030B50B46014600202022012409E00D468F
:10013000D5409D4205D31D469540491B2546954017
:1001400040191546521E002DF1DC30BD064C01252C
:10015000064E05E02046E36807C82B439847103455
:10016000B442F7D3FFF7AAFF4C0C00086C0C000850
:1001700001494861704700000004014010B58379CF
:1001800018490268002B26D00B6893430B604A681D
:1001900003689A434A60027952181368046823433B
:1001A00013608A6803689A438A60CA6803689A433E
:1001B000CA604279102A05D051180A6800680243C3
:1001C0000A6010BD8A6803681A438A60CA680068BA
:1001D0000243CA6010BD0079401801689143016074
:1001E00010BD000000040140F0B5002201242346A8
:1001F0000D6893401D409D422AD10D79012D01D0FB
:10020000022D12D1876855000326AE40B7438760A0
:100210004E79AE4085682E43866085889D438580F3
:1002200085888B7993401D4385800668550003239C
:10023000AB409E4306600E790768AE403E430660C1
:10024000C6689E43C660CB79AB40C5682B43C3608C
:10025000521C102ACBD3F0BDFEE7704730B5817831
:1002600001220378002915D09C080E49A4006418C7
:1002700021689B07DD0EFF23AB40994343789B0722
:100280001B0EAB400B4323600078C006C00E8240BB
:10029000054804E0D806C00E824003488030026062
:1002A00030BD000000E400E000E100E004498A15F0
:1002B0000028086801D0104300E0904308607047B0
:1002C0000070004070470000044A0029516901D0C5
:1002D000014300E08143516170470000001002407B
:1002E000044A0029D16901D0014300E08143D16172
:1002F0007047000000100240012205491204002846
:10030000086A01D0104300E0904308627047000083
:1003100000100240034600200A495A090CD0012A65
:100320000CD0022A0CD0496BDA06D20E012393407E
:100330000B4200D0012070470968F5E7096AF3E72E
:10034000496AF1E70010024006490A6A5208520061
:100350000A620A6A04239A430A620A6A02430A6228
:10036000704700000010024001220549D203002816
:10037000086A01D0104300E0904308627047000013
:100380000010024002490A6A02430A6270470000F4
:100390000010024018B500220092114ACA2353628D
:1003A000532353620029916802D00143916010E009
:1003B00081439160000A01239B03D168009C0140A6
:1003C000641C00949C4201D00029F6D0D1680142FF
:1003D00003D00120FF21516218BD0020FAE7000080
:1003E0000028004001090A2200075143000F40186D
:1003F000C0B27047002103E0491C0A38C9B2C0B23C
:100400000A28F9D20907090E0843704780210843DA
:10041000C003C00BC2430348C3680B401A43C26009
:10042000704700000028004000098021084380B286
:10043000C2430348C3680B401A43C26070470000C0
:1004400000280040F0B501218BB00807FFF748FFF6
:100450000120FFF72BFF0120FFF74EFF0020FFF7E1
:100460004BFF0120FFF722FF0120FFF76DFF212046
:10047000FFF750FF0028FAD0FF2701373846FFF773
:1004800081FF0120FFF770FF00F014FA7F20089031
:10049000FF20213000240990079407A800F00CF9F0
:1004A0006846C4730125057344730426867331219D
:1004B00001761F48049003AA39460594284600F0A7
:1004C0001FF90121080300F0D9F801213846FFF790
:1004D00061FF18480E21C17046700A218170022602
:1004E00006700146012000F04FF91248001DC4704B
:1004F0000570447084700146012000F08FF9384681
:10050000FFF784FF6F043846FFF732FE6846009716
:100510000471082141718571FFF730FE684606724B
:100520004472857202A8FFF799FE0BB0F0BD00007F
:10053000808080800800002018B5002000900C48C2
:10054000C168490612D40021C943C1604022031486
:10055000C168009C1140641C00949C4201D0002999
:10056000F6D0C068400601D4002018BD012018BD97
:10057000002800400248C16880229143C160704752
:1005800000280040024610B50F480C464068C021C4
:10059000C94301400002000ECB04E070DB0E637023
:1005A0008B069B0E0904490FA3702170002A0AD103
:1005B000FFF718FFE0706078FFF714FF6070A07815
:1005C000FFF710FFA07010BD0028004070B50D4966
:1005D00000220B6804210B4C0B40403CA168860CA8
:1005E0000546F540ED0B1D400140E3682943000935
:1005F0000340002903D01804000C00D0012210464B
:1006000070BD00004028004070B50C4610490B68D2
:10061000104919408A024D04920E22706D0E49064F
:100620006570490EA1705902490E40231940E170CE
:1006300000280BD11046FFF7D5FE20706078FFF739
:10064000D1FE6070A078FFF7CDFEA07070BD0000F5
:10065000002800407F7F7F0010B50124240320463E
:10066000FFF7B4FF002808D0002000F069F9204609
:10067000FFF7DAFE6001FFF77BFD10BD30B50D4AD4
:10068000CA2353625323536204250446094BAC43E7
:10069000403328400029916804D0214391601968B3
:1006A000014303E0A1439160196881431960FF2071
:1006B000506230BD0028004070B5054600260F4C42
:1006C000CA20606253206062FFF736FF002811D015
:1006D000A06840218843A060A06829680843A06002
:1006E000A86820612069A988090408432061FFF7F0
:1006F00041FF0126FF206062304670BD00280040A7
:1007000070B500211F4E0028B068144605D0400681
:100710001AD52078FFF766FE17E0400600D4E17096
:100720002078FFF767FE05046078FFF763FE00029C
:100730000543A078FFF75EFE0543E078000405431B
:10074000207BFFF757FE0EE0E170207BFFF74AFEAB
:100750002078A578000405436078E1780002090458
:1007600008430543207B00060543A06805436068F5
:100770000543CA20706253207062F561FF207062E9
:1007800070BD00000028004070B50C4601460026F0
:10079000607800290ED0FFF725FEA078FFF722FE33
:1007A000E078A578000405436078217800024903C9
:1007B000084314E0C10603D5EF2108400A306070F9
:1007C000E078FFF717FE05046078FFF713FE0002DC
:1007D0000543A078FFF70EFE05432078400305434C
:1007E0000C4CCA20606253206062FFF7A5FE00280F
:1007F0000CD0094805406560FFF7BCFEA068800684
:1008000003D400F057F8002800D00126FF206062D2
:10081000304670BD002800403FFFFF00F8B502469B
:100820000027224D0C46002A0978AA68384605D0D0
:1008300052062FD50846FFF7D5FD2CE0520600D40E
:10084000E0700846FFF7D6FD06046078FFF7D2FD9A
:1008500000020643A078FFF7CDFD0643E0780004D0
:100860000643CA20686253206862FFF765FE0028CD
:100870000CD00F4806402E60FFF77CFEA86880066B
:1008800003D400F017F8002800D00127FF20686289
:100890003846F8BDE0702078A678000406436078FA
:1008A000E178000209040843DAE70000002800406C
:1008B0007F7F7F0018B5002011490090886880066E
:1008C00001D5012018BDCA20486253204862C8687B
:1008D000A0229043C86020229302C868009C104068
:1008E000641C00949C4201D00028F6D0C8688006A1
:1008F00001D5012000E00020FF224A6218BD00005F
:10090000002800407CB5044685000B480121405971
:10091000FFF7DAFC084960000839085A0090012006
:100920006946087100228A71C87103204871034822
:100930004059FFF759FC7CBD440C00080000002022
:100940000449820089588A8A034B4000185A424061
:100950008A827047000000203C0C000870470000AD
:1009600008B5002000901449112008601348416820
:1009700041604168416041687B22D20391434160FC
:1009800041680522D2041143416001680122120628
:100990001143016001688901FCD54168890889001B
:1009A0004160416802221143416041680907890F93
:1009B0000229FAD108BD00000020024000100240C8
:1009C0007047000010B5144801680122114301600E
:1009D0004168124A114041600168114A11400160AA
:1009E0000168012292049143016041683F22120490
:1009F00091434160C16A09090901C162016BFF228B
:100A0000543291430163416B49084900416300211D
:100A10008160FFF7A5FF10BD001002400CB8FF0871
:100A2000FFFFF6FE0FB410B504A9074B02AA039806
:100A300000F01CF8044602A9002000F0BDF8204692
:100A400010BC08BC04B01847B90B000802E008C885
:100A5000121F08C1002AFAD170477047002001E038
:100A600001C1121F002AFBD170470000FFB58DB0F5
:100A70000446002596E0252832D10027641C4D4A03
:100A80000121009723780846203B984003461342F3
:100A900002D00743641CF5E720782E2817D10420E4
:100AA0000743641C20782A280CD10E98641C02C8C5
:100AB00000910E900BE000990A2251433039401802
:100AC000641C00902078014630390929F3D9207838
:100AD00000286BD0642808D0692806D075281ED05D
:100AE000109A0F9990476D1C5BE00A200E990190B7
:100AF00001C90E91002802DA40422D2102E0390599
:100B000004D52B216A461172012103E0F90704D0B4
:100B10002021F7E70BAE0B910DE00021FAE70A2048
:100B20000E99019001C90E91F7E70199FFF7F8FAC4
:100B30003031761E31700028F7D103A8801B203099
:100B40000190780701D5009801E0012000900199FB
:100B5000884201DD401A00E000200027009006E0F6
:100B600002A8109AC05D0F9990476D1C7F1C0B98CE
:100B70008742F5DB04E0109A30200F9990476D1CF6
:100B80000099481E00900029F5DC05E03078109AA5
:100B9000761C0F9990476D1C0199481E0190002901
:100BA000F4DC641C2078002800D064E7284611B0EB
:100BB000F0BD0000092801000A68531C0B6010708A
:100BC0007047000008B50020FFF79CFEFFF73AFCD5
:100BD0000F4C7D26251F36010D490020FFF714FD1F
:100BE0000B490020091FFFF7CDFCA0780090637827
:100BF000227808A10B48FFF715FFE8780AA18019B1
:100C000000900848AB786A783230FFF70BFFE3E7D3
:100C10000C000020252E32643A252E32643A252E0F
:100C20003264000010000020252E32642D252E3263
:100C3000642D252E32640000020D070020000020E4
:100C40000020000000000200000008006C0C0008FA
:100C500000000020100000004C0A00087C0C000876
:100C600010000020680400005C0A00080000004832
:0C0C700000080048000000000000000028
:04000005080000B53A
:00000001FF
