:020000040800F2
:1030000008050020C9300008FD320008CB32000856
:1030100000000000000000000000000000000000B0
:10302000000000000000000000000000B9350008AA
:103030000000000000000000513300089136000835
:10304000F930000800000000F9300008F9300008ED
:10305000F9300008F9300008F9300008853100081F
:1030600000000000F9300008F9300008F9300008CD
:10307000F9300008F9300008F930000800000000BD
:10308000F93000080000000000000000F9300008DE
:10309000F9300008F9300008F9300008F93000086C
:1030A000F9300008F9300008F9300008F93000085C
:1030B000F93000080348854600F048F8004800470A
:1030C0002D370008080500200C4880F308880C48BC
:1030D0000168090E0B4A914205D10B480B4901606A
:1030E0000B480C4901600C4880470C480047FEE73C
:1030F000FEE7FEE7FEE7FEE7FEE70000080500202A
:10310000040000001F000000181002400100000031
:10311000000001400000000099360008B5300008AA
:1031200030B50B46014600202022012409E00D465F
:10313000D5409D4205D31D469540491B25469540E7
:1031400040191546521E002DF1DC30BD064C0125FC
:10315000064E05E02046E36807C82B439847103425
:10316000B442F7D3FFF7AAFF9C370008BC3700082A
:1031700001B503480099416041680029FCD108BDB0
:10318000D800002010B501246403204600F01EF88A
:1031900001280ED1002000F0BDF9002809D0074910
:1031A0000878012806D00A78521C0A70204600F0E0
:1031B00007F810BD00200870F8E70000D8000020D4
:1031C000014948617047000000040140034A01467C
:1031D000526900200A4200D00120704700040140DB
:1031E00010B5837918490268002B26D00B689343E9
:1031F0000B604A6803689A434A6002795218136860
:103200000468234313608A6803689A438A60CA6823
:1032100003689A43CA604279102A05D051180A6897
:10322000006802430A6010BD8A6803681A438A6016
:10323000CA6800680243CA6010BD0079401801687E
:103240009143016010BD000000040140F0B5002270
:10325000012423460D6893401D409D422AD10D79DB
:10326000012D01D0022D12D1876855000326AE40F2
:10327000B74387604E79AE4085682E438660858867
:103280009D43858085888B7993401D4385800668A2
:1032900055000323AB409E4306600E790768AE409D
:1032A0003E430660C6689E43C660CB79AB40C568A6
:1032B0002B43C360521C102ACBD3F0BD0246128AA6
:1032C00000200A4200D001207047FEE710B5002020
:1032D000094A01235B0781008C182468C918401C27
:1032E0000C603028F7D30121084600F03FF8032096
:1032F00000F078F910BD00000030000870470000B1
:1033000030B5817801220378002915D09C080E4938
:10331000A400641821689B07DD0EFF23AB4099438E
:1033200043789B071B0EAB400B4323600078C0061D
:10333000C00E8240054804E0D806C00E8240034813
:103340008030026030BD000000E400E000E100E0F9
:1033500070470000044A0029516901D0014300E090
:10336000814351617047000000100240044A002967
:10337000916901D0014300E08143916170470000F1
:1033800000100240F8B5464D0446696800200C2242
:10339000444E114005D0042903D0082903D00C293C
:1033A00018D0266018E06968686803228902D20391
:1033B0000F0F1040BF1C002809D0E86A0107090F51
:1033C000491C3046FFF7ACFE7843206004E03648E5
:1033D0007843FAE7354921606968354B0906090FDA
:1033E0005A5C21680F46D74067606A685205520FE1
:1033F0009A5CD740A7602A6BD20501D42D4A05E01C
:103400006A68520401D47A0800E0BA08E2602A6BC4
:103410005306294A03D4284B1233236100E022616A
:103420002B6BDB0601D4666100E061612B6B9B07AF
:103430000ED02B6B9B079B0F012B0BD02B6B9B078D
:103440009B0F022B08D02B6BDB439B0706D006E0BB
:10345000A76104E0A16102E0A26100E0A6612B6B1C
:103460009B039B0F0FD02B6B9B039B0F012B0CD04F
:10347000296B8903890F022909D0296B8903890FD8
:10348000032906D006E0E76104E0E16102E0E261C1
:1034900000E0E661296B090600D404482062F8BD0B
:1034A0000010024000127A0000093D00006CDC02AE
:1034B000C0000020809FD500008000007CB504463D
:1034C00085000B4801214059FFF744FF084960007F
:1034D0000839085A009001206946087100228A7153
:1034E000C8710320487103484059FFF7AFFE7CBD07
:1034F00094370008D00000200449820089588A8A45
:10350000034B4000185A42408A827047D000002086
:103510008C37000810B5044A4100515A034A800014
:103520001058FFF7CBFE10BD8E370008D4000020E6
:10353000F3B5044686001E4887B080590121FFF785
:1035400009FF01210846FFF711FF002568460572B3
:10355000C572174867000A38C05B0190154801A979
:103560008059FFF773FE089801281ED110480F38C4
:10357000015D401E005D00F021F80D48082108386B
:10358000C05B04906846057541750125857504A8E2
:10359000FFF726FE06480E38015D684601760321D6
:1035A0004176857606A8FFF7ABFE09B0F0BD0000B6
:1035B00098370008D4000020704700008A07130FD6
:1035C00010B50F229A408C080549A40061188C6838
:1035D00094438C608A68984002438A6010BD000062
:1035E00000000140034A1168890889000143116005
:1035F000704700000000014008B500200090144909
:103600001120086013484168416041684160416889
:103610007B22D2039143416041680522D2041143C9
:1036200041600168012212061143016001688901AD
:10363000FCD5416889088900416041680222114334
:10364000416041680907890F0229FAD108BD0000CD
:1036500000200240001002400A4910B5401E884276
:1036600001D9012010BD0849486108480722C369F3
:103670001B021B0A4C042343C361002088610A61BA
:1036800010BD0000FFFFFF0000E000E004ED00E0DF
:1036900010B500F031F810BD10B5144801680122D2
:1036A000114301604168124A114041600168114AAA
:1036B0001140016001680122920491430160416858
:1036C0003F22120491434160C16A09090901C162A4
:1036D000016BFF22543291430163416B4908490059
:1036E000416300218160FFF787FF10BD0010024099
:1036F0000CB8FF08FFFFF6FE03484168002902D01E
:103700004168491E41607047D800002002E008C8A7
:10371000121F08C1002AFAD170477047002001E04B
:1037200001C1121F002AFBD170470000FFF7CEFD38
:103730001348FFF727FE12487D214068C900FFF7B4
:10374000EFFCFFF789FF0020FFF7B8FE0121002002
:10375000FFF7EEFE0B4C002020702078002809D0E7
:1037600020780128F9D10020FFF7C6FEC820FFF716
:10377000FFFCF2E70020FFF7BFFE3220F7E7000072
:10378000E0000020D8000020020D070020000020EB
:10379000002000000000020000000800BC37000804
:1037A000C0000020200000000C370008DC370008B3
:1037B000E0000020280400001C3700080000000082
:1037C000010203040102030406070809000000487F
:0C37D0000008004800000000000000009D
:04000005080030B50A
:00000001FF
