:020000040800F2
:1000000038040020E1060008E9050008EB050008B7
:10001000ED050008EF050008F105000800000000EC
:10002000000000000000000000000000F3050008D0
:10003000F505000800000000F7050008F9050008B4
:10004000FD06000801070008050700080907000869
:100050000D07000811070008150700081907000818
:100060001D070008210700082507000829070008C8
:100070002D07000831070008350700083907000878
:100080003D07000841070008450700084907000828
:100090004D070008510700085507000859070008D8
:1000A0005D07000861070008650700086907000888
:1000B0006D07000871070008750700087907000838
:1000C0007D070008810700088507000889070008E8
:1000D0008D07000891070008950700089907000898
:1000E000FD0500089D070008A107000810B504469B
:1000F0000FF2EC0082B050F82400012100F0CFF89C
:100100000FF2D80030F8140000F060F810208DF8DD
:10011000030003208DF802002E4850F8240000F060
:10012000D1F813BD2B490FF2B40351F82010CA685F
:1001300033F810005040C860704730B504460FF2E5
:10014000A80085B050F824000D46012140F00100C0
:1001500000F0A5F804208DF8070001A90FF2840033
:1001600030F81400ADF804001B4850F8240000F0EB
:10017000A9F8012D28D10FF27C00215C0FF270004C
:10018000205C00F0FCF80FF2640030F814000290DC
:1001900000208DF80C0008208DF80D0001208DF84E
:1001A0000E0002A800F0FEF80FF24C00205C8DF863
:1001B00000000F208DF801008DF8020001208DF85D
:1001C000030000A800F034F905B030BDADF8000020
:1001D00000A9704714000020180000202000000033
:1001E00004000000002000001000000000200000BB
:1001F000020000000D000000280010B450F8041B9D
:1002000081B102681218001D50F8043BDC0744BF9E
:10021000A9F10104E31852F8044B43F8044B091FF9
:10022000F9D1EBE710BC704730B52149214B0A6882
:1002300002F00C02082A0ED10A680C681E4DC2F3A7
:100240008342921C5543E40302D50C68A40301D5F4
:100250002B4600E053430360184A0B680468C3F35D
:1002600003139B5C24FA03F343600B684468C3F3F5
:1002700002239B5C24FA03F383600B684468C3F396
:10028000C2239B5C24FA03F3C3600968C368C1F30B
:1002900081318918097CB3FBF1F1016130BD084A55
:1002A0000029116814BF084321EA0000106070475C
:1002B0000410024000127A0000093D0000000020F6
:1002C000181002402DE9F041CC78002204F00F0311
:1002D000E40644BF8C7823430C8801250F26E7B23F
:1002E00017B3D0F800C005FA02F7BE460EEA0408BC
:1002F000F04514D14FEA820E06FA0EF82CEA080CEB
:1003000003FA0EFE4EEA0C0C91F803E0BEF1280F42
:1003100008BF476103D0BEF1480F08BF0761521CF8
:10032000082AE0D3C0F800C0FF2C26DDD0F804C0B6
:10033000002202F1080705FA07F7BE460EEA040894
:10034000F04515D14FEA820E06FA0EF82CEA080C99
:1003500003FA0EFE4EEA0C0C91F803E0BEF1280FF2
:1003600008BF476191F803E0BEF1480F08BF07617D
:10037000521C082ADDD3C0F804C0BDE8F08130B5B6
:1003800001F0030221F00301054B9200CC580F2528
:100390009540AC43CC509040CC582043C85030BD21
:1003A0000800014030B501688279CB431E492AB369
:1003B0000A4614682340136053680468A3435360DB
:1003C0000379CC18236805682B432360936804687D
:1003D000A3439360D3680468A343D360437905685B
:1003E000102B07D1916829439160D16800680843B8
:1003F000D06030BDCC182068284303E000790C1889
:1004000020681840206030BD074A136852690021F7
:10041000034002421CBF002B01210846704700BF69
:1004200002490860704700000004014014040140C4
:1004300070B50378C4781A460121E4B1124B1B68E9
:10044000447803F4E063C3F5E0631B0AC3F10405D9
:10045000AC4085780F2626FA03F32B4023430B4C40
:100460001B011355007800F01F029140084A400913
:1004700042F8201070BD03F01F0001FA00F051098E
:10048000044A42F8210070BD0CED00E000E400E0F9
:1004900000E100E080E100E029482A4A81B00168DB
:1004A00041F001010160416811404160264A016844
:1004B00011400160016821F480210160416821F44C
:1004C000FE0141604FF41F01816000210091009105
:1004D000416821F474114160416841F46011416048
:1004E0001A490A6842F010020A600A68D208D2006B
:1004F0000A600A6842F002020A604168416041688D
:100500004160416841F480614160016841F080715F
:10051000016001688901FCD5416889088900416052
:10052000416841F002014160416801F00C01082975
:10053000FAD14FF000600649086001B07047000032
:10054000001002400000FFF8FFFFF6FE002002400E
:1005500008ED00E010B5204C201DFFF765FEA068F7
:100560004FF47A71B0FBF1F0401EB0F1807F08D2F9
:100570001A491B4A4860F02010700020886007204C
:1005800008600020FFF7B2FD01210020FFF7D5FD34
:100590000020207004E0FFF7C5FD322000F00BF8CA
:1005A00020780028F7D020780128F9D10020FFF723
:1005B000B9FDC820F2E701B40A480099016001685A
:1005C0000029FCD101B070470648016811B10168EB
:1005D000491E0160704700001C00002010E000E090
:1005E00023ED00E0340000207047FEE7FEE7FEE761
:1005F000FEE7704770477047FFF7E6BF80B54FF4DE
:100600000050FFF701FF68B10748017801290EBFCC
:1006100000210178491C01704FF40050BDE80240F0
:10062000FFF7FDBE01BD00001C00002010B507490A
:1006300079441831064C7C44163404E00A68081DDD
:10064000511888470146A142F8D110BD2C00000086
:100650004C00000050F8041B61B150F8042BD30784
:1006600044BFA9F101039A18002342F8043B091F73
:10067000FAD1EFE770470000DDFFFFFF1C0000002C
:100680001C0000200000000073FBFFFF1C000000A6
:1006900014010000000000200000000000F00BF832
:1006A000002801D0FFF7C2FF0020C046C046FFF778
:1006B00051FF00F002F80120704700F001B800007F
:1006C0000746384600F002F8FBE7000080B5C04658
:1006D000C046024A11001820ABBEFBE7260002000C
:1006E000014880470148004799040008F1060008C6
:1006F000C046C046C046C046FFF7D0FFFFF7FEBF6A
:10070000FFF7FEBFFFF7FEBFFFF7FEBFFFF7FEBF1D
:10071000FFF7FEBFFFF7FEBFFFF7FEBFFFF7FEBF0D
:10072000FFF7FEBFFFF7FEBFFFF7FEBFFFF7FEBFFD
:10073000FFF7FEBFFFF7FEBFFFF7FEBFFFF7FEBFED
:10074000FFF7FEBFFFF7FEBFFFF7FEBFFFF7FEBFDD
:10075000FFF7FEBFFFF7FEBFFFF7FEBFFFF7FEBFCD
:10076000FFF7FEBFFFF7FEBFFFF7FEBFFFF7FEBFBD
:10077000FFF7FEBFFFF7FEBFFFF7FEBFFFF7FEBFAD
:10078000FFF7FEBFFFF7FEBFFFF7FEBFFFF7FEBF9D
:10079000FFF7FEBFFFF7FEBFFFF7FEBFFFF7FEBF8D
:1007A000FFF7FEBF00000000010203040102030482
:1007B000060708090204060800080140001001406D
:04000005080006F1F8
:00000001FF
