:020000040800F2
:10000000480D0020A14B0008E54A0008E74A000817
:10001000E94A0008EB4A0008ED4A00080000000029
:10002000000000000000000000000000EF4A00088F
:10003000F14A000800000000F34A0008F54A0008F1
:10004000BD4B0008C14B0008C54B0008C94B000858
:10005000CD4B0008D14B0008D54B0008D94B000808
:10006000DD4B0008E14B0008E54B0008E94B0008B8
:10007000ED4B0008F14B0008F54B0008F94B000868
:10008000FD4B0008014C0008054C0008094C000815
:100090000D4C0008114C0008154C0008194C0008C4
:1000A0001D4C0008214C0008254C0008294C000874
:1000B0002D4C0008314C0008354C0008394C000824
:1000C0003D4C0008414C0008454C0008494C0008D4
:1000D0004D4C0008514C0008554C0008594C000884
:1000E000F94A00085D4C0008614C0008654C0008A6
:1000F000694C0008000000006D4C0008714C0008BD
:10010000754C0008794C00087D4C0008814C0008B3
:10011000854C0008894C00088D4C0008914C000863
:10012000954C000803E011F8013B00F8013B134631
:100130005A1E002BF7D17047130003D00A46194608
:1001400001F05CB8704770B504462079A0B1E56A4B
:1001500000F014F808B1012070BD2071206AA16977
:10016000281A884208D2E67804E0A069451900F010
:1001700005F8761E022EF8D2002070BD60780123AB
:100180002A4604F1300101F0B2B838B504460D46F4
:10019000E06A85420ED02046FFF7D5FF38B9607877
:1001A00001232A4604F1300101F08FF808B1012043
:1001B00032BDE562002032BD38B50446FFF7C3FF0B
:1001C00005005AD12078032804BF607901284DD159
:1001D0004FF40072002104F13000FFF7ADFF55200D
:1001E00084F82E020123AA2084F82F0204F13001A2
:1001F000522084F8300084F83100612084F8320005
:10020000412084F83300722084F8140284F8150227
:10021000412084F81602612084F81702206984F8CE
:10022000180220690004000E84F819022069000CED
:1002300084F81A022069000E84F81B02E06884F832
:100240001C02E0680004000E84F81D02E068000C47
:1002500084F81E02E068000E84F81F02E069421C68
:10026000E262607801F043F800206071002260785B
:10027000002101F050F800B10125284632BD426945
:10028000891E921E914201D3002070478278806AB5
:1002900002FB01007047F8B50D460446022D02D35B
:1002A0006069854201D30120F2BD2078012804D085
:1002B00049D303282FD01ED345E0206A05EB55070C
:1002C00000F0B2F800283ED1F80514EBD0507F1CA6
:1002D00090F8306000F0A7F8A8BBF80514EBD050F8
:1002E00090F8300046EA0026E80701D53009F2BD53
:1002F0003005000DF2BD206A00EB152100F096F8E4
:1003000008BB6800C00514EBD0503030417800784D
:1003100040EA0120F2BD206A00EBD51100F086F81A
:1003200088B9A800C00514EBD05030308278C1786D
:10033000120442EA01614278007841EA022108434E
:1003400000010009F2BD4FF0FF30F2BDF8B50E46D6
:1003500004461546022E02D36069864201D302206C
:10036000F2BD2078012804D059D303283ED02DD3E4
:1003700055E0206A06EB560700F056F800284FD1EA
:10038000F80514EBD05000F1300116F001061DBF46
:10039000087800F00F0040EA0510284608707F1C1E
:1003A0000120207100F03FF8002839D1F90514EB45
:1003B000D15130310EB12A0906E00A782B0A02F039
:1003C000F00203F00F031A430A7029E0206A00EBE1
:1003D000162100F02BF818BB7100C90514EBD151A0
:1003E00001F8305F2D042A0E4A7019E0206A00EBF4
:1003F000D61100F01BF898B9B100C90514EBD15122
:100400003031CA78120602F0704215432A040D708A
:10041000120E4A702A0C8A702A0ECA7000E002205E
:1004200001212171F2BD206A00EB57212046ACE684
:10043000F8B50E460446022E0BD36069864208D2F8
:10044000002531462046FFF726FF07001BD0012F6D
:1004500001D1022517E017F1010F01D1012512E0AA
:10046000002200F012F805000DD1206910F1010FF3
:1004700005D0401C2061607940F0010060713E466B
:1004800060698642DDD32846F2BD314620465DE7ED
:10049000F8B504460E0006D1E76817B160698742D7
:1004A0000BD3012709E0FFF7F6FE022801D2012055
:1004B000F2BD6169884233D337463D4660696D1CA1
:1004C000854202D30225022F22D329462046FFF778
:1004D000E2FEB0B96FF070422946FFF7D7FF18B9B6
:1004E0001EB12A46FFF7D1FFA0B9E560206910F1DF
:1004F000010F14D0401E2061607940F0010060714E
:100500000DE010F1010F18BF012809D0BD42D5D16F
:100510000020F2BD01280CBF4FF0FF350125284611
:10052000F2BD426A00688078490A121DB1FBF0F002
:1005300001E0401A121D52F8041B09B9002070474F
:100540008842F6D211680818704770B504460D4607
:10055000E580A168012926D020684269914222D213
:1005600019B90178032901D1416A31B90021E1604B
:1005700001898D4217D2406A1AE08078060100E0B6
:10058000AD1B2068ADB2B5420FD3FFF784FE014624
:1005900011F1010F01D1012070BD022903D32068A0
:1005A00040698142ECD3022070BDE160FFF767FE35
:1005B00000EB1510206105F00F00216801EB4010E1
:1005C00030306061002070BDF8B504460F46E08809
:1005D000451CADB2002D1CBF206900281DD015F0B0
:1005E0000F0F59D1401C2061E168206819B90089BA
:1005F000854251DB11E08278521E12EA151F4BD161
:10060000FFF749FE0646022E12D316F1010F38D02D
:10061000206841698E4239D30FB90420F2BDE168E8
:10062000FFF736FF060001D10720F2BD012E01D1F0
:100630000220F2BD16F1010F23D02068FFF783FDE1
:10064000F8B920684FF4007200213030FFF774FDD4
:1006500020683146FFF713FE2168C862002704E0D6
:100660002068C16A491CC1627F1C20688178FFB282
:100670008F4208D2012101712068FFF764FD002834
:10068000EED00120F2BDC16AC91BC162E6603146ED
:100690002068FFF7F4FD2061E58005F00F00216878
:1006A00001EB4010303060610020F2BDCA7E8B7ECD
:1006B000007843EA0222032805D1487D097D41EAFA
:1006C000002042EA00421046704781760A04120E6A
:1006D000C276090C0175090A4175704738B50446A0
:1006E0000D4604202169C9B100F04FF8B0B9616925
:1006F0000A780AB9042012E0C97A01F03F01E52A1C
:100700001CBF2E2A0F2905D008290CBF012100216A
:10071000A94206D000F090F90028E3D008B10021EA
:10072000216132BD70B504460021FFF70EFF0500C0
:1007300013D1002600F028F805000ED1606900787A
:10074000E5281CBF0028002602D1761C012E07D008
:10075000012100F072F90500ECD0042D08BF072537
:1007600085B900F011F805000CD160692022002144
:10077000FFF7E2FCA16960690B22FFF7D3FC216857
:1007800001200871284670BD21692068FDE42DE92B
:10079000F8430C46256800E06D1C29782F2918BF06
:1007A0005C29F9D086690B2220213046FFF7C4FC72
:1007B00000200022804608210FF2C40C0FF2D00E58
:1007C00004E0082941D108200B213A4618F80530E9
:1007D000970008F10108FFB2212B03DB2F2B18BF74
:1007E0005C2B06D145442560212BB4BF0423002394
:1007F0002AE02E2BE5D0884227D2802B04DB7344DD
:1008000042F0030213F8803CE14601E009F10109DE
:1008100099F80070002F18BF9F42F7D1002F14D114
:10082000A3F141071A2F03D242F00202D2B208E02C
:10083000A3F161071A2F04D242F00102203BD2B289
:10084000DBB28355401CC1E708B9062015E03078BB
:10085000E52804BF05203070082908BF3A4602F099
:100860000300012808BF43F0100302F00C00042825
:1008700008BF43F00803F3720020BDE8F2830000D4
:10088000222A2B2C3A3B3C3D3E3F5B5D7C7F0000A7
:10089000808182838485868788898A8B8C8D8E8FE0
:1008A00090919293949596979899AD9B8C9DAE9FBD
:1008B000A021A2A3A4A5A6A7A8A9AAABACADAEAF40
:1008C000B0B1B2B3B4B5B6B7B8B9BABBBCBDBEBFB0
:1008D000C0C1C2C3C4C5C6C7C8C9CACBCCCDCECFA0
:1008E000D0D1D2D3D4D5D6D7D8D9DADBDCDDDEDF90
:1008F000C0C1C2C3C4C5C6C7C8C9CACBCCCDCECF80
:10090000D0D1D2D3D4D5D6F7D8D9DADBDCDDDE9F8F
:1009100030B5036901F2090243B3406900231C5C4E
:100920005B1C202C09D0052C08BFE524092B04BF33
:100930002E2502F8015B02F8014B0B2BEFD3C37A93
:100940000B72847FC37F240444EA0363447F43EA39
:100950000423047F23430B60047E437E44EA032385
:100960008B80C37D807D40EA0320C880002010700A
:1009700030BD10B54FF0FF32036811466BB11978E6
:100980003039092908D25C783A2C05D19B1C0360C8
:10099000012902DB114600E00021084610BD73B5B5
:1009A000044608782F2812BF5C28481C01900020BC
:1009B000A06001980078202808D200F0ECFB00210C
:1009C000616176BD2068FFF771FEA06001A9204635
:1009D000FFF7DDFE00282ED100F0DDFBD8B9FFF7D0
:1009E000D3FEC0B961690A780AB9042013E0CA7A53
:1009F00012070CD4A3690B2200251646721E2EB1D5
:100A000011F8015B13F8016BAD1BF6D01DB100F0BE
:100A100013F80028E3D0A169C97A01F0040120B1DC
:100A2000042808BF002906D104E021B96169C87A09
:100A3000C006C7D4052076BD00212046C4E510B508
:100A40000446002020714FF0FF30E062FFF7EEFC1B
:100A500008B1032010BD94F82F0294F82E1241EA39
:100A600000204AF65521884201D0022010BD04F230
:100A70006601DFF888034B788A781B0243EA02425A
:100A800094F866301A43824208D08A7F4B7F097FF0
:100A90001B0243EA02421143814201D1002010BDF2
:100AA000012010BD2DE9F043054685B000202860E7
:100AB00014460846FFF75DFF070048BF0B2006D429
:100AC000DFF83C8308EB870046680EB90C2057E13D
:100AD0002E60307848B1707800F0E8FBC10704D48C
:100AE000002C01D040070DD449E100203070777010
:100AF000707800F0CDFBC10748BF032003D41CB1C0
:100B0000400701D50A203BE1002700213046FFF7CE
:100B100096FF0446012C29D1002000AD06EB001100
:100B200001F2EE110A7952B18B7ACA7A1B0443EAB8
:100B300002624B7A097A42EA0322114300E0002163
:100B400045F82010401C0428E8D3B94655F8297010
:100B500027B139463046FFF772FF00E0022004005B
:100B600004D009F10109B9F1040FEFD3032C08BF38
:100B70000120C8D0002C01BF96F83C0096F83B102D
:100B800041EA0020B0F5007F1BD196F8470096F8A7
:100B9000461051EA00200DD196F8561096F85700ED
:100BA000090441EA006096F8551040EA012096F8E1
:100BB00054100843B06196F84010F170012918BF35
:100BC000022972D1484396F83D10B17000296CD0CB
:100BD0004A1E114269D196F8422096F8413043EA04
:100BE00002220F2332811A425FD196F8443096F8E0
:100BF000434054EA03240DD196F8524096F85330FE
:100C0000240444EA036396F8514043EA042396F827
:100C100050401C4396F83F3096F83E5055EA032367
:100C200043D0C51805EB1215AC423ED3641BB4FB90
:100C3000F1F1002939D0012440F6F67E714528BF34
:100C400002244FF6F67E714528BF0324891C71618A
:100C5000F761D9193162E919B162032C11D122BBB4
:100C600096F85E1096F85F00090441EA006096F875
:100C70005D1040EA012096F85C1008437169890014
:100C80000CE092B1316A40187169022C0FBF490023
:100C900001EB410201F0010101EB5201706201F22E
:100CA000FF11B069B0EB512F01D20D2068E04FF079
:100CB000FF303061F06080207071032C01BF96F826
:100CC000610096F8601041EA0020012850D1791C9B
:100CD0003046FFF75AFA00284AD1707196F82E1262
:100CE00096F82F0241EA00204AF6552188423FD16A
:100CF00096F8321096F83300090441EA006096F83D
:100D0000311040EA012096F8301008433D498842EE
:100D10002ED196F8161296F81702090441EA0060DF
:100D200096F8151240EA012096F814120843364945
:100D300088421DD196F81A1296F81B02090441EA5E
:100D4000006096F8191240EA012096F8181208433C
:100D5000306196F81E1296F81F02090441EA0060FD
:100D600096F81D1240EA012096F81C120843F06024
:100D70003470B8F80000401CA8F80000F080002093
:100D800005B0BDE8F08380B500281CBF01680029CC
:100D900005D00A781AB1CA888088824201D0092019
:100DA00002BD487800F082FAC00701D5032002BDD9
:100DB000002002BD13B5144601A8FFF7DAFD002894
:100DC00001D50B2016BD0E4901EB8000416809B129
:100DD00000220A70009909B9416008E00021009AD8
:100DE000117000994160009808B1012C01D00020D9
:100DF00016BD002201A900F0FEF916BD46415400BF
:100E00003809002052526141727241612DE9F2436A
:100E10008AB0040008BF092077D00020206002F0CB
:100E20001F0505F0FE0200F0E5F907006CD100F0A7
:100E3000DBF9059E070004BF002E06271C20054293
:100E40006ED0002F64D0042F03D100A8FFF76AFCF6
:100E50000746059E45F0080597BB280735D500F0E5
:100E600058FA01460004B173000EF073080C307498
:100E7000080E707431460020F07230777077B077CA
:100E8000F0770098FFF712FC814600213046FFF70B
:100E90001CFC009901200871B9F1000F11D00098D5
:100EA000D0F82C804946FFF7C3FA070008D1009913
:100EB000A9F10100C86041460098FFF766F90746AE
:100EC00017BB280748BF45F020050098C06AE061BD
:100ED0002662A5710020E07131460098FFF7E6FB1D
:100EE0002061B17FF07F090441EA0060717F40EA30
:100EF0000120317F0843E0600020A060A0616062B3
:100F000000982060C088A08038460BB0BDE8F08310
:100F10001121F07A08420ED168079ED50827F3E721
:100F2000002FCDD1F07AC10648BF0427ECD4A90721
:100F3000C7D5C007C5D50727E6E72DE9F047054621
:100F40001E4600203060914688462846FFF71BFF6A
:100F5000002804BFE879002840F08B80A879C007FA
:100F600058BF072040F18580E868A968401A4845C5
:100F700018D8814616E0AF6100F07DF84C468945EF
:100F800088BF0C46401900F1280122464046FFF771
:100F9000C9F8A8682018A860A044306820183060FC
:100FA000A9EB0409B9F1000F62D0A968C805E3D123
:100FB000286883785B1E03EA5122D4B28CB909B940
:100FC000286908E06A6A1AB12846FFF7AAFA02E01F
:100FD0006969FFF760F9022808D310F1010F44D0C6
:100FE000686169692868FFF74AF908B902203DE09D
:100FF00027185FEA592A20D0286881780AEB040272
:10100000914238BFA1EB040A407853463A46414624
:1010100000F05BF948BBA87940060BD5A869C01B56
:10102000504507D24FF4007205F1280108EB40202B
:10103000FFF778F84FEA4A24ABE7AA69BA429AD098
:10104000A879400607D5286800F01DF868B9A87986
:1010500000F0BF00A8710123286840783A4605F1E6
:10106000280100F032F9002885D00120E87100E065
:101070000020BDE8F087A868C005C00DC0F500716C
:1010800070472868AA694078012305F1280100F01B
:101090002EB938B50446FFF776FE00283FD1A17976
:1010A0008A063CD5480608D52068A26900F042F8B7
:1010B00008B1012032BD00F038F8E169FFF765FBA7
:1010C00068BB256AE87A40F02000E872E06828777B
:1010D000E0680004000E6877E068000CA877E0681C
:1010E000000EE87728462169FFF7EFFA00F011F9C2
:1010F000A8750104090EE975010C2976000E6876C1
:101100000020A874E874A07900F0DF00A07101202D
:10111000216808712068BDE83240FFF74DB832BD44
:1011200010B50446FFF7B5FF39E0A07900F0BF0025
:10113000A07170474078012304F1280100F0D7B86E
:1011400012B585B0040008BF092022D0002205A9ED
:1011500000F051F8D0B90098206001A8A0612046A5
:101160000599FFF71CFC68B9616931B1C87AC006FE
:101170000AD50098FFF79AFAA0600098C088A0806E
:1011800000F009F8042801D1052000E008B1002191
:10119000216006B010BD00212046FFF7D6B908B97E
:1011A0000021216010BD3EB504460D46FFF7EBFD62
:1011B000C8B915B9FFF7EFFF3EBD00A8A061002137
:1011C0002046FFF78BFA042802D10020206100E0BE
:1011D00048B929462046FFF79BFBFFF72DFC042862
:1011E00004BF002020613EBD07A8069000A80A9910
:1011F000FFF7D5BB0AA900A8FFF754BC62F30F2282
:1012000062F31F42401810F0030308D0C91A1FD31D
:10121000DB0748BF00F8012D28BF20F8022D13007E
:1012200030B414461546103928BF20E93C00FAD8DE
:10123000490728BF20E90C0048BF40F8042D890069
:1012400028BF20F8022D48BF00F8012D30BC7047A0
:10125000C91818BF00F8012DCB0728BF00F8012DD1
:10126000704710B450F8041B81B102681218001DB9
:1012700050F8043BDC0744BFA9F10104E31852F81D
:10128000044B43F8044B091FF9D1EBE710BC70473E
:1012900010B5334C0121217030B900F063F818B952
:1012A000207800F0FE002070207810BD10B52C4C86
:1012B00048B90120207000F049FAFF2803D12078B6
:1012C00000F0FE002070207810BD38B50C461546A1
:1012D00058B900F03BFAFF2801D0032032BD4FF48B
:1012E00000726902204600F048F8002032BD38B58F
:1012F0000C46154658B900F029FAFF2801D0032002
:1013000032BD4FF400726902204600F053F800200D
:1013100032BD0020704710B594B01446E8B91048AB
:101320000078C00748BF032018D459B102290BD058
:1013300002D303290CD010E000A800F06EF8119839
:10134000400A2060002009E04FF400702080F9E797
:1013500000A800F062F812982060042014B010BDBC
:101360003400002010B500F010FB0A2400F034F91E
:10137000641EFBD1BDE81040FCE12DE9F04100F016
:1013800042F8112000F0A2F9304600F0CFF980B900
:1013900000F01EF968B904E000F014FB04F8010B3A
:1013A000761C46453846F7D300F00CFB00F014F9E4
:1013B000002721E02DE9F04100F025F8182000F089
:1013C00085F9304600F0B2F9B0B900F005F9FE2019
:1013D00000F0F8FA04E014F8010B00F0F3FA761CC0
:1013E0004645F8D300F0F8F8384600F0EBFA00F084
:1013F00088F9052808BF00272020288000F0ECF895
:101400003846BDE8F0810446DFF8AC532020688000
:1014100090460026FF27FF22704710B5044600F0D3
:1014200015F804F12C0000F0DAF82169491C616418
:101430000122237E9B1C02FA03F35943616494F951
:1014400008309A40A2645143616410BD2DE9FF4108
:1014500000F034F9FF26FF223946092000F036F962
:1014600000AD384600F062F970B900F0B1F828B963
:1014700000F0B2F878557F1C102FF9D300F0ACF8CB
:10148000304600F09FFA00262020A8F8000000F067
:10149000A3F89DF80000800920709DF80000C0F3BB
:1014A000830060709DF8000000F00300A070687871
:1014B000E070A8782071E878607128790001E080F8
:1014C0006879E18841EA1011E18000F00F00207294
:1014D000A879C1096172C0F38011A172C0F34011F3
:1014E000E172C0F30011217300F003000021617369
:1014F000800220612069E97940EA81002061287A30
:10150000216941EA90112161C0F3C201217500F007
:1015100007006075687A4109A175C0F3820100F087
:101520000300E17540002076A87A217E41EAD011BF
:101530002176C0F3801100F03F0061764000A07674
:10154000E87AA17E41EAD011A17600F07F00E07632
:10155000287BC1092177C0F341116177C0F3820173
:1015600000F00300A1778000E077687BE17F41EA2B
:101570009011E177C0F3401184F8201000F00100D1
:10158000002184F8211084F82200A87BC10984F886
:101590002310C0F3801184F82410C0F3401184F8A4
:1015A0002510C0F3001184F82610C0F3810184F8DF
:1015B000271000F0030084F82800E87B400884F836
:1015C0002900012084F82A0004B03046BDE8F081EB
:1015D000FE20ABE020202080FF2000F0F3B92DE9B1
:1015E000FF4100F06BF8FF25FF2239460A2000F08A
:1015F0006DF800AE384600F099F870B9FFF7E8FFD3
:1016000028B9FFF7E9FFB8557F1C102FF9D3FFF772
:10161000E3FF284600F0D6F900252020A8F80000B6
:10162000FFF7DAFF9DF800002070707800026080FC
:101630006088B178084360809DF803000006606010
:101640006068317940EA0140606060689DF805108B
:1016500040EA0120606060689DF806100843606001
:101660009DF807002072307A6072707A0006E060A0
:10167000E068B17A40EA0140E060E0689DF80B1054
:1016800040EA0120E060E068317B0843E060707B65
:10169000217C41EA101100F00F00217400026082E9
:1016A000608A9DF80E1008436082F07B4008207528
:1016B0000120607504B02846BDE8F0810446DFF8DB
:1016C000F8802020A8F802000027704730B583B0CA
:1016D00040F040008DF8000000AD080E6870002456
:1016E000080C8DF802008DF80410080A8DF803002C
:1016F0008DF80520605D00F065F9641C062CF9D3B7
:1017000037BD38B54124FFF767FF00F01F052846B5
:10171000052D05D00B2D18BF0D2D06D0641EF2D15E
:10172000FFF75AFF0028FBD0284632BD38B50446E3
:1017300040F6FF7501E02DB16D1EFFF74DFFA04291
:10174000F9D10DB9FF2032BD002032BD70B51A4C61
:1017500020206080FF2200210D20FFF7B7FFFFF758
:101760003BFF0546FFF738FF0646FFF733FF45EA24
:10177000062070BD10B5104C2020608095220021FD
:101780000020FFF7A3FF0120FFF7D0FF08B1FF20E3
:1017900010BDFFF71FFF20206080FF2200210120E5
:1017A000FFF794FF0020FFF7C1FF0028F1D1FFF7FA
:1017B00011FF002010BD0000180402401CB50446B3
:1017C0000FF24C3000F068F80FF2403030F814009F
:1017D000009000A901208DF8040000F0BDF803205E
:1017E0008DF80500C34850F8240000F0AFF913BD90
:1017F000C0490FF2183351F820108A8A33F81000CC
:1018000050408882704730B504460FF20C3085B0E6
:101810000D4600F041F80121012000F034FA0020CB
:101820008DF810008DF8130003A90FF2E82030F8AE
:1018300014000390B04850F8240000F087F9012DFF
:1018400028D10FF2E020215C0FF2D420205C00F0C0
:1018500041FA0FF2C82030F81400019000208DF8F2
:10186000080008208DF8090001208DF80A0001A861
:1018700000F044FA0FF2B020205C8DF800000F2039
:101880008DF801008DF8020001208DF8030000A8FA
:1018900000F076FA05B030BD50F82400012100F0C8
:1018A000E9B910B588B00121012000F0E3F9012168
:1018B0004FF4805000F0E7F92020009002208DF8CE
:1018C00004008DF8050000F047F800A98B4C204675
:1018D00000F03CF9402000F03AF8802000F037F8A2
:1018E00005221146204600F067F905220621204610
:1018F00000F062F905220721204600F05DF9002082
:10190000ADF808004FF48270ADF80A000020ADF881
:101910000C000220ADF80E000120ADF810004FF4CD
:101920000070ADF812000820ADF814000020ADF8EA
:1019300016000720ADF8180002A9714C204600F0EF
:1019400053FA0121204600F06BFA08B010BD009058
:1019500000A9204600F0FAB800208DF8060001200A
:101960008DF8070070471CB50121032000F082F9B3
:10197000402000F015F84FF40070009000A95F4877
:1019800000F0E4F84020208313BD1CB501210220A3
:1019900000F070F9202000F003F82020208313BD10
:1019A000009001208DF8040000208DF80600012031
:1019B0008DF8070003208DF8050000A9514C204642
:1019C00000F0C4B838B504464D4D00F01AF80128AF
:1019D000FBD12146284600F02FFA012100F012F831
:1019E0000128FAD1284600F025FA044600F009F84B
:1019F0000128FBD1802100F005F80028FAD1E0B2DF
:101A000032BD0221284600F019BA10B588B0012075
:101A100000F0E4F80121022000F02CF901200090F0
:101A200000A903208DF8040000208DF80700354838
:101A300000F08CF8212000F02FF90028FAD00121C5
:101A40004FF4007000F01FF902A800F023FA002004
:101A5000029001208DF80D000020049006900120D6
:101A60008DF81C0002A9284C204600F0F3F902234F
:101A700001220821204600F027FA0121204600F02B
:101A800016FA4021204600F09CFA0028F9D02046A2
:101A900000F08FFA08B010BD38B51B4D0024284661
:101AA00000F08CFAA0F2DB714F2938BF05241AD35D
:101AB000A0F2A921632938BF042414D3A0F2F7416E
:101AC0004F2938BF01240ED3A0F133014F2938BF6D
:101AD000022408D3A0F661614F2907D2032402E053
:101AE000284600F06BFAB0F57A6FF9DB204632BD7C
:101AF000000000002C000020300000200000024008
:101B00000030014000040240002401402000000099
:101B10000100000000200000040000000020000080
:101B2000020000000D000000280050F8041B61B105
:101B300050F8042BD30744BFA9F101039A180023DE
:101B400042F8043B091FFAD1EFE77047F0B50022D5
:101B500001230C6893401C409C4222D1066854002B
:101B60000325A5400F79ED432E40A7403E43066074
:101B70000E79012E18BF022E0CD186684F792E40A7
:101B8000A7403E438660868826EA03038E79964006
:101B900033438380C3682B40CD7905FA04F4234393
:101BA000C360521C102AD3D3F0BD008A0022084221
:101BB00018BF01221046704710B5CB0800EB830018
:101BC00001F007018900036A0F248C40A3430362DC
:101BD00002FA01F1036A1943016210BD3749086036
:101BE0007047F0B53449364B4E68364C364A0125BD
:101BF00016F00C0619D0042E04D0082E1DD00C2E81
:101C000002D012E0234618E04D684E68C5F38345C4
:101C1000C6F38156AD5C4F68761CFF0354BF04FBCE
:101C200005F36B43B3FBF6F307E00B685B0B03F0C4
:101C300007035B1C05FA03F3DB0303604B680468CE
:101C4000C3F303139B181B7B24FA03F343604B6815
:101C50004468C3F302239B181B7B24FA03F38360BD
:101C600049684368C1F3C2218918097B23FA01F14D
:101C7000C160F0BD154A0029116814BF084321EA6C
:101C8000000010607047124A0029116814BF084311
:101C900021EA00001060704742090649012A0CBF82
:101CA0000968496B00F01F0021FA00F000F0010004
:101CB00070470000003802400438024000004742EC
:101CC00000127A000024F400000000201C380240BA
:101CD0002038024030B501F0030221F00301064B29
:101CE0009200CC580F259540AC43CC509040CC5836
:101CF0002043C85030BD00000800014030B50168E5
:101D00008279CB431C492AB30A46146823401360E6
:101D100053680468A34353600379CC1823680568AB
:101D20002B43236093680468A3439360D3680468DB
:101D3000A343D36043790568102B07D191682943E9
:101D40009160D16800680843D06030BDCC1820682D
:101D5000284303E000790C1820681840206030BD4B
:101D6000064A12680021024218BF01210846704746
:101D700000BF02490860704700040140140401409C
:101D800070B50378C4781A460121E4B1124B1B6880
:101D9000447803F4E063C3F5E0631B0AC3F1040570
:101DA000AC4085780F2626FA03F32B4023430B4CD7
:101DB0001B011355007800F01F029140084A4009AA
:101DC00042F8201070BD03F01F0001FA00F0510925
:101DD000044A42F8210070BD0CED00E000E400E090
:101DE00000E100E080E100E002880B8802F441524B
:101DF0001A434B881A438B881A43CB881A430B89A2
:101E00001A434B891A438B891A43CB891A430280A0
:101E10004FF2FF73828B1A408283098A01827047D6
:101E20000029018812BF41F040014FF6BF721140F6
:101E30000180704780897047818170470089002246
:101E4000084218BF0122104670470268531C036005
:101E50001170704742681A4B1A400B7942EA03220C
:101E60000B681A434260174B82681A400B691A4389
:101E7000CB681A438B681A434B7942EA430282606B
:101E8000026B097D491E22F0F872C9B242EA015183
:101E900001637047002101600171417181604FF061
:101EA0004071C16000210161012101757047002965
:101EB000816812BF41F00101490849008160704703
:101EC000FFFEFFFCFDF7FFC070B507241E290BDBEA
:101ED000A1F11E0505EB4505C66DAC4026EA0404DC
:101EE000AB402343C36524E014290BDBA1F11405A7
:101EF00005EB4505C668AC4026EA0404AB40234325
:101F0000C36016E00A290BDBA1F10A0505EB4505C4
:101F10000669AC4026EA0404AB402343036108E0B1
:101F200001EB41054669AC4026EA0404AB4023437B
:101F300043611F23072A0ADA521E02EB8202046C55
:101F4000934024EA030391401943016470BD0D2AB4
:101F50000ADAD21F02EB8202C46B934024EA030325
:101F600091401943C16370BD132A0ADA0D3A02EB9E
:101F70008202846B934024EA0303914019438163F6
:101F800070BD192A0ADA133A02EB8202446B9340BD
:101F900024EA030391401943416370BD193A02EBEF
:101FA0008202046B934024EA0303914019430163C6
:101FB00070BD816841F0804181607047806D80B262
:101FC000704700680022084218BF0122104670477F
:101FD00000F5E0700268914203D343689A18914279
:101FE00002D380680028F5D17047DFF82407016824
:101FF00091B9DFF820274FF4803181604FF4805190
:1020000041604FF0FF31C160016104214161C2F8BC
:10201000BC11DFF8041701600120704701F10803CB
:1020200013F0070305D001F10803C3F1080303F01F
:1020300007035918D21A8161C26042F001034B6054
:10204000511828234B60DFF8C8160969C161704731
:102050002DE9F84F044601F1080010F0070005D003
:1020600001F10800C0F1080000F0070000EB010BCF
:1020700002F1080010F0070005D002F10800C0F1DD
:10208000080000F007008618A6EB0B00A0EB030881
:1020900003EB0B0743F00300CBF80400B74228BF63
:1020A00000F06CFF3079C00758BF00F067FFB8F14F
:1020B000100F38BF00F062FFA069864207D1E068C8
:1020C0004044E060A76140F0010078605AE1606937
:1020D000864208D1A0684044A060676140F00101D9
:1020E0007960C0514EE1706800F00301012940F0B1
:1020F000AD80C0084FEAC00920283BD2D6F808A01E
:10210000F5680090AE4208BF00F038FF564508BFA2
:1021100000F034FF70680099C008C000B0EBC10F38
:1021200018BF00F02BFF009804EBC00000F128015D
:102130008A4508D021698A45C0F08480DAF80C10FD
:10214000B14240F07F80554506D1009A20680121B8
:1021500091408843206077E02830854205D020698F
:1021600085426FD3A868B0426CD1CAF80C50C5F84C
:1021700008A069E0F568D6F818A0B5420CD0B068A0
:102180002169884223D3C168B14204BFA968B14222
:102190001DD1C560A8601CE006F11400056835B9C2
:1021A00006F110000568A5B101E00846056805F1D3
:1021B00014010A68002A02BF05F110010A68002A0A
:1021C000F3D12169884202D30021016001E000F0CF
:1021D000D5FEBAF1000F37D0F06904EB800000F5AE
:1021E000987001688E4209D10560280014D1F26907
:1021F0006068012191408843606025E02069824544
:1022000008D3DAF81000B04214BFCAF81450CAF864
:10221000105001E000F0B2FEB5B12069854211D343
:10222000C5F818A0316929B1814226BF29618D61A5
:1022300000F0A4FE706938B12169884202D3686158
:10224000856101E000F09AFE4E44C8447068400881
:10225000400070604FEAD80548F00100786048F807
:102260000780202D21D204EBC50000F12806B146DD
:10227000B8F1100F38BF00F081FE206820FA05F198
:10228000C90704D40121A9400843206006E0B068D2
:10229000216988422CBF814600F070FEB760C9F802
:1022A0000C70C7F80890FE606CE05FEA182008BF69
:1022B000002123D0B0F5803F28BF1F211ED2A0F5FA
:1022C0008071090C01F008018840A0F58052120CC1
:1022D00002F004029040A0F580431B0CC1F10E01F6
:1022E00003F00203891AC91A984001EBD030C11DCE
:1022F00028FA01F101F0010101EB4001F96100222E
:102300007A613A6104EB8100626822FA01F300F518
:102310009870DB0706D4012303FA01F111436160D1
:1023200007601CE01F2900680EBF00214908C1F1A9
:10233000190108FA01F100E010464268D208D20003
:10234000424510D0CA0F00EB820202F1100349008F
:102350001A68002AF0D121698B4211D31F60B8613D
:10236000FF60BF600EE022698168904228BF914201
:1023700006D3CF608760B960F8600020B86101E0E3
:1023800000F0FCFD0BF10800BDE8F28F2DE9F04FE5
:102390000546DFF87C03006883B0884608B9FFF77C
:1023A00024FEDFF86C03806800EB08012F31401E2B
:1023B00021EA0000804580F0A881D5F8B81141B12C
:1023C000D5F8B0218018824280F09F818142C0F010
:1023D0009C8100F0D7FD00281EBF0446076814F159
:1023E000010F00F09281D5F8B0013818C5F8B0019E
:1023F000D5F8B411814238BF0146C5F8B411A869B7
:1024000088BB286908B1844200D22C61C5F8C0415C
:10241000C5F8C4710020C5F8CC0105F12801BC48FD
:10242000006868624FF0FF3028620020C960896050
:1024300001F10802801CD260103192602028F5D38F
:10244000B448854203D1A7F12802214625E055F87A
:10245000040CC00805EBC000A0F108013819401AAF
:10246000A0F1280219E005F5E071084600E0806857
:10247000B8B142680368D2189442F8D1027B1207BF
:102480000FD4AA699A420CD3466833449A4208D2C0
:10249000B9194160E868A9693A182846FFF7BEFDF6
:1024A0001EE12869844238BF2C610846391900E0D2
:1024B000806880B102688A42FAD1017B09070AD498
:1024C000046043464168791841602846214603B0BC
:1024D000BDE8F04FBCE5AE6931462846FFF778FD10
:1024E00041680068081801902F3800F1080111F0C8
:1024F000070105D000F10801C1F1080101F0070151
:10250000081806F11001884234BF00960090009828
:1025100000F1080900F1180A04F108014FF0000B5E
:10252000A7F1280011F0070105D004F10801C1F15D
:10253000080101F007010A19401AAA61E86040F099
:102540000101516080182821416071480069E861EB
:1025500019F0070018BF00F011FD00991B2048601A
:1025600005F5E070B0E80E10A9E80E10C5F8C041FE
:10257000C5F8C471A9F11001C5F8CCB1C5F8C811EE
:10258000019800E08A460722CAF804200AF10401F3
:102590000A1D0BF1010B8242F4D3BBF1020FB8BF4D
:1025A00000F0ECFC0098B04200F09A80801B81198A
:1025B0004FEAD0094A68520852004A6040F00101CF
:1025C00071608051B9F1200F1FD205EBC90101F1F3
:1025D00028042746102838BF00F0D0FC286820FACD
:1025E00009F1C90705D4012101FA09F1084328605E
:1025F00006E0A068296988422CBF074600F0BEFCAF
:10260000A660FE60B760F4606AE0010A08BF0022BD
:1026100023D0B1F5803F28BF1F221ED2A1F58072C2
:10262000120C02F008029140A1F580531B0C03F03C
:1026300004039940A1F58044240CC2F10E0204F079
:102640000204D21A121BA14002EBD131CA1D20FA9A
:1026500002F202F0010202EB4102F2610023736117
:10266000336105EB82016B6823FA02F401F598717E
:10267000E40705D401209040184368600E601CE018
:102680001F2A09680EBF00225208C2F1190200FA7F
:1026900002F200E019464B68DB08DB00834210D0F1
:1026A000D30F01EB830303F1100452002368002BC6
:1026B000F0D12869844211D32660B161F660B6601A
:1026C0000EE02A698868914228BF904206D3C6600E
:1026D0008E60B060F1600020B06101E000F04EFC5F
:1026E000E868804511D2A0EB0800E86040F00100E6
:1026F000A96908EB0102AA61506048F00300486034
:1027000003B001F10800BDE8F08F002000F030BCFC
:1027100020090020140700206859883C2DE9F84F53
:10272000044688460026C8F1000B5FEA182008BF5F
:10273000002123D0B0F5803F28BF1F211ED2A0F575
:102740008071090C01F008018840A0F58052120C3C
:1027500002F004029040A0F580431B0CC1F10E0171
:1027600003F00203891AC91A984001EBD030C11D49
:1027700028FA01F101F0010101EB400104EB8100B5
:10278000D0F8300130B31F290EBF00224A08C2F131
:10279000190208FA02F2002300E052004568ED0831
:1027A000ED00A5EB08055D4503D206465FEA050B83
:1027B0000CD045694FEAD27E00EB8E00002D0069F7
:1027C0001CBF85422B460028E7D1184600283AD185
:1027D000002E3AD101208840400041420843616800
:1027E000084000F05F8141420840411E080B00F0A4
:1027F000100021FA00F2510901F00801CA409308C3
:1028000003F00403DA40550805F002050818EA4011
:102810001818C2F3400E2844704422FA0EF108182A
:1028200004EB8000D0F830010DE008464168C9088B
:10283000C900A1EB080159453CBF8B46064601691A
:102840000029F2D140690028F0D1002E00F02A8141
:10285000A068A0EB0800834580F0248120698642AF
:10286000C0F01E817068C00808EB0B09C00008EBBF
:102870000605484518BF00F081FBAE4280F010818C
:10288000F768D6F818A0B7420CD0B0682169884222
:1028900023D3C168B14204BFB968B1421DD1C7603A
:1028A000B8601CE006F11400076837B906F11000A3
:1028B0000768A7B101E00846076807F114010A6834
:1028C000002A02BF07F110010A68002AF3D121692A
:1028D000884202D30021016001E000F04FFBBAF111
:1028E000000F38D0F06904EB800000F598700168A3
:1028F0008E4209D10760380014D1F2696068012165
:1029000091408843606026E02069824508D3DAF868
:102910001000B04214BFCAF81470CAF8107001E079
:1029200000F02CFBBFB12069874212D3C7F818A072
:10293000306930B12169884226BF3861876100F073
:102940001DFB706938B12169884202D378618761C3
:1029500001E000F013FBBBF1100F09D249F00300B6
:10296000706009EB0600416841F00101416096E0AA
:1029700048F0030070604BF0010068604BF805B050
:102980004FEADB0020281DD204EBC00101F128072B
:10299000216821FA00F2BB46D20705D4012202FACF
:1029A00000F00843206006E0B868216988422CBF27
:1029B000834600F0E3FABD60CBF80C50C5F808B0D0
:1029C000EF606CE05FEA1B2008BF002123D0B0F568
:1029D000803F28BF1F211ED2A0F58071090C01F095
:1029E00008018840A0F58052120C02F004029040C9
:1029F000A0F580431B0CC1F10E0103F00203891AFC
:102A0000C91A984001EBD030C11D2BFA01F101F039
:102A1000010101EB4001E96100226A612A6104EBD6
:102A20008100626822FA01F300F59870DB0706D492
:102A3000012303FA01F11143616005601CE01F29C5
:102A400000680EBF00214908C1F119010BFA01F11C
:102A500000E010464268D208D2005A4510D0CA0F92
:102A600000EB820202F1100349001A68002AF0D13B
:102A700021698B4211D31D60A861ED60AD600EE04D
:102A800022698168904228BF914206D3CD6085605B
:102A9000A960E8600020A86101E000F06FFA07E19A
:102AA00000F06CFA01E12DE9F84F044688466068B1
:102AB00041420840411E080B00F01000C1404A0985
:102AC00002F00802D1408B0803F00403D9404D08FE
:102AD00005F002051018E9401818C1F34006284413
:102AE0003018F140081804EB8000D0F8300141683C
:102AF000C908C9000646A1EB080A09E00846416872
:102B0000C908C900A1EB080151453CBF8A460646E9
:102B100001690029F2D140690028F0D1206986427C
:102B2000C0F0C1807068C00808EB0A09C00008EB5B
:102B3000060B484518BF00F021FA5E4580F0B380CF
:102B4000F768B569B7420CD0B0682169884223D3D1
:102B5000C168B14204BFB968B1421DD1C760B86055
:102B60001CE006F11400076837B906F11000076889
:102B7000A7B101E00846076807F114010A68002AB6
:102B800002BF07F110010A68002AF3D121698842C7
:102B900002D30021016001E000F0F0F9002D34D0F3
:102BA000F06904EB800000F5987001688E4209D14D
:102BB0000760380011D1F2696068012191408843B3
:102BC000606022E02069854205D32869B04214BFC5
:102BD0006F612F6101E000F0D1F9B7B12069874240
:102BE00011D3BD61306930B12169884226BF386197
:102BF000876100F0C3F9706938B12169884202D356
:102C00007861876101E000F0B9F9BAF1100F09D2DB
:102C100049F00300706009EB0600416841F00101D2
:102C200041603FE048F0030070604AF00100CBF8DB
:102C300004004AF80BA0D4F808804FEAD805202DEC
:102C400028BF00F09BF9B8F1000F27D0D4F81490FA
:102C5000009504EBC50000F128052F46B8F1100FD0
:102C600038BF00F08BF92068009920FA01F1C907FC
:102C700005D4009A012191400843206006E0A8682D
:102C8000216988422CBF074600F078F9C5F8089002
:102C9000C7F80C90C9F80870C9F80C50C4F808A01F
:102CA000C4F814B004E000F069F90020BDE8F28F28
:102CB00006F10800BDE8F28F2DE9F04F83B005461C
:102CC000C046C046DFF8B042F52D80F006810B2DDE
:102CD00031BF102705F10B00C008C7002068FE08AF
:102CE000F04010F0030F42D0C04300F001008619FD
:102CF00004EBC60000F12808F700D8F8085068680F
:102D0000C008C000B84218BF00F038F9D5F80890E4
:102D1000454508BF00F032F94D4508BF00F02EF9D7
:102D20006868C008C000B84218BF00F027F9C8455D
:102D300005D120680121B140884320600DE0206961
:102D4000814508D3D9F80C00A84204D1C8F80890EE
:102D5000C9F80C8001E000F011F947F00300686049
:102D600078190835416841F001014160FDE0A16832
:102D7000B94280F0C480002800F0A680012505FA41
:102D800006F149004A42B040114308404142084020
:102D9000411E080B00F01000C1404A0902F0080271
:102DA000D1408B0803F00403D9404E0806F0020618
:102DB0001018F1401818C1F340083018404421FAA7
:102DC00008F101EB000804EBC80000F128094FEA04
:102DD000C80AD9F808607068C008C000504518BF1C
:102DE00000F0CCF8D6F808B04E4508BF00F0C6F8A1
:102DF0005E4508BF00F0C2F87068C008C0005045CA
:102E000018BF00F0BBF8D94505D1206805FA08F1D4
:102E1000884320600DE02069834508D3DBF80C006F
:102E2000B04204D1C9F808B0CBF80C9001E000F032
:102E3000A5F847F00300AAEB07087060BF1948F037
:102E40000100786048F80780D4F808904FEAD90A62
:102E5000BAF1200F28BF00F091F8B9F1000F2DD082
:102E600060690090CDF804A004EBCA0000F1280AC4
:102E7000D346B9F1100F38BF00F080F820680199EF
:102E800020FA01F1C90705D4019905FA01F10843B7
:102E9000206007E0DAF80800216988422CBF8346E9
:102EA00000F06CF80098CAF808000098CBF80C0005
:102EB0000098C0F808B00098C0F80CA0C4F80880CA
:102EC000676106F1080550E06068C0B339462046E6
:102ED000FFF7E9FD050012D047E015F1400F28BFCC
:102EE0004FF0FF370BD205F10B00C008C700606838
:102EF00028B139462046FFF711FC050035D1A168FD
:102F0000B9421CD3CA1B6069102A0AD339186161FF
:102F1000A26042F001034B60525047F00301416050
:102F20000AE00022A260626141F0030242600918D7
:102F30004A6842F001024A6000F1080515E0E068C5
:102F400087420DD2C01BA169E0607A18A26140F0EF
:102F50000100506001F1080547F00300486004E0FB
:102F600039462046FFF712FA0546C046C0462846B5
:102F700003B0BDE8F08F000014070020012000F02E
:102F800017B800000749086808B1002070470648D4
:102F9000C008C00008600549C908C900091A0160D5
:102FA000704700BF440900204F0D0020480F00204B
:102FB00080B5C046C046024A11001820ABBEFBE7F0
:102FC0002600020030B587B002A8FEF70AFE03987B
:102FD0004FF47A71B0FBF1F0401EB0F1807F0AD25D
:102FE000DFF88015DFF880254860F02010700020A1
:102FF00088600720086001210220FEF73BFE0120C7
:10300000009000208DF8040002208DF8070000A930
:10301000DFF858452046FEF799FDDFF854550121A9
:103020002046FEF7C2FDE8B1FEF73BFC00F030FCA5
:103030000024FEF797F90022D3A105F17C00FDF7EB
:10304000B9FE18B1042000F0B3F908E00B20FFF737
:1030500033FE05EB8401641C4860192CF6D300F0A4
:103060001DF9FEE7FEF7AAFB01210020FEF7CBFBCE
:103070000020687005E0FEF7BBFB4FF4FA7000F02B
:1030800060FA68780028F6D06878012804D100201A
:10309000FEF7AEFB6420F2E768780228F1D1002049
:1030A000FEF7A6FB3220EAE72DE9F8434FF478401B
:1030B00000F08AFD00F08EFDC0880FF2BC41400494
:1030C00000F02FFA00F086FDC0880FF2C0418004A6
:1030D00000F027FA00F0DFF800F07CFDC0880FF266
:1030E000C04100F01DFA00F075FDC0880FF2C44128
:1030F0000A2400F011FA00F06DFDC0880FF2C841FB
:103100000C25684300F005FA002000F05DFD00F09A
:1031100061FDC0880FF2C441000500F002FA00F022
:1031200059FDC0880FF2C841122600F0F1F9FEF7F0
:10313000B3FC0228FBD1002000F046FD00F04AFD60
:10314000C0880FF2C04806277843414600F0E1F9F5
:1031500000F040FDC0880FF2C04100F0E1F900F03E
:103160009AF800F037FDC0880FF2C04100F0D4F9A2
:1031700000F030FDC0880FF2C841684300F0C9F983
:1031800000F028FDC0880FF2CC414FF00E0909FB7A
:1031900000F000F0BEF900F01DFDC0880FF2C8413C
:1031A000000500F0BEF900F015FD00F0BDF9FEF7D6
:1031B00073FC8046B8F1020F02D0B8F1050FF6D1CA
:1031C0004FF6FF7000F07BFCB8F1050F4FF478402C
:1031D00033D100F0F9FC00F0FDFCC0880FF29C41F7
:1031E000800400F09EF900F0F5FCC0880FF2A041C9
:1031F000784300F08EF900F04EF800F0EBFCC08848
:103200000FF2A04100F088F900F0E4FCC0880FF252
:10321000A841684300F07DF900F0DCFCC0880FF2A3
:10322000AC41000500F07DF900F0D4FCC0880FF23D
:10323000B04100F06DF9022429E000F0C5FC00F077
:10324000C9FCC0880FF2AC41800400F06AF900F0BC
:10325000C1FCC0880FF2B041784300F05AF900F089
:103260001AF800F0B7FCC0880FF2B04109FB00F07B
:1032700000F04FF900F0AEFCC0880FF2B441000539
:1032800000F04FF901244FF4FA6000F05AF9B84801
:103290000470BDE8F1831F2000F096BC2DE9F041D9
:1032A00088B000200090FEF751FAFF2805D00020DA
:1032B00000F07EF808B0BDE8F081FEF7A6FBFFF74E
:1032C000F3FE31A5294601A8FDF73AFF28B10D28E4
:1032D0000CBF0120032000F06BF8A54C211D2846EF
:1032E00000F07AFD054601270FF2584800E02F460E
:1032F000FEF7D2FB0646012E0AD12078401C207032
:10330000C0B2032803D101202070002603E000266C
:103310002078012811D100F03FF800F044F810B9EE
:1033200000F034F805E001280CBF0020022000F076
:103330003FF87F1CBD4238BF012720780228D7D133
:10334000042E08D17F1CBD42D1D300F025F800F037
:103350002AF860B10EE0032ECAD17F1E022F38BFBB
:1033600001270ED300F018F800F01DF810B900F096
:103370000DF806E0012801D1002000E0022000F055
:1033800017F802202070B3E72F00000004F1680254
:103390009F217F2000F098BC54F82720414604F17B
:1033A000680000F063BD00A904F1680000F002BDF0
:1033B0002DE9F04107464FF6FF7000F080FB4FF219
:1033C000DE7000F004FC4FF4784000F0FDFB0C24AC
:1033D0000B250A260FF28C380FBB00F0FBFBC088D0
:1033E0000FF26C3100F09CF800F0F4FB00F0A2F852
:1033F00000F0F0FBC0880FF2803100F089F800F097
:10340000E9FBC0880FF28431684300F082F800F0D5
:10341000E1FBC0880FF2883100F07EF8FEE7012F53
:1034200035D100F0D7FBC0880FF28831C0EBC00067
:1034300000F06FF800F0CEFBC0880FF28C3100F086
:103440006FF800F0C7FBC0880FF2903100EBC000AE
:1034500000F05FF800F0BEFB00F066F800F0BAFB89
:10346000C0880FF28C31684300F053F800F0B2FBD3
:10347000C0886043414600F04CF800F0ABFBC088C8
:103480000FF280310D22504300F043F8FEE7022F87
:1034900012D100F09FFBC0880FF27C3100F040F8A1
:1034A00000F098FB00F046F800F094FBC0880FF2A3
:1034B0007C3100F02DF8FEE7032F12D100F08AFBDB
:1034C000C0880FF27C3100F02BF800F083FB00F095
:1034D00031F800F07FFBC0880FF2783100F018F867
:1034E000FEE7042F12D100F075FBC0880FF278318F
:1034F00000F016F800F06EFB00F01CF800F06AFB1C
:10350000C0880FF2783100F003F8FEE7BDE8F081E3
:10351000704380B200F039BB604380B200F035BB2D
:10352000C004000C00F031BBC0887043414680B23B
:1035300000F02BBBC08800EBC000414680B200F019
:1035400024BB01B40B480099016001680029FCD13B
:1035500001B070470748016811B10168491E016058
:103560007047000010E000E023ED00E0000402409E
:103570003800002040090020204E55434C454F2D77
:103580004C31353252452020000000002020202000
:103590002044454D4F202020202020200000000006
:1035A000446973706C617920696D6167657320206F
:1035B0000000000073746F72656420756E6465723C
:1035C00020755344000000006F6E20544654204C78
:1035D000434420202020202000000000205072655D
:1035E0007373204A4F5920444F574E20202000002B
:1035F00020746F20636F6E74696E75652E2E2E2099
:1036000020200000202020202020202020202020FA
:103610002020202000000000205072657373204A93
:103620006F79737469636B2000000000205550208F
:10363000666F723A20202020202020200000000009
:10364000204D616E75616C204D6F646520202020D7
:103650000000000020444F574E20666F723A202031
:103660002020202000000000204175746F6D6174DF
:103670006963204D6F6465200000000020204D61CB
:103680006E75616C204D6F64652020200000000085
:1036900020202053656C6563746564202020202001
:1036A0000000000052494748543D4E657874206937
:1036B0006D616765000000004C454654203D507226
:1036C0006576696F757320200000000053454C201B
:1036D000203D53776974636820746F2000000000F8
:1036E0006175746F6D61746963206D6F646520200E
:1036F00000000000204175746F6D61746963204D96
:103700006F646520200000002020202053656C6538
:103710006374656420202020200000002053454C65
:1037200020203D53776974636820746F2000000087
:10373000206D616E75616C206D6F646520202020A6
:1037400020000000252D31312E31317300000000A2
:10375000506C6561736520696E73657274202020FA
:103760002020000020202020202020202020202099
:103770002020202020200000616E2053442063611F
:10378000726420616E642020200000002020202030
:103790002020202020202020202020202000000089
:1037A00072657365742074686520626F617264204D
:1037B0002000000053442043617264206973206E2E
:1037C0006F74202020202000202020202020202076
:1037D000202020202020202020202000204641548E
:1037E00020666F726D617474656420202020200053
:1037F00020506C6561736520466F726D6174202086
:1038000020200000202020746865206361726420FD
:10381000202020202020000046696C6520747970EB
:1038200065206E6F7420202020200000737570705A
:103830006F7274656420202020202020200000006A
:103840004F70656E206469726563746F72792020B1
:103850002020000020202020206661696C73202039
:10386000202020202000000043616E6E6F74206DC8
:103870006F756E742046617446730000206F6E2071
:10388000447269766520202020202020200000003E
:1038900080B5FEF768F800F00AF84FF6FF7000F008
:1038A0000EF9DFF80014DFF80004486001BD10B520
:1038B000DFF8F84340206080112000F0EFF94FF46A
:1038C000FA70FFF73EFEB12000F0E8F900F0F5F8DD
:1038D00000F0EFF800F0EFF8B22000F0DFF900F0B0
:1038E000ECF800F0E6F800F0E6F8B32000F0D6F9C6
:1038F00000F0E3F800F0DDF800F0DDF800F0DDF8AE
:1039000000F0D7F800F0D7F8B42000F0C7F907208E
:1039100000F0D0F9C02000F0C1F9A22000F0CAF9EF
:10392000022000F0C7F9842000F0C4F9C12000F0A3
:10393000B5F9C52000F0BEF9C22000F0AFF90A20A9
:1039400000F0B8F900F0B3F8C32000F0A7F98A201E
:1039500000F0B0F92A2000F0ADF9C42000F09EF983
:103960008A2000F0A7F9EE2000F0A4F9C52000F0AD
:1039700095F90E2000F09EF9202000F08FF93620F6
:1039800000F08CF9C82000F095F93A2000F086F993
:10399000052000F08FF92A2000F080F900F087F868
:1039A00000F085F800F083F87F2000F083F92B20E9
:1039B00000F074F900F07BF800F079F800F077F887
:1039C0009F2000F077F9E02000F068F9022000F075
:1039D00071F91C2000F06EF9072000F06BF912203D
:1039E00000F068F9372000F065F9322000F062F944
:1039F000292000F05FF900F05EF8292000F05AF964
:103A0000252000F057F92B2000F054F9392000F060
:103A100051F900F04CF800F050F8032000F04AF99A
:103A2000102000F047F9E12000F038F9032000F001
:103A300041F91D2000F03EF9072000F03BF9062077
:103A400000F038F92E2000F035F900F032F8292086
:103A500000F030F900F02FF82E2000F02BF92E2086
:103A600000F028F9372000F025F93F2000F022F976
:103A700000F01DF800F01BF8022000F01BF91020E8
:103A800000F018F9132000F009F90A20FFF759FD9A
:103A9000292000F003F90A20FFF753FD362000F03B
:103AA000FDF8C02000F006F94020208010BD002065
:103AB00000E12C20FEE02D20FCE00120FAE0DFF800
:103AC000E4110880A023802200210020D1E02DE90C
:103AD000F0470B469046002407469946DFF8C4613C
:103AE00002E07F1C4B46641C7068C088844226D26A
:103AF000002506E03288F9B2D8B200F022F8534629
:103B00006D1C706881888D42EBD24FF00C0C91FBDC
:103B1000FCFC80204FEACC0C38F8142000FA0CF0A2
:103B2000284103F1010A024201D10D2905DB0120E0
:103B3000A8400242DED10D29DCDB7288DBE7BDE85C
:103B4000F08738B514468028B8BFA0290FDA0B4695
:103B5000024600F042F8554D402068802004000ED7
:103B600000F0A8F8E0B200F0A5F84020288031BDB0
:103B700010B54C4B5B68DC881B68203AD2B26243BC
:103B8000BDE8104003EB4202A1E72DE9F0410446F5
:103B9000464F444D402088460026788098F8000023
:103BA00088B168688088811989B281420BDB18F876
:103BB000012B3146E0B2FFF7DBFF68688088861989
:103BC000B6B2802EEADB26E03649088070473549D8
:103BD000488070473348406870472DE9F0410446FB
:103BE000324F402078800D46164698462A2000F035
:103BF00055F8204600F05EF8304600F05BF82B20C8
:103C000000F04CF8284600F055F8404600F052F815
:103C10002C2000F043F840203880BDE8F0812DE9E9
:103C2000F04104460D461646DFF878807BB930191E
:103C300081281CDA0027FFB2B74218D2B8F800205A
:103C400038192946C0B2FFF77CFF7F1CF3E77019D3
:103C5000A1280CDA002707E0B8F800207919C9B2CA
:103C60002046FFF76EFF7F1CFFB2B742F4D3BDE8DA
:103C7000F0812DE9F04104460D461646984600278E
:103C800007E079190023F2B2C9B2E0B2FFF7C7FF2B
:103C90007F1CBFB24745F4D3BDE8F081044A0DE074
:103CA00000000000240000201C0000201804024036
:103CB0001A000240004A01E0180002404FF400716F
:103CC0001180FDF77FBE00002DE9F04FADF50D7DB1
:103CD00017469F264FF0000B00F063F85D4D05F589
:103CE0000170009003461E2200F060F86889A989DF
:103CF00040EA0144688AA9880190A88B4FEAD0095C
:103D0000688840EA0140A0EB040A02A8FDF708FA1F
:103D100000F047F8009B224600F048F84FF4007886
:103D2000BAF5007F98BFD046009BAAEB080A42462E
:103D300000F03CF80027B8FBF9F40CE0B7FBF9F011
:103D400009FB107121B979197A5D497842EA012B92
:103D500000F022F87F1CA742F0D3761E0EE0B4FBE1
:103D6000F9F009FB104121B96119625D497842EA15
:103D7000012B019BC01A00F00FF8641C4445EED3E0
:103D8000761EBAF1000FC9D102A8FDF7C9F90120CA
:103D90000DF50D7DBDE8F08F5A46F1B2C0B2FFF7C8
:103DA000D0BE0122394602A8FDF730B8294602A844
:103DB000FDF7C3B838B504460025FDF7C7FCFF285A
:103DC00018BF012506D1012221462348FDF71EF820
:103DD00000B10225284632BD2DE9F04107460C46C8
:103DE0001E4E0025394606F11800FDF7A9F960BB03
:103DF000384600F055F807460FF264081CE02E28FC
:103E00001AD0307AC00617D47F1CB819417A2E29EF
:103E1000FAD1192D0FD2817A422901BFC17A4D29D9
:103E2000007B502807D154F8250006F109024146CD
:103E300000F01CF86D1C0027314606F11800FDF754
:103E4000B2F910B9707A0028D9D12846BDE8F081BE
:103E5000000000000C050020E4020020EC08002017
:103E6000252D31312E313173000000000CB41CB50A
:103E7000044604A801900A46009401AB00A9074833
:103E80007844183000F028F8009A002111700028BA
:103E90005CBF0098001B16BC5DF80CFBAFDFFFFF9A
:103EA00000F10103810704D010F8011B89B18107DB
:103EB000FAD10268B2F10131914311F0803F04BFA1
:103EC00050F8042FF6E710F8011B11B110F8011B90
:103ED000FBE7C01A704700002DE9F04F93B0804611
:103EE00002AE002014461D460291B0610DF1300A69
:103EF0000AE014F8011B0298C0470290002800F065
:103F0000B481B069401CB061207808B9B069AEE1F5
:103F10002528EED10020F0603061706101E040F0B2
:103F2000010014F8011F2029F9D023290DD02B29D5
:103F300004D02D2906D030290AD00CE040F0020030
:103F400080B2EEE740F00400FAE740F00800F7E73F
:103F500040F01000F4E72A290DD129680A1D2A60D3
:103F600009683162002904D5494240F004003162F9
:103F700080B2641C13E0002131620BE0316A6FF003
:103F80000043994205D001EB810302EB4301303934
:103F90003162641C2278A2F130010A29EED3217823
:103FA0002E2903D04FF0FF31F1611EE014F8011FFC
:103FB0002A2906D129680A1D2A60641C0968F16152
:103FC00013E00021F1610BE0F1696FF000439942C9
:103FD00005D001EB810302EB43013039F161641C30
:103FE0002278A2F130010A29EED3B0840FF280309A
:103FF000217800F0C1F908B114F8010B8DF82E00FA
:104000009DF82E00682804BF2078682803D162201C
:104010008DF82E00641C0CA8B0602278252A13D0DD
:10402000582A34D0632A00F0A580642A18BF692A70
:1040300068D06F2A2BD0702A20D0732A09D0752A15
:1040400018BF782A23D09FE0F068411CF160252139
:1040500097E02868011D29600068F2697060002AF5
:1040600002D5FFF71DFF07E0002100F091F90028BD
:104070001ABF7168401AF069306191E02868011D2B
:1040800029607821006801900CA870606EE09DF8AE
:104090002E306C2B08BF286811D0712B08BF286800
:1040A00002D028686A2B0AD1C01D20F007002860C2
:1040B000014601F108002860D1E9000102E0011D7C
:1040C000296000680190682B02D101A8008803E0F4
:1040D000622B02D101A80078019096F82400000715
:1040E0003FD5019800283CD042F02000782838D1F4
:1040F000F068302100F80A10401C411CF16000F803
:104100000A202EE09DF82E00622802D0682806D0F2
:104110000BE02868011D296090F9000009E028687B
:10412000011D2960B0F9000003E02868011D296025
:1041300000680190002804D5F068411CF1602D2131
:104140000DE0B08C810704D5F068411CF1602B2193
:1041500005E0C00705D5F068411CF160202100F89A
:104160000A10F0680CA940187060114601A800F010
:1041700081F815E0F068411CF16029680A1D2A6089
:10418000096800F80A100BE0F068411CF160252175
:1041900000F80A1022B1F068411CF16000F80A2012
:1041A000306AF168401A7169401A3169A0EB01095F
:1041B00096F82400641C40070FD420208DF80000DE
:1041C000002708E0012300AA01A9404600F0B9F841
:1041D00000284AD17F1C4F45F4DBF7680DF1300B06
:1041E0000AE01BF8011B0298C047029000283CD04F
:1041F000B069401CB0617F1E002FF2D130208DF8D5
:1042000000004FF0000B776908E0012300AA01A924
:10421000404600F096F840BB0BF1010BBB45F4DBC8
:104220003769D6F804B009E01BF8011B0298C047B3
:104230000290D0B1B069401CB0617F1E002FF3D155
:1042400096F8240040077FF55FAE20208DF800002F
:1042500000E07F1C4F45BFF657AE012300AA01A91D
:10426000404600F06EF80028F3D04FF0FF3013B056
:10427000BDE8F08FF0B4C2686F2908BF082405D0EC
:1042800041F02003782B14BF0A2410240668182359
:104290003746642918BF692902D1002E48BF7F42E2
:1042A0005FB9056A4DB9082C27D190F82810090785
:1042B00023D530211723D1751FE0B7FBF4F604FB9B
:1042C000167730375D1EFFB22B463A2FA4BFA1F1FF
:1042D000510C6744AF54370003D085689E18B5422F
:1042E000EBD3082C09D190F82810090705D5995C63
:1042F000302902D05B1E30219954C3F1180141616D
:104300009A188260026A914208DA511A81614FF666
:10431000EF72018D11400185F0BC7047002A0ED567
:1043200090F8282002F01402102A08D1426A03698A
:10433000D21A8369D21A531A012BA8BF8361F0BC29
:104340007047F8B504460D4616461F46002004E0A7
:10435000E869401CE8617F1E002047B116F8011B88
:104360006868A04768600028F2D14FF0FF30F2BDC6
:10437000686C747A4C0000000278C9B28A421AB1A3
:104380001CBF10F8012FF9E718BF0020704700008C
:10439000C9B2830706D0521E22D310F8013B9942BE
:1043A000F7D11FE0083A13D302F1040241EA0121D8
:1043B00041EA014150F8043B121F21BF4B40A3F1D9
:1043C000013C2CEA030C1CF0803FF3D0C9B2001F63
:1043D000083210F8013B521E28BF91EA030FF8D8AB
:1043E00018BF0120401E70470000000000000000C0
:1043F00000000000000000004000400040004000BD
:104400004000400000004000A000A000A00000000C
:104410000000000000000000000024002400FE0056
:104420004800FC00480048003800540050003800A4
:1044300014001400540038004400A800A8005000E4
:1044400014001A002A002400100028002800100080
:1044500074004C004C0030001000100010000000F0
:104460000000000000000000080010001000100014
:1044700010001000100008001000080008000800DC
:1044800008000800080010000000000024001800C8
:104490003C00180024000000000000001000100084
:1044A0007C00100010000000000000000000000070
:1044B00000000800080010000000000000000000DC
:1044C0003C000000000000000000000000000000B0
:1044D0000000000018001800080008000800100084
:1044E00010002000200020001800240024002400D8
:1044F00024002400240018000800180028000800E8
:10450000080008000800080038004400000004000B
:104510000800100020007C0018002400040018008F
:10452000040004002400180004000C0014002400FF
:1045300044007E00040004003C00200020003800FD
:104540000400040024001800180024002000380093
:1045500024002400240018003C0004000800080087
:10456000080010001000100018002400240018009B
:104570002400240024001800180024002400240033
:104580001C000400240018000000000010000000BF
:104590000000100000000000000000000800000003
:1045A00000000800100000000000000004001800D7
:1045B00020001800040000000000000000003C0083
:1045C00000003C0000000000000000002000180077
:1045D0000400180020000000180024000400080057
:1045E00010001000000010003C0042009900A500DF
:1045F000A5009D00420038003800440044004400FB
:104600007C004400440044007800440044007800EA
:1046100044004400440078001C0022004200400096
:104620004000420022001C0070004800440044008A
:1046300044004400480070007C00400040007C00C2
:104640004000400040007C003C002000200038007A
:1046500020002000200020001C002200420040001A
:104660004E00420022001C004400440044007C0034
:1046700044004400440044001000100010001000EA
:1046800010001000100010000400040004000400DA
:10469000040024002400180044004800500070006A
:1046A0005000480048004400200020002000200066
:1046B0002000200020003C008200C600C600AA00A6
:1046C000AA00AA00AA009200420062005200520012
:1046D0004A004A00460042001800240042004200FE
:1046E00042004200240018007800440044004400C6
:1046F00078004000400040001800240042004200C2
:10470000420042002C001A00780044004400780067
:104710005000480044004200380044004000380087
:1047200004004400440038007C0010001000100019
:104730001000100010001000420042004200420031
:1047400042004200240018004400440028002800D1
:1047500028002800280010009200AA00AA00AA0041
:10476000AA00AA00AA004400420024002400180065
:1047700018002400240042004400280028001000F3
:1047800010001000100010007C0004000800100051
:104790001000200040007C001C00100010001000E1
:1047A0001000100010001C0010001000080008008D
:1047B00008000800040004001C00040004000400B9
:1047C0000400040004001C00100028004400000045
:1047D00000000000000000000000000000000000D9
:1047E0000000000000000000200010001000000089
:1047F000000000000000000000000000180004009D
:104800001C00240024001C0020002000280034008C
:1048100024002400340028000000000018002400B8
:1048200020002000240018000400040014002C00C4
:10483000240024002C0014000000000018002400B4
:104840003C00200024001800000018001000100098
:1048500018001000100010000000180024002400B0
:104860001800040024001800200020002800340054
:104870002400240024002400100000001000100078
:1048800010001000100010000800000008000800D0
:104890000800080028001000200020002400280044
:1048A0003000280024002400100010001000100028
:1048B000100010001000100000000000A600DA0038
:1048C0009200920092009200000000002800340044
:1048D000240024002400240000000000180024000C
:1048E00024002400240018000000280034002400C4
:1048F0003800200020002000000014002C002400BC
:104900001C00040004000400000000002C00300023
:1049100020002000200020000000000018002400DB
:1049200010000800240018000000100038001000DB
:1049300010001000100018000000000024002400E7
:10494000240024002C001400000000004400440057
:104950002800280028001000000000009200AA0093
:10496000AA00AA00AA004400000000004400280099
:104970001000100028004400000028002800280033
:104980001000100010001000000000003C000400A7
:104990000800100020003C0000000800100010007B
:1049A000200010001000080010001000100010007F
:1049B0001000100010001000000010000800080097
:1049C0000400080008001000000000000000600063
:1049D00092000C0000000000FF00FF00FF00FF003D
:1049E000FF00FF00FF00FF003848394A83B001682C
:1049F00041F480710160816811408160354A01682D
:104A000011400160016821F480210160816821F476
:104A10007D0181600021C1600191009102910168D6
:104A200041F001010160016801F00201009100996B
:104A300019B90199B1F5A04FF5D10168490801F004
:104A4000010100910099012907D1816821F47D01BC
:104A50008160816841F4880181601F490A6842F0E1
:104A600004020A600A6842F002020A600A6842F020
:104A700001020A604FF40062416A41F080514162D4
:104A800016490A604A68D206FCD481688160816850
:104A9000816081688160016841F080710160016816
:104AA0008901FCD58168890889008160816841F0AD
:104AB00003018160816801F00C010C29FAD14FF0EB
:104AC00000600749086003B07047000000380240EA
:104AD0000CC0FF88FEFFFEEE003C0240007000406C
:104AE00008ED00E07047FEE7FEE7FEE7FEE77047EF
:104AF00070477047FEF72EBD80B54FF40050FDF7AC
:104B00002FF938B10648017802290EBF002101783B
:104B1000491C0170BDE802404FF40050FDF728B970
:104B20003900002010B5074979441831064C7C44FF
:104B3000163404E00A68081D511888470146A1424E
:104B4000F8D110BD0800000028000000DFCFFFFFF3
:104B500010090000380000200000000007C7FFFF18
:104B600038000000340100000000002000000000B8
:104B700000F00BF8002801D0FFF7D4FF0020C0465A
:104B8000C046FEF71FFA00F002F80120704700F05F
:104B900001B8000007463846FEF70AFAFBE70000B6
:104BA0000148804701480047E9490008B14B000827
:104BB000C046C046C046C046FFF7DAFFFFF7FEBF5B
:104BC000FFF7FEBFFFF7FEBFFFF7FEBFFFF7FEBF19
:104BD000FFF7FEBFFFF7FEBFFFF7FEBFFFF7FEBF09
:104BE000FFF7FEBFFFF7FEBFFFF7FEBFFFF7FEBFF9
:104BF000FFF7FEBFFFF7FEBFFFF7FEBFFFF7FEBFE9
:104C0000FFF7FEBFFFF7FEBFFFF7FEBFFFF7FEBFD8
:104C1000FFF7FEBFFFF7FEBFFFF7FEBFFFF7FEBFC8
:104C2000FFF7FEBFFFF7FEBFFFF7FEBFFFF7FEBFB8
:104C3000FFF7FEBFFFF7FEBFFFF7FEBFFFF7FEBFA8
:104C4000FFF7FEBFFFF7FEBFFFF7FEBFFFF7FEBF98
:104C5000FFF7FEBFFFF7FEBFFFF7FEBFFFF7FEBF88
:104C6000FFF7FEBFFFF7FEBFFFF7FEBFFFF7FEBF78
:104C7000FFF7FEBFFFF7FEBFFFF7FEBFFFF7FEBF68
:104C8000FFF7FEBFFFF7FEBFFFF7FEBFFFF7FEBF58
:104C9000FFF7FEBFFFF7FEBF030406080C10182045
:104CA00030000000000000000102030401020304C0
:104CB00006070809E8430008080008000000FFFF95
:104CC0000000000000000240000802400100000057
:0400000508004BB1F3
:00000001FF
