:020000040800F2
:10000000501B0020B5010008E90C0008A50C0008F1
:1000100000000000000000000000000000000000E0
:10002000000000000000000000000000A90F000810
:1000300000000000000000008D0D0008E50F000822
:10004000C7010008C7010008C7010008C701000870
:10005000C7010008DD090008C7010008C701000842
:10006000C7010008C7010008C7010008C701000850
:10007000C7010008C7010008C7010008C701000840
:10008000C7010008C7010008000000004510000873
:10009000C7010008C7010008C7010008C701000820
:1000A000C7010008C7010008C70100085114000873
:1000B000C701000800000000C701000800000000A0
:1000C00000F002F800F04BF80CA030C808382418F3
:1000D0002D18A246671EAB4654465D46AC4201D180
:1000E00000F03DF87E460F3E0FCCB6460126334267
:1000F00000D0FB1AA246AB4633431847381C000019
:10010000581C0000103A02D378C878C1FAD85207B8
:1001100001D330C830C101D504680C6070470000BD
:100120000023002400250026103A01D378C1FBD813
:10013000520700D330C100D50B60704710B5642959
:1001400002D100F08BF810BD782902D100F0BCF884
:1001500010BD002010BD1FB51FBD10B510BD00F0B3
:10016000ABFB1146FFF7F7FF01F056FB00F0C3FBB6
:1001700003B4FFF7F2FF03BC01F03BFA70B505468C
:100180000C46164602E00FCC0FC5103E102EFAD2D8
:10019000082E02D303CC03C5083E042E07D301CC9E
:1001A00001C5361F03E021782970641C6D1C761E82
:1001B000F9D270BD0748804707480047FEE7FEE7D1
:1001C000FEE7FEE7FEE7FEE704480549054A064B61
:1001D0007047000061120008C1000008501500209F
:1001E000501B0020501700205017002070470000BF
:1001F0000FB4054910B503AA029800F0F9FA10BC33
:1002000008BC04B0184700004000002070B5044648
:1002100085690068C10601D5302600E02026C007A8
:1002200007D070BD62683046A1689047206A401CC4
:1002300020626D1EF6D570BD70B5044685690078E4
:10024000C00707D170BD6268A16820209047206A6E
:10025000401C20626D1EF6D570BD0000F7B500256C
:1002600075291068009914A611D0C046C046002810
:1002700002DA404211A608E0009909688A0701D510
:100280000FA602E0490704D50EA6012501E0C046ED
:10029000C046009F0024243704E000F0DDFA30312E
:1002A0003955641C0028F8D12B4632462146009867
:1002B00000F045FAFEBD0000000000002D00000027
:1002C0002B0000002000000070B504460D462146BA
:1002D0001068C046C0462188090502D50F4A7A44F5
:1002E00002E00E4A7A440E3223460021243305E010
:1002F00006070009360F965D5E54491C0028F7D1A9
:1003000020780023000705D5702D03D0002901D0E7
:1003100002231132204600F012FA70BD101A0000BC
:10032000F3B50446002081B020622046E16888478A
:10033000002872D0252802D06268A168ABE0594F2E
:1003400000267F442046E16888472028054608DBD0
:10035000312D06D2781920380078002801D00643C4
:10036000F0E7B00701D5042086430020E06107468E
:10037000A0612A2D0AD0284601F034F9002827D0A0
:10038000B8000019303D0090856119E00298BA006C
:10039000121902C8916102902046E1688847012F36
:1003A000054617D1E06900281FDA202086431CE0AB
:1003B00000980A21806948430099401930388861C3
:1003C0002046E1688847054601F00CF90028EFD186
:1003D000012F0AD02E2D08D12046E1688847054616
:1003E000202006437F1C022FC3DBA069002803DA0C
:1003F0004042A06101200643F00701D0102086434F
:100400006C2D0BD0682D09D04C2D3CD06A2D38D0E6
:10041000742D38D07A2D36D016E040E0E1682F46B2
:1004200020468847B842054609D16C2F29D00120C3
:100430008002E168064320468847054604E06C2FA9
:100440001DD0FF2001300643002D28D0284641381A
:10045000192803D80120C002064320352046266013
:100460002946029A1646FFF769FE002810D0012897
:100470000BD0F61DF008C0000830029055E7402070
:10048000E1E78020D5E70020D3E7361D02964CE750
:1004900062682846A1689047206A401C44E7206AA9
:1004A000FEBD0000D419000030B5441C03E0017803
:1004B000401C00290DD08107F9D10B4BDD0104C888
:1004C000D11A91432940FAD0001B0A0603D0C01E5E
:1004D00030BD001B30BD0A0401D0801E30BD0902B2
:1004E000FCD0401E30BD000001010101F8B5042A16
:1004F0002CD3830712D00B78491C0370401C521E6A
:1005000083070BD00B78491C0370401C521E8307D5
:1005100004D00B78491C0370401C521E8B079B0FA4
:1005200005D0C91ADF002023DE1B08C90AE0FFF747
:1005300025FEF8BD1D4608C9FD401C46B4402C43AD
:1005400010C0121F042AF5D2F308C91A521EF0D4A3
:100550000B78491C0370401C521EEAD40B78491CCE
:100560000370401C012AE4D409780170F8BD000032
:10057000F8B507460B4639461943890713D1164C7F
:10058000E601042A0FD302CB0D1B8D43354202D165
:1005900002C0121FF5E7CBB20370401C521E002BA5
:1005A00013D0090AF7E7002A14D01978521E5B1CF1
:1005B0000170401C002908D0002A0BD01978521E67
:1005C0005B1C0170401C0029EDD1002A02D01146AD
:1005D00000F03EF93846F8BD01010101002203098F
:1005E0008B422CD3030A8B4211D300239C464EE04E
:1005F00003460B433CD4002243088B4231D303090A
:100600008B421CD3030A8B4201D394463FE0C309BB
:100610008B4201D3CB01C01A524183098B4201D3D3
:100620008B01C01A524143098B4201D34B01C01ABE
:10063000524103098B4201D30B01C01A5241C30836
:100640008B4201D3CB00C01A524183088B4201D3A5
:100650008B00C01A524143088B4201D34B00C01A91
:100660005241411A00D201465241104670475DE0A6
:10067000CA0F00D04942031000D340425340002229
:100680009C4603098B422DD3030A8B4212D3FC22D2
:10069000890112BA030A8B420CD3890192118B4251
:1006A00008D3890192118B4204D389013AD0921167
:1006B00000E08909C3098B4201D3CB01C01A524122
:1006C00083098B4201D38B01C01A524143098B42EB
:1006D00001D34B01C01A524103098B4201D30B01D4
:1006E000C01A5241C3088B4201D3CB00C01A5241F9
:1006F00083088B4201D38B00C01A5241D9D24308E0
:100700008B4201D34B00C01A5241411A00D201461C
:10071000634652415B10104601D34042002B00D586
:100720004942704763465B1000D3404201B5002048
:10073000C046C04602BD7047704770477047FFB55E
:1007400004460D4681B0243000902168880604D507
:100750001022E0699143216000E00120A84201DD00
:10076000471B00E000270498A1697A191018081A9D
:10077000A0612078C00602D42046FFF747FD00267E
:1007800008E003986268A168805D9047206A401C79
:10079000761C206204988642F3DB2078C0060AD5D6
:1007A0002046FFF733FD06E06268A16830209047DD
:1007B000206A401C206238467F1E0028F4DC07E0D7
:1007C00000986268A168405D9047206A401C2062E2
:1007D00028466D1E0028F3DC2046FFF72DFD20780B
:1007E000000602D5022005B0F0BD0120FBE70000A5
:1007F000084B70B50D467B4400F047F80446284688
:1008000000F056F8002802D00020C04370BD2046FA
:1008100070BD00000F0E000001E004C0091F042994
:10082000FBD28B0701D50280801CC90700D0027063
:10083000704700290BD0C30702D00270401C491E2C
:10084000022904D3830702D50280801C891EE3E7B6
:100850000022EEE70022DFE701468008081A0209BD
:100860001018020A1018020C1018C0088200121882
:100870005200891A01E0401C0A390A29FBD270474C
:1008800001694A1C02610878704700B58FB0029177
:100890000021059105490193794403911146049083
:1008A0006846FFF73DFD0FB000BD0000E5FFFFFF0C
:1008B000C068802108407047754600F025F8AE46B4
:1008C000050069465346C008C000854618B020B5EB
:1008D000FFF77AFC60BC00274908B6460026C0C571
:1008E000C0C5C0C5C0C5C0C5C0C5C0C5C0C5403DE8
:1008F00049008D46704710B50446C046C0462046A4
:10090000FFF736FC10BD000000487047F0140020CF
:100910000029016802D00122114301E0014A11407F
:1009200001607047FEFF00000168184A1140016035
:100930000021016041608160C1601549144A083995
:10094000904202D148680F2205E0114A14329042C9
:1009500004D14868F0221043486070470C4A28329E
:10096000904203D148680F221202F4E7084A3C3251
:10097000904203D148680F221203ECE7044A503238
:100980009042EAD148680F221204E4E7FEFF00001B
:1009900008000240406880B27047000030B503682C
:1009A0000C4A0C6A13408A684D6922430C692C4337
:1009B00022438C692243CC6922434C6A22438C6ACD
:1009C00022431A430260CA6842600A68826049682A
:1009D000C16030BD0F80FFFF4160704710B501203E
:1009E00000F00AF8012000F001F810BD014948614B
:1009F0007047000000040140034A0146526900208C
:100A00000A4200D00120704700040140F0B50B27D6
:100A100006463F04384600F0D3F804280FD1084CAE
:100A2000206902252843206166612069402108432E
:100A30002061384600F0C4F82169A9432161F0BD66
:100A40000020024008490420CA68D20701D00120D2
:100A50007047CA68D20601D502207047C9684907A5
:100A6000FBD50320704700000020024002480169C6
:100A7000802211430161704700200240F0B5AA2591
:100A800000F036F8002800D000250B273F04384638
:100A900000F096F8042813D1134C20692026304327
:100AA00020612069402108432061384600F088F821
:100AB0001021042805D0052802D022698A4322612A
:100AC000F0BD2069B043206120690E4630432061AB
:100AD00006480580384600F073F80528F0D02169F3
:100AE000B1432161F0BD00000020024000F8FF1F6B
:100AF00003490020C9694907890F00D001207047C8
:100B0000002002400248016942159143016170478B
:100B100000200240F0B507460B200E46000400F00E
:100B20004FF804280ED1084C206910252843206175
:100B30003E800B20000400F043F8052802D0216914
:100B4000A9432161F0BD0000002002400448016972
:100B5000890503D40349816003498160704700001F
:100B60000020024023016745AB89EFCDF0B50B278C
:100B700006463F040D46384600F022F804280CD102
:100B8000064C20690121084320613580384600F079
:100B900017F82169490849002161F0BD0020024091
:100BA00004480169090603D50349416003494160CE
:100BB000704700000020024023016745AB89EFCD5C
:100BC00000B50346FFF73EFF02E0FFF73BFF5B1E69
:100BD000012803D0002B00D1052000BD002BF4D14B
:100BE000FAE7F0B50022012423460D6893401D402A
:100BF0009D422AD10D79012D01D0022D12D1876895
:100C000055000326AE40B74387604E79AE408568F5
:100C10002E43866085889D43858085888B799340A7
:100C20001D438580066855000323AB409E43066044
:100C30000E790768AE403E430660C6689E43C660B4
:100C4000CB79AB40C5682B43C360521C102ACBD371
:100C5000F0BD4B07DB0E9A40C90810B58900081893
:100C6000016A0F249C40A1430162016A11430162A1
:100C700010BD000070B50A4DFF22EE1D1346F93677
:100C800005E0047854402A5D5A40335D401C0C4610
:100C9000491E89B2002CF4D11002184370BD000027
:100CA000F21A000800F018F8FEE77CB501214804AC
:100CB00000F06EF8FF2401340120694600940871A9
:100CC0000020887103224A710925C871ED06284663
:100CD000FFF787FFAC617CBDFF200249013008812E
:100CE00070470000200000487047000030B583784E
:100CF00001210278002B15D094080E4BA400E418B3
:100D000023689207D50EFF22AA40934342789207A8
:100D1000120EAA401A4322600078C006C00E81401D
:100D2000054804E0D006C00E8140034880300160D1
:100D300030BD000000E400E000E100E010B5044632
:100D4000FFF72EFFFFF702FFFFF798FE210A094881
:100D5000FFF7E0FE0748E1B2801CFFF7DBFEFFF77C
:100D6000D1FEFFF783FE00F063F9014602A0FFF712
:100D70003FFA10BD04F8FF1F31314F7074696F6E78
:100D8000427974653D25640A000000007047000048
:100D9000044A0029516901D0014300E081435161B7
:100DA0007047000000100240044A0029916901D0F8
:100DB000014300E081439161704700000010024050
:100DC000134801680122114301604168114A114032
:100DD00041600168104A11400160016801229204DB
:100DE0009143016041683F22120491434160C16A0E
:100DF00009090901C162016BFF2254329143016369
:100E0000416B49084900416300218160704700003F
:100E1000001002400CB8FFF8FFFFF6FEF8B5334DA6
:100E2000044668680C21324E084003D0042801D0E3
:100E3000082801D0266012E06968686801228902EA
:100E400012040F0F1040BF1C00281CD0E86A0107D5
:100E5000090F3046491CFFF7C1FB784320606868E2
:100E6000244B0006000F1A5C20680146D1406160E7
:100E70006A685205520F9A5CD140A1602A6BD20574
:100E800005D41D4A09E01D4847432760E7E76A6823
:100E9000520401D44A0800E08A08E2602A6B530633
:100EA000174A03D4164B1233236100E022612B6BE7
:100EB000DB0601D4666100E060612B6B9B070FD0FD
:100EC000296B8907890F01290CD0286B8007800FB7
:100ED000022809D0286BC043800700D1A661F8BD65
:100EE000A161F8BDA061F8BDA261F8BD001002408B
:100EF00000127A004C000020809FD50000093D00C0
:100F00000080000010B5134C00221149204600F06B
:100F10000DFB00224021204600F0E4FA002120468B
:100F200000F0D6FA00210C48FFF7F2FC0120002166
:100F30008003FFF739FF00210120FFF729FF074950
:100F40000020086100F032F8FFF73AFF10BD000002
:100F500004010400003801403000024000E000E0DD
:100F600030B5002305E004885D005B1C4C539BB248
:100F7000801C9342F7D330BDF8B516460F460546A0
:100F800000240BE06000395A2846FFF7EFFD0228E5
:100F900008D0032806D0641CA4B2AD1CB442F1D31F
:100FA0000020F8BD0120F8BD704700000748016827
:100FB0008907890F016000218160C1600161416181
:100FC0008169821511438161704700000000014072
:100FD000034A1168890889000143116070470000C5
:100FE0000000014010B500F099F910BDC94301821D
:100FF0007047000001490020887470479E08002057
:1010000010B50020094A01235B0781008C18246871
:10101000C918401C0C603028F7D301210846FFF79F
:10102000C3FE0320FFF7D4FF10BD0000003000080E
:1010300003498888C9880002C9B2401880B2704745
:1010400000F8FF1F10B5054C0121204600F05AF9A9
:1010500001212046FFF7CAFF10BD0000002000401C
:1010600010B50248FFF76AFE10BD0000A5A50000FC
:1010700070B50546FFF7DCFF0446014611A0FFF7F7
:10108000B7F829781348002906D04168090E0829C5
:1010900013D100F0C3FA10E00F498C4209D1416826
:1010A000090E082901D100F0B9FA0CA0FFF7A0F849
:1010B00003E0214611A0FFF79BF80E2000F006FD8B
:1010C00070BD00004F7074696F6E42797465733D36
:1010D00025640A0000300008A5A500000D0AD4CB45
:1010E000D0D0B4EDCEF32CBFC9C4DCC3BBD3D0CDBC
:1010F000EAD5FBB5C4415050000000000D0AD4CB26
:10110000D0D0B4EDCEF32CBFC9C4DCC3BBD3D0CD9B
:10111000EAD5FBB5C44150502830782530347829C1
:1011200000000000F7B582B01F210298C9064418DC
:10113000012000041546844202D3012005B0F0BD11
:10114000FFF72EFD0298A70A8005C60D0120400278
:10115000841BA54200D82C460120B902C0060818FD
:101160000122520224490090FFF7FAFE0020234991
:1011700007E032185300204AD25A8A4203D1401C59
:1011800080B2A042F5D3A0421CD20098FFF73EFCEB
:10119000042814D1002008E003994200895A8219DA
:1011A0005300154A401CD15280B2A042F4D3012210
:1011B000520211490098FFF7DFFE002806D0FFF722
:1011C00055FCBAE7224603990298F4E7A5420FD0EE
:1011D00003986100081803900298002600190290F5
:1011E000281B012485B264027F1CA542B4D8B2E753
:1011F000FFF73CFC0020A1E7B2080020FFFF000041
:1012000008B5002000901449112008601348416877
:1012100041604168416041683F221204914341604E
:1012200041680522D204114341600168012212067F
:101230001143016001688901FCD541688908890072
:101240004160416802221143416041680907890FEA
:101250000229FAD108BD000000200240001002401F
:1012600010B5144801680122114301604168124A17
:10127000114041600168114A11400160016801227A
:1012800092049143016041683F22120491434160FE
:10129000C16A09090901C162016BFF2254329143FD
:1012A0000163416B49084900416300218160FFF7F8
:1012B000A7FF10BD001002400CB8FFF8FFFFF6FEBC
:1012C00010B50C487D21C9000068FFF787F90A496D
:1012D000401E88420DD80949486109480722C36960
:1012E0001B021B0A4C042343C361002088610A616E
:1012F00010BDFEE728000020FFFFFF0000E000E037
:1013000004ED00E00246138A002092890B400A4057
:10131000002B02D0002A00D00120704710B50548EC
:101320000168002902D00168491E016000F0DEF961
:1013300010BD00003C000020F0B50646012195B02C
:101340004804FFF725FD01218803FFF72DFD092142
:10135000CF0601223846FFF77CFC01220A213846DD
:10136000FFF777FC032040020090022168460171DC
:10137000002484710125C5710321417169463846F5
:10138000FFF72FFC0E960C202A4E12900F9410940B
:1013900011940EA91394304600F0DEF8012108469E
:1013A000FFF7F6FC244F3846FFF7BEFA21480794B2
:1013B00024300390214804904120000106908020B1
:1013C00008900320000305940C9009940A940B9450
:1013D00003A90D943846FFF7E1FA01213846FFF7DB
:1013E00097FA00221649304600F0A0F8012215496C
:1013F000304600F09BF8306A10210843306200222A
:101400001149304600F092F801224021304600F0A8
:1014100069F80121304600F05BF81B216846017233
:101420004472857202A8FFF761FC0848847415B005
:10143000F0BD000000380140300002408E00002066
:101440000601060004010400050105009E080020B5
:10145000F8B51A4C1849204600F04CF800282AD05C
:10146000206A102108432062154E00213046FFF704
:101470004FFA3046FFF78EFA41273F01381A84B2FF
:10148000601E791E88420ED20E4DA87C00280AD11B
:101490000D492246C819FFF729F80C492C82002073
:1014A00008550120A87439463046FFF795FA012106
:1014B0003046FFF72DFAF8BD040104000038014062
:1014C000300002409E0800208E0000209E04002074
:1014D0000029016802D00122114301E049084900B6
:1014E00001607047002A826801D00A4300E08A4305
:1014F0008260704730B50A04130E0122144600259D
:101500008C40012B0ED0022B0ED08368090C234097
:10151000C0698A401040002B02D0002800D001256D
:10152000284630BD0368F1E74368EFE710B50B04C8
:101530001C0E01238B40022C02D0032C02D002E0AF
:10154000001D00E008300168002A01D0194300E0C6
:101550009943016010BD000030B50446006887B0B3
:101560000D4640084000206060680321090388435D
:10157000A9680143616020681749EA680840696802
:1015800011432A69024311432160A0680321090223
:10159000884369690143A1606846FFF73FFC0F4833
:1015A000844201D1069800E0029821680904296864
:1015B00000D54000FFF712F82A6852088A4200D886
:1015C000401C2168090404D50107054A490F104051
:1015D0000843A08107B030BDF3E9FFFF00380140A8
:1015E000F0FF000030380A2801D2012070470020A7
:1015F0007047704701B503480099016001680029F0
:10160000FCD108BD3C0000200349CA691206FCD584
:1016100001492031088170470038014010B5044667
:1016200000680849084001214907884208D1FFF7AE
:1016300069FC606804490860216881F30888804774
:1016400010BD00000000FE2F44000020F8B500246B
:1016500017460D46264600901AE068782978000261
:10166000081862001249641C88520122A4B2920236
:10167000AD1C94420AD100240098FFF753FD0028C6
:1016800011D101210098C90240180090B61CB6B2D1
:10169000BE42E2D3002C08D0224605490098FFF74D
:1016A00041FD002801D00120F8BD0020F8BD000058
:1016B000B20C002030B500200A4B0146FD24142254
:1016C00042439950D218117451609160D160557C99
:1016D000401C6D086D00254055740328EFD3024867
:1016E000016030BDB41400204800002002480168A9
:1016F000491C01607047000048000020F0B500263A
:10170000F6430546002918D00D4C00201427474306
:101710003F197F7CBF070DD4142646433419667CDD
:1017200002273E437608760066746560E260A16039
:101730002374F0BD401C0328E8DB3046F0BD0000F8
:10174000B41400200146002010B5C04303290ED276
:101750001422074B5143CA18547CA40707D50548E7
:1017600000685850507C012108435074002010BD7F
:10177000B41400204800002001460020C043032983
:101780000CD214225143064A8A18517C8B0705D586
:10179000C80702D04808400050740020704700007D
:1017A000B4140020F0B5002785B03D4614202E4625
:1017B000464317483418617C8A071DD5C9071BD0DA
:1017C0001449825909688A1A61688A4212D32146EB
:1017D00014226846FEF7D2FC029903988847207CC1
:1017E000012810D00028607C01D0FD21084040086D
:1017F000400060747F1CFFB26D1CEDB2032DD5D389
:10180000384605B0F0BD0348016801488151F1E751
:10181000B4140020480000201CB50026684606705D
:10182000FFF74EFDFFF741FAE1204002FFF784FD8C
:10183000FFF740FF00231A4680498148FFF75EFF0B
:10184000804C002360627D206A467F490001FFF7DB
:1018500055FF2062FFF776FF012109047BA0FEF708
:10186000C7FC824800F03CF9814D012080022F180E
:10187000B87C002871D02078002802D0012813D12C
:101880006CE02878AA280BD16878BB2808D1A87802
:10189000CC2802D0DD2858D002E0E878DD2804D03A
:1018A00072480C3800F01CF9BDE06889062140BA86
:1018B0000190281DFFF7DEF90102000A014301989B
:1018C00089B281423FD12879697900060904014330
:1018D000A87900020843E9790143E16065A0A160AD
:1018E000FEF786FC0D21A0680903884202D95F48F3
:1018F0000E38D7E7288941BA2161E068FEF76EFE0D
:10190000002900D0012140185949A6616061642274
:101910000C315C48FEF72CFE0120207068460670F2
:101920005948E061FFF784FB5849884203D14F488A
:101930000D38FFF703FA606AFFF704FF206AFFF72C
:101940001BFF5348AEE753486BE04F484038C06B2D
:10195000A0606068FEF7A8FD65E066E0606AFFF7DA
:10196000F1FE388A0146001F024620614048801E71
:101970000918487809780002084340BA019091B2EA
:10198000A81CFFF777F90102000A014388B2002280
:101990003B8A00E0521C9342FCDC0199884239D119
:1019A0002888A16940BA88422AD1491C3848A161D7
:1019B00000F096F8A91C2269E069FFF747FE0028AD
:1019C0000CD02A480B3800F08BF87D202670C00020
:1019D000FFF710FE30A0FEF70BFC24E02169E06960
:1019E0004018E061A169606981421CD12670012024
:1019F00069460870FFF734FB6846FFF739FB12E0D1
:101A0000082000F063F8208B0004000E00F05EF860
:101A1000207E06E02878FF2802D16878FF2807D0CA
:101A2000072000F053F8FFF7E5FAFFF7BBFE1FE7CA
:101A300001202070606AFFF79FFEF4E7B91A0008E2
:101A40008813000000000020711000082D426F6F05
:101A5000746C6F616465722DD7DCBFD5BCE43A2528
:101A60006C6420427974652000000000FFFF0000D4
:101A70009E04002066696C655F73697A653D257810
:101A8000200A00005C00002000300008A5A500002E
:101A900051670000695100000D0A666C617368D0DF
:101AA000B4B4EDCEF3A3ACBFC9C4DCCAC7D3C9D3A9
:101AB000DAD0B4B1A3BBA40010B5034C206AFFF781
:101AC00041FE0020207010BD000000200349CA69BB
:101AD0001206FCD5014920310881704700380140C9
:101AE00000B50346C0B2FFF7F1FF180AFFF7EEFF9B
:101AF00000BD00C1814001C0804101C0804100C1E2
:101B0000814001C0804100C1814000C1814001C0CD
:101B1000804101C0804100C1814000C1814001C0BD
:101B2000804100C1814001C0804101C0804100C1AD
:101B3000814001C0804100C1814000C1814001C09D
:101B4000804100C1814001C0804101C0804100C18D
:101B5000814000C1814001C0804101C0804100C17D
:101B6000814001C0804100C1814000C1814001C06D
:101B7000804101C0804100C1814000C1814001C05D
:101B8000804100C1814001C0804101C0804100C14D
:101B9000814000C1814001C0804101C0804100C13D
:101BA000814001C0804100C1814000C1814001C02D
:101BB000804100C1814001C0804101C0804100C11D
:101BC000814001C0804100C1814000C1814001C00D
:101BD000804101C0804100C1814000C1814001C0FD
:101BE000804100C1814001C0804101C0804100C1ED
:101BF000814000C0C101C30302C2C60607C705C5B4
:101C0000C404CC0C0DCD0FCFCE0E0ACACB0BC90924
:101C100008C8D81819D91BDBDA1A1EDEDF1FDD1D34
:101C20001CDC14D4D515D71716D6D21213D311D164
:101C3000D010F03031F133F3F23236F6F737F535B4
:101C400034F43CFCFD3DFF3F3EFEFA3A3BFB39F9E4
:101C5000F83828E8E929EB2B2AEAEE2E2FEF2DEDB4
:101C6000EC2CE42425E527E7E62622E2E323E12124
:101C700020E0A06061A163A3A26266A6A767A56534
:101C800064A46CACAD6DAF6F6EAEAA6A6BAB69A9A4
:101C9000A86878B8B979BB7B7ABABE7E7FBF7DBDB4
:101CA000BC7CB47475B577B7B67672B2B373B171E4
:101CB00070B05090915193535292965657975595B4
:101CC00094549C5C5D9D5F9F9E5E5A9A9B5B995964
:101CD0005898884849894B8B8A4A4E8E8F4F8D4D34
:101CE0004C8C4484854587474686824243834181A4
:101CF000804030313233343536373839414243440D
:101D00004546403058003031323334353637383973
:101D1000616263646566403078000400000800007A
:101D20000000000000020001000010006170702E31
:101D300062696E00541D0008000000205C00000075
:101D400004010008B01D00085C000020F41A000027
:101D500020010008000000002C1D00080000000009
:101D60000000000000000000000000000000000073
:101D700000300008FFFFFFFF00000000006CDC02E5
:101D8000000000000000000001020304060708092B
:101D90000000000000000000000000000000000043
:101DA0000000000001020304010203040607080901
:04000005080000C12E
:00000001FF
