:0903D100011403011003010C06E4
:10031E007D017F381203967D017F081203967D01C1
:10032E007F011203967D017F061203967D017F0CDD
:03033E0002039621
:1003AB0075A0FFC282D28100D2800000E5A020E7B9
:0403BB00FBC28022DF
:10039600ED60031203ABC282C281008FA000D2803F
:0503A6000000C28022EE
:1003BF001203ABD282C281008FA000D2800000C294
:0203CF0080228A
:10036100AE07AC0353050153060FED60034306408E
:0F037100430680AF06E4FD120396AF040203BFFC
:10034100E4FDFCC3ED9FEC9E5015E4FBFA0BBB00F2
:0F035100010AEB64794A70F50DBD00010C80E4E0
:01036000227A
:10038000758951E4F58DF58B758CE0F58AD2AFD285
:06039000A9D28CD28E22DE
:0C02D200FDAF82AE8312027D8E838F820E
:1002DE00AB07AA067C007D6412027DEF2430F5097F
:1002EE007C007D64AF03AE0212027DAA04AB057CD6
:1002FE00007D0AAF03AE0212027DEF2430F50AAE86
:10030E0002AF037C007D0A12027DED2430F50B2234
:100100007F0A7E0012034112031EC291C2901203A5
:10011000807B54E4FDFF1203617B43E4FD7F011209
:1001200003617B53E4FD7F021203617B32E4FD7FB8
:10013000031203610BE4FD7F041203617B30E4FDD5
:100140007F051203617B52E4FD7F0A1203617B5B32
:10015000E4FD7F0B120361AB15E4FD7F0C1203611C
:10016000AB16E4FD7F0D120361AB17E4FD7F0E12A9
:1001700003617B5DE4FD7F0F1203617B477D01E43A
:10018000FF1203617B5B7D017F01120361AB117D77
:10019000017F02120361AB127D017F03120361AB89
:1001A000137D017F041203617B5D7D017F051203D6
:1001B000617B427D017F0A1203617B5B7D017F0BC6
:1001C000120361AB0D7D017F0C120361AB0E7D014B
:1001D0007F0D120361AB0F7D017F0E1203617B5D0A
:1001E0007D017F0F1203617F647E001203410201D3
:0101F00011FD
:03000B0002000EE2
:10000E00C0E0C0F0C083C082C0D075D000C000C0B8
:0B001E0002C003C004C005C006C007FC
:10002900B292C28CC28EE50870340508D291D29082
:10003900AF8D74087E00A807088005C333CE33CE80
:10004900D8F9AD8B7C002DF582EC3EF583E51412D1
:1000590002D2850B17850A168509150200D7E5080E
:10006900640170330508D291C290AF8D74087E0087
:10007900A807088005C333CE33CED8F9AD8B7C00F1
:100089002DF582EC3EF583E5101202D2850B13851E
:100099000A128509118037E50864027031F508C232
:1000A90091C290AF8D74087E00A807088005C333FC
:1000B900CE33CED8F9AD8B7C002DF582EC3EF5839D
:1000C900E50C1202D2850B0F850A0E85090D758C78
:0E00D900E0758A00758B00758D00D28CD28E7A
:1000E700D007D006D005D004D003D002D000D0D09E
:0900F700D082D083D0F0D0E032B9
:030000000201F109
:0C01F100787FE4F6D8FD75811702023813
:10027D00BC000BBE0029EF8DF084FFADF022E4CC65
:10028D00F875F008EF2FFFEE33FEEC33FCEE9DEC2E
:10029D00984005FCEE9DFE0FD5F0E9E4CEFD22ED74
:1002AD00F8F5F0EE8420D21CFEADF075F008EF2FBE
:1002BD00FFED33FD4007985006D5F0F222C398FDAF
:0502CD000FD5F0EA224C
:1001FD00020100E493A3F8E493A34003F68001F217
:10020D0008DFF48029E493A3F85407240CC8C33302
:10021D00C4540F4420C8834004F456800146F6DFD1
:10022D00E4800B01020408102040809003D1E47E8D
:10023D00019360BCA3FF543F30E509541FFEE493C6
:10024D00A360010ECF54C025E060A840B8E493A38D
:10025D00FAE493A3F8E493A3C8C582C8CAC583CAB8
:10026D00F0A3C8C582C8CAC583CADFE9DEE780BE70
:0103DA000022
:00000001FF
