:020000040800F2
:100000004004002035070008610600086306000868
:100010006506000867060008690600080000000081
:100020000000000000000000000000006B06000857
:100030006D060008000000006F0600087106000849
:100040005107000855070008590700085D07000818
:100050006107000865070008690700086D070008C8
:100060007107000875070008790700087D07000878
:100070008107000885070008890700088D07000828
:100080009107000895070008990700089D070008D8
:10009000A1070008A5070008A9070008AD07000888
:1000A000B1070008B5070008B9070008BD07000838
:1000B000C1070008C5070008C9070008CD070008E8
:1000C000D1070008D5070008D9070008DD07000898
:1000D000E1070008E5070008E9070008ED07000848
:1000E00075060008F1070008F5070008F907000881
:1000F000FD070008000000000108000805080008CE
:10010000090800080D080008110800081508000873
:10011000190800081D080008210800082508000823
:10012000290800081CB504460FF2F80000F068F832
:100130000FF2EC0030F81400009000A901208DF8B7
:10014000040000F062F803208DF80500324850F8F2
:10015000240000F08BF813BD2F490FF2C40351F8AF
:1001600020108A8A33F8100050408882704730B5DA
:1001700004460FF2B80085B00D4600F041F80121A9
:10018000012000F005F900208DF810008DF8130013
:1001900003A90FF2940030F8140003901F4850F8A0
:1001A000240000F063F8012D28D10FF28C00215CAF
:1001B0000FF28000205C00F001F90FF2740030F8BB
:1001C0001400019000208DF8080008208DF8090027
:1001D00001208DF80A0001A800F004F90FF25C007C
:1001E000205C8DF800000F208DF801008DF80200D2
:1001F00001208DF8030000A800F036F905B030BDED
:1002000050F82400012100F0BAB800208DF8060053
:1002100001208DF8070070471C00002020000020FE
:100220002000000001000000002000000400000089
:1002300000200000020000000D000000280010B4A3
:1002400050F8041B81B102681218001D50F8043BDD
:10025000DC0744BFA9F10104E31852F8044B43F84A
:10026000044B091FF9D1EBE710BC7047F0B5002231
:1002700001230C6893401C409C4222D10668540024
:100280000325A5400F79ED432E40A7403E4306606D
:100290000E79012E18BF022E0CD186684F792E40A0
:1002A000A7403E438660868826EA03038E799640FF
:1002B00033438380C3682B40CD7905FA04F423438C
:1002C000C360521C102AD3D3F0BD50F8041B61B197
:1002D00050F8042BD30744BFA9F101039A18002357
:1002E00042F8043B091FFAD1EFE77047F0B52D49FA
:1002F0002D4B4E682D4C2E4A012516F00C0619D0B8
:10030000042E04D0082E1DD00C2E02D012E023465D
:1003100018E04D684E68C5F38345C6F38156AD5C61
:100320004F68761CFF0354BF04FB05F36B43B3FB1C
:10033000F6F307E00B685B0B03F007035B1C05FAA1
:1003400003F3DB0303604B680468C3F303139B18D8
:100350001B7B24FA03F343604B684468C3F3022316
:100360009B181B7B24FA03F3836049684368C1F33D
:10037000C2218918097B23FA01F1C160F0BD0D4A41
:100380000029116814BF084321EA0000106070477B
:10039000094A0029116814BF084321EA00001060CF
:1003A000704700000438024000127A000024F40074
:1003B000000000201C3802402038024030B501F017
:1003C000030221F00301064B9200CC580F25954003
:1003D000AC43CC509040CC582043C85030BD0000B6
:1003E0000800014030B501688279CB431C492AB32B
:1003F0000A4614682340136053680468A34353609B
:100400000379CC18236805682B432360936804683C
:10041000A3439360D3680468A343D360437905681A
:10042000102B07D1916829439160D1680068084377
:10043000D06030BDCC182068284303E000790C1848
:1004400020681840206030BD064A12680021024230
:1004500018BF01210846704700BF02490860704775
:10046000000401401404014070B50378C4781A46B2
:100470000121E4B1124B1B68447803F4E063C3F537
:10048000E0631B0AC3F10405AC4085780F2626FA09
:1004900003F32B4023430B4C1B011355007800F052
:1004A0001F029140084A400942F8201070BD03F035
:1004B0001F0001FA00F05109044A42F8210070BD02
:1004C0000CED00E000E400E000E100E080E100E08D
:1004D0003848394A83B0016841F48071016081680D
:1004E00011408160354A016811400160016821F4C2
:1004F00080210160816821F47D0181600021C1605B
:10050000019100910291016841F0010101600168CF
:1005100001F002010091009919B90199B1F5A04FBC
:10052000F5D10168490801F0010100910099012904
:1005300007D1816821F47D018160816841F48801DF
:1005400081601F490A6842F004020A600A6842F0AA
:1005500002020A600A6842F001020A604FF4006277
:10056000416A41F08051416216490A604A68D206E8
:10057000FCD48168816081688160816881600168E4
:1005800041F08071016001688901FCD581688908AA
:1005900089008160816841F003018160816801F018
:1005A0000C010C29FAD14FF000600749086003B034
:1005B00070470000003802400CC0FF88FEFFFEEECE
:1005C000003C02400070004008ED00E010B5204CF7
:1005D000201DFFF78BFEA0684FF47A71B0FBF1F09D
:1005E000401EB0F1807F08D21A491B4A4860F020B3
:1005F000107000208860072008600020FFF792FD3F
:1006000001210020FFF7B3FD0020207004E0FFF778
:10061000A3FD322000F00BF820780028F7D02078D6
:100620000128F9D10020FFF797FDC820F2E701B4B7
:100630000A480099016001680029FCD101B07047A7
:100640000648016811B10168491E01607047000049
:100650002400002010E000E023ED00E0380000203E
:100660007047FEE7FEE7FEE7FEE77047704770471A
:10067000FFF7E6BF80B54FF40050FFF7E5FE68B125
:100680000748017801290EBF00210178491C01703B
:100690004FF40050BDE80240FFF7DEBE01BD000090
:1006A0002400002010B5074979441831064C7C44D9
:1006B000163404E00A68081D511888470146A14213
:1006C000F8D110BD0800000028000000FFFBFFFF6C
:1006D00018000000240000200000000063FBFFFF62
:1006E000240000004801000000000020000000007D
:1006F00000F00BF8002801D0FFF7D4FF0020C0461F
:10070000C046FFF763FF00F002F80120704700F0D9
:1007100001B800000746384600F002F8FBE7000089
:1007200080B5C046C046024A11001820ABBEFBE7A8
:10073000260002000148804701480047D104000814
:1007400045070008C046C046C046C046FFF7D0FF78
:10075000FFF7FEBFFFF7FEBFFFF7FEBFFFF7FEBFCD
:10076000FFF7FEBFFFF7FEBFFFF7FEBFFFF7FEBFBD
:10077000FFF7FEBFFFF7FEBFFFF7FEBFFFF7FEBFAD
:10078000FFF7FEBFFFF7FEBFFFF7FEBFFFF7FEBF9D
:10079000FFF7FEBFFFF7FEBFFFF7FEBFFFF7FEBF8D
:1007A000FFF7FEBFFFF7FEBFFFF7FEBFFFF7FEBF7D
:1007B000FFF7FEBFFFF7FEBFFFF7FEBFFFF7FEBF6D
:1007C000FFF7FEBFFFF7FEBFFFF7FEBFFFF7FEBF5D
:1007D000FFF7FEBFFFF7FEBFFFF7FEBFFFF7FEBF4D
:1007E000FFF7FEBFFFF7FEBFFFF7FEBFFFF7FEBF3D
:1007F000FFF7FEBFFFF7FEBFFFF7FEBFFFF7FEBF2D
:10080000FFF7FEBFFFF7FEBFFFF7FEBFFFF7FEBF1C
:10081000FFF7FEBFFFF7FEBFFFF7FEBFFFF7FEBF0C
:10082000FFF7FEBFFFF7FEBFFFF7FEBF030406089A
:100830000C1018203000000000000000010203042A
:1008400001020304060708090000024000080240F4
:0400000508000745A3
:00000001FF
