:020000040800F2
:1030000048100020AD310008293C0008153A00089E
:1030100000000000000000000000000000000000B0
:10302000000000000000000000000000454600080D
:103030000000000000000000953D0008A9460008BF
:10304000BF310008BF310008BF310008BF310008A0
:10305000BF3100081D390008BF310008BF3100082A
:10306000BF310008BF310008BF310008BF31000880
:10307000BF310008BF310008BF310008BF31000870
:10308000C9470008BF31000800000000554700088C
:10309000BF310008BF310008BF310008BF31000850
:1030A000BF310008BF310008BF310008014A0008E5
:1030B000BF31000800000000BF3100080000000020
:1030C00000F002F800F046F80CA030C808382418C8
:1030D0002D18A246671EAB4654465D46AC4201D150
:1030E00000F038F87E460F3E0FCCB646012633423C
:1030F00000D0FB1AA246AB46334318475C260000BB
:103100007C260000103A02D378C878C1FAD852075A
:1031100001D330C830C101D504680C60704700008D
:103120000023002400250026103A01D378C1FBD8E3
:10313000520700D330C100D50B60704710B5642929
:1031400002D100F073F810BD002010BD1FB51FBDE7
:1031500010B510BD00F050FB1146FFF7F7FF01F06E
:1031600005FE00F068FB03B4FFF7F2FF03BC01F0BB
:103170006FFD000070B505460C46164602E00FCC08
:103180000FC5103E102EFAD2082E02D303CC03C571
:10319000083E042E07D301CC01C5361F03E0217879
:1031A0002970641C6D1C761EF9D270BD07488047DB
:1031B00007480047FEE7FEE7FEE7FEE7FEE7FEE71B
:1031C00004480549054A064B70470000B14600080F
:1031D000C1300008480A002048100020480C002098
:1031E000480C0020704700000FB4054910B503AA31
:1031F000029800F0B5FA10BC08BC04B018470000F3
:10320000040100200FB41CB5074B06AA7B44694695
:103210000090059800F08BFA0020694600F09AFAB9
:103220001CBC08BC04B0184745050000F7B50025D4
:1032300075291068009914A611D0C046C046002810
:1032400002DA404211A608E0009909688A0701D510
:103250000FA602E0490704D50EA6012501E0C046ED
:10326000C046009F0024243704E000F0ADFA30315E
:103270003955641C0028F8D12B4632462146009867
:1032800000F0F7F9FEBD0000000000002D00000076
:103290002B00000020000000F3B50446002081B0A0
:1032A00020622046E1688847002872D0252802D095
:1032B0006268A168ABE0594F00267F442046E16870
:1032C00088472028054608DB312D06D2781920389A
:1032D0000078002801D00643F0E7B00701D50420AC
:1032E00086430020E0610746A0612A2D0AD02846C7
:1032F00001F0A7FC002827D0B8000019303D00904D
:10330000856119E00298BA00121902C89161029011
:103310002046E1688847012F054617D1E06900285B
:103320001FDA202086431CE000980A218069484368
:1033300000994019303888612046E1688847054681
:1033400001F07FFC0028EFD1012F0AD02E2D08D1EB
:103350002046E16888470546202006437F1C022F4F
:10336000C3DBA069002803DA4042A06101200643C4
:10337000F00701D0102086436C2D0BD0682D09D0AA
:103380004C2D3CD06A2D38D0742D38D07A2D36D0C3
:1033900016E040E0E1682F4620468847B8420546DF
:1033A00009D16C2F29D001208002E1680643204614
:1033B0008847054604E06C2F1DD0FF2001300643EE
:1033C000002D28D028464138192803D80120C002F2
:1033D00006432035204626602946029A1646FFF706
:1033E000ADFE002810D001280BD0F61DF008C0005B
:1033F0000830029055E74020E1E78020D5E7002023
:10340000D3E7361D02964CE762682846A1689047CC
:10341000206A401C44E7206AFEBD000040240000F2
:10342000F8B5042A2CD3830712D00B78491C0370FB
:10343000401C521E83070BD00B78491C0370401CA4
:10344000521E830704D00B78491C0370401C521E87
:103450008B079B0F05D0C91ADF002023DE1B08C98C
:103460000AE0FFF787FEF8BD1D4608C9FD401C466F
:10347000B4402C4310C0121F042AF5D2F308C91A15
:10348000521EF0D40B78491C0370401C521EEAD423
:103490000B78491C0370401C012AE4D409780170A0
:1034A000F8BD0000F8B507460B46394619438907B1
:1034B00013D1164CE601042A0FD302CB0D1B8D430A
:1034C000354202D102C0121FF5E7CBB20370401C97
:1034D000521E002B13D0090AF7E7002A14D01978DE
:1034E000521E5B1C0170401C002908D0002A0BD022
:1034F0001978521E5B1C0170401C0029EDD1002A76
:1035000002D0114600F05CF93846F8BD0101010116
:10351000002203098B422CD3030A8B4211D30023D0
:103520009C464EE003460B433CD4002243088B42AA
:1035300031D303098B421CD3030A8B4201D3944637
:103540003FE0C3098B4201D3CB01C01A524183092A
:103550008B4201D38B01C01A524143098B4201D3E4
:103560004B01C01A524103098B4201D30B01C01A0F
:103570005241C3088B4201D3CB00C01A5241830889
:103580008B4201D38B00C01A524143088B4201D3B6
:103590004B00C01A5241411A00D201465241104616
:1035A00070475DE0CA0F00D04942031000D340428B
:1035B000534000229C4603098B422DD3030A8B42C1
:1035C00012D3FC22890112BA030A8B420CD389015F
:1035D00092118B4208D3890192118B4204D3890145
:1035E0003AD0921100E08909C3098B4201D3CB0183
:1035F000C01A524183098B4201D38B01C01A524138
:1036000043098B4201D34B01C01A524103098B423B
:1036100001D30B01C01A5241C3088B4201D3CB0026
:10362000C01A524183088B4201D38B00C01A524109
:10363000D9D243088B4201D34B00C01A5241411AE0
:1036400000D20146634652415B10104601D340420E
:10365000002B00D54942704763465B1000D34042BF
:1036600001B50020C046C04602BD70477047704794
:103670007047FFB504460D4681B0243000902168A4
:10368000880604D51022E0699143216000E0012002
:10369000A84201DD471B00E000270498A1697A19C0
:1036A0001018081AA0612078C00602D42046C0462F
:1036B000C046002608E003986268A168805D9047D4
:1036C000206A401C761C206204988642F3DB207836
:1036D000C0060AD52046C046C04606E06268A1681A
:1036E00030209047206A401C206238467F1E002808
:1036F000F4DC07E000986268A168405D9047206AAA
:10370000401C206228466D1E0028F3DC2046C0467F
:10371000C0462078000602D5022005B0F0BD012089
:10372000FBE7000001694A1C02610878704700B598
:103730008FB00291002105910549019379440391CD
:10374000114604906846FFF7A7FD0FB000BD0000CA
:10375000E5FFFFFF0A681070521C0A607047000006
:10376000084B70B50D467B44FFF7E1FF0446284641
:1037700000F03EF8002802D00020C04370BD204673
:1037800070BD0000FF14000001E004C0091F0429FF
:10379000FBD28B0701D50280801CC90700D00270C4
:1037A000704700290BD0C30702D00270401C491E8D
:1037B000022904D3830702D50280801C891EE3E717
:1037C0000022EEE70022DFE701468008081A02091E
:1037D0001018020A1018020C1018C00882001218E3
:1037E0005200891A01E0401C0A390A29FBD27047AD
:1037F000C068802108407047754600F025F8AE4645
:10380000050069465346C008C000854618B020B57B
:10381000FFF7D6FC60BC00274908B6460026C0C5A5
:10382000C0C5C0C5C0C5C0C5C0C5C0C5C0C5403D78
:1038300049008D46704710B50446C046C046204634
:10384000FFF791FC10BD000000487047E809002018
:103850000029016802D00122114301E0014A114010
:1038600001607047FEFF00000168184A11400160C6
:103870000021016041608160C1601549144A083926
:10388000904202D148680F2205E0114A143290425A
:1038900004D14868F0221043486070470C4A28322F
:1038A000904203D148680F221202F4E7084A3C32E2
:1038B000904203D148680F221203ECE7044A5032C9
:1038C0009042EAD148680F221204E4E7FEFF0000AC
:1038D00008000240406880B27047000030B50368BD
:1038E0000C4A0C6A13408A684D6922430C692C43C8
:1038F00022438C692243CC6922434C6A22438C6A5E
:1039000022431A430260CA6842600A6882604968BA
:10391000C16030BD0F80FFFF4160704710B50120CE
:1039200000F00AF8012000F001F810BD01494861DB
:103930007047000000040140034A0146526900201C
:103940000A4200D00120704700040140F0B5002277
:10395000012423460D6893401D409D422AD10D79D4
:10396000012D01D0022D12D1876855000326AE40EB
:10397000B74387604E79AE4085682E438660858860
:103980009D43858085888B7993401D43858006689B
:1039900055000323AB409E4306600E790768AE4096
:1039A0003E430660C6689E43C660CB79AB40C5689F
:1039B0002B43C360521C102ACBD3F0BD4B07DB0E48
:1039C0009A40C90810B589000818016A0F249C4064
:1039D000A1430162016A1143016210BD0185704774
:1039E0008161704770B50A4DFF22EE1D1346F9360E
:1039F00005E0047854402A5D5A40335D401C0C4673
:103A0000491E89B2002CF4D11002184370BD000089
:103A1000FE540008FEE710B50924E4060121204603
:103A2000FFF7DEFF02212046FFF7DAFF02212046E2
:103A3000FFF7D4FF01212046FFF7D0FF10BD10B5DE
:103A40000924E40601212046FFF7CAFF022120468F
:103A5000FFF7C4FF02212046FFF7C2FF10BD10B5DB
:103A60000924E40601212046FFF7BAFF0121204680
:103A7000FFF7B4FF10BD000010B5074800F02CF8A8
:103A8000032000F01DF8054800F020F800F010F8C1
:103A900000F006F810BD000055550000710200004E
:103AA0000249014808607047CCCC0000003000405B
:103AB0000249014808607047AAAA0000003000408F
:103AC00001494860704700000030004001498860AB
:103AD0007047000000300040014908607047000056
:103AE000003000401CB503200121400400F054F9CF
:103AF0004C48009001206946487108710020092453
:103B00008871E4062046FFF721FF04212046FFF7D5
:103B100067FF642001F09EF804212046FFF75EFF56
:103B2000C82001F097F804212046FFF759FF002133
:103B3000AE2000F018F90021084600F014F9002129
:103B4000102000F010F90021402000F00CF90021B5
:103B5000812000F008F90021FF2000F004F9002185
:103B6000A12000F000F90021C82000F0FCF800219D
:103B7000A62000F0F8F80021A82000F0F4F80021B9
:103B80003F2000F0F0F80021D32000F0ECF80021F5
:103B9000084600F0E8F80021D52000F0E4F8002104
:103BA000802000F0E0F80021D92000F0DCF80021AE
:103BB000F12000F0D8F80021DA2000F0D4F800213C
:103BC000122000F0D0F80021DB2000F0CCF800211A
:103BD000402000F0C8F80021202000F0C4F80021A7
:103BE000022000F0C0F800218D2000F0BCF8002178
:103BF000142000F0B8F80021A42000F0B4F800214F
:103C0000A62000F0B0F80021AF2000F0ACF80021B1
:103C1000AF2000F0A8F800F031F80021084600F0CD
:103C20004AF81CBD1F8000007047000030B5837843
:103C300001210278002B15D094080E4BA400E41843
:103C400023689207D50EFF22AA4093434278920739
:103C5000120EAA401A4322600078C006C00E8140AE
:103C6000054804E0D006C00E814003488030016062
:103C700030BD000000E400E000E100E070B5002489
:103C800020460021B03000F06EF80021084600F018
:103C90006AF80021102000F066F8002501210020BC
:103CA00000F061F86D1CEDB2802DF7D3641CE4B216
:103CB000082CE5D370BD10B50A4604461046002115
:103CC000B03000F050F820090021103000F04BF81F
:103CD0002007000F002100F046F810BDF7B5203A8C
:103CE000009800240D46D6B27F2803D900208D1CF1
:103CF000EDB200902946FFF7DEFF37010D4E38196F
:103D0000305C012100F02FF8641CE4B2082CF6D3DB
:103D10006D1CE9B20098FFF7CEFF00243819801916
:103D2000007A012100F01FF8641CE4B2082CF5D3DE
:103D3000FEBD00000E4F0008F8B517460E460446BB
:103D400000250CE031462046FFF7C8FF0834E4B2F6
:103D5000782C02D90024B61CF6B26D1CEDB27A5D47
:103D6000002AEFD1F8BD10B5002903D0C0B200F091
:103D700052FF10BDC0B200F038FF10BD04498A15D3
:103D80000028086801D0104300E0904308607047A5
:103D90000070004070470000044A0029516901D0BA
:103DA000014300E081435161704700000010024070
:103DB000044A0029D16901D0014300E08143D16167
:103DC0007047000000100240044A0029916901D0A8
:103DD000014300E081439161704700000010024000
:103DE000F8B5334D044668680C21324E084003D0C4
:103DF000042801D0082801D0266012E069686868AC
:103E00000122890212040F0F1040BF1C00281CD091
:103E1000E86A0107090F3046491CFFF779FB784330
:103E200020606868244B0006000F1A5C2068014679
:103E3000D14061606A685205520F9A5CD140A1601E
:103E40002A6BD20505D41D4A09E01D484743276067
:103E5000E7E76A68520401D44A0800E08A08E26091
:103E60002A6B5306174A03D4164B1233236100E022
:103E700022612B6BDB0601D4666100E060612B6B75
:103E80009B070FD0296B8907890F01290CD0286B5C
:103E90008007800F022809D0286BC043800700D11B
:103EA000A661F8BDA161F8BDA061F8BDA261F8BD31
:103EB0000010024000127A0014010020809FD500FB
:103EC00000093D0000800000034600200A495A090D
:103ED0000CD0012A0CD0022A0CD0496BDA06D20E83
:103EE000012393400B4200D0012070470968F5E799
:103EF000096AF3E7496AF1E7001002400549002822
:103F0000486A02D00122104301E0400840004862A4
:103F1000704700000010024001220549D20300282A
:103F2000086A01D0104300E0904308627047000027
:103F30000010024002490A6A02430A627047000008
:103F40000010024018B500220092114ACA235362A1
:103F5000532353620029916802D00143916012E01B
:103F600081439160000A01239B03D168009C0140BA
:103F7000641C00949C4201D00029F6D0D168014213
:103F800001D1002000E00120FF21516218BD000096
:103F9000002800401FB5FF216A460131002000F0D3
:103FA0008DF8684683784278017802A0FFF71CF903
:103FB0001FBD00000A0D20205468652063757272D1
:103FC000656E7420616C61726D206973203A2020E7
:103FD00025302E32643A25302E32643A25302E3286
:103FE00064200A0D0000000001090A220007514365
:103FF000000F4018C0B27047002103E0491C0A3886
:10400000C9B2C0B20A28F9D20907090E084370479D
:1040100080210843C003C00BC2430348C3680B4060
:104020001A43C260704700000028004010B501210B
:104030000807FFF7BDFE0120FFF7A0FE0120FFF7F4
:104040005DFF4120FFF740FF0028FAD00120400229
:10405000FFF770FFFF210548903141606321016047
:104060000120FFF759FF00F01DFA10BD08010020E4
:1040700018B5002000900C48C168490612D40021F0
:10408000C943C16040220314C168009C1140641CF4
:1040900000949C4201D00029F6D0C068400601D4AB
:1040A000002018BD012018BD002800400248C1684A
:1040B00080229143C16070470028004070B51649C6
:1040C0001446C96940258A02920E4B0422705B0E89
:1040D00063704B065B0EA3700B0C2B40E3708B00E0
:1040E0009B0E23732B060B40A3600C4B19406160A1
:1040F00000280FD11046FFF777FF20706078FFF798
:1041000073FF6070A078FFF76FFFA070207BFFF750
:104110006BFF207370BD000000280040808080800D
:1041200070B50C4610490B68104919408A024D04BD
:10413000920E22706D0E49066570490EA1705902EB
:10414000490E40231940E17000280BD11046FFF7BB
:104150004BFF20706078FFF747FF6070A078FFF793
:1041600043FFA07070BD0000002800407F7F7F00EB
:1041700030B50D4ACA2353625323536204250446C3
:10418000094BAC43403328400029916804D02143B7
:1041900091601968014303E0A1439160196881436C
:1041A0001960FF20506230BD0028004070B5054600
:1041B00000260F4CCA20606253206062FFF758FF50
:1041C000002811D0A06840218843A060A068296819
:1041D0000843A060A86820612069A98809040843F1
:1041E0002061FFF763FF0126FF206062304670BD4B
:1041F00000280040034908B580004018009000687E
:1042000008BD00005028004070B500211F4E002856
:10421000B068144620D0400635D52078FFF7E4FE7C
:10422000207BFFF7E1FE2078A57800040543607845
:10423000E1780002090408430543207B000605439A
:10424000A068054360680543CA207062532070620D
:10425000F561FF20706270BD400600D4E1702078E7
:10426000FFF7CAFE05046078FFF7C6FE00020543AB
:10427000A078FFF7C1FE0543E07800040543207BEA
:10428000FFF7BAFEDAE7E170CAE700000028004055
:10429000F8B502460027224D0C46002A0978AA6884
:1042A000384605D052062FD50846FFF79DFE2CE074
:1042B000520600D4E0700846FFF79EFE06046078C0
:1042C000FFF79AFE00020643A078FFF795FE06432B
:1042D000E07800040643CA20686253206862FFF752
:1042E000C7FE00280CD00F4806402E60FFF7DEFE08
:1042F000A868800603D400F0D5F8002800D0012774
:10430000FF2068623846F8BDE0702078A678000487
:1043100006436078E178000209040843DAE7000008
:10432000002800407F7F7F0070B586B0002568467A
:10433000C574122404744474847404A92846FFF7D5
:10434000A7FF00282ED019A0FEF74EFF00F06EF850
:104350002049002000F0CEF8FF260136002130462B
:10436000FFF7F0FD1C48FEF73FFF6A46D57014705A
:1043700054709470012002951073C007019031466B
:104380000020FFF741FF15A0FEF72EFFFFF702FE0A
:1043900001210803FFF7ECFE01213046FFF7D2FDB3
:1043A00006B070BD17A0FEF71FFFD5E70A0D3E3E11
:1043B00020212120525443205365742054696D6597
:1043C00020737563636573732E202121203C3C0AA2
:1043D0000D000000F0320000105700080A0D3E3EAC
:1043E000202121205254432053657420416C617276
:1043F0006D20737563636573732E202121203C3C0F
:104400000A0D00000A0D3E3E202121205254432077
:104410005365742054696D65206661696C65642E0E
:10442000202121203C3C0A0D000000001CB501A900
:104430000020FFF775FE684683794279017907A06D
:10444000FEF7D2FE6846807900906846437902798B
:104450000EA11348FEF7D6FE1CBD00000A0D202059
:104460005468652063757272656E742074696D6539
:10447000206973203A202025302E32643A25302ED0
:1044800032643A25302E3264200A0D0025302E3257
:10449000643A25302E32643A25302E326400000012
:1044A0007A09002018B5002011490090886880061C
:1044B00001D5012018BDCA20486253204862C8684F
:1044C000A0229043C86020229302C868009C10403C
:1044D000641C00949C4201D00028F6D0C868800675
:1044E00001D5012000E00020FF224A6218BD000033
:1044F00000280040034A08B5800080180090016041
:1045000008BD0000502800400EB50020FFF772FEE5
:104510001F49884213D0FFF789FD1E4801680191A9
:1045200040680290002000906846FFF73FFE002898
:1045300002D119A0FEF758FEFFF7F6FE0EBD5B2074
:10454000FFF7C2FC002801D023A005E05A20FFF7A6
:10455000BBFC002802D029A0FEF746FE30A0FEF7E3
:1045600043FE01210807FFF723FC0120FFF706FCAB
:104570000120FFF7C3FCFFF795FFFF200130FFF795
:1045800047FD01204004FFF7D1F9FFF74FFF0EBDB3
:10459000F0320000080100200A0D202020202020F9
:1045A00020202F215C2A2A2A2A2A205254432050D4
:1045B00072657363616C657220436F6E6669672014
:1045C0006661696C6564202A2A2A2A2A2A2A2A2FE7
:1045D000215C200A0D0000000D0A20506F776572E3
:1045E000204F6E205265736574206F63637572721D
:1045F00065642E2E2E2E0A0D000000000D0A2045A7
:10460000787465726E616C205265736574206F6397
:104610006375727265642E2E2E2E0A0D0000000046
:104620000A0D204E6F206E65656420746F20636FE5
:104630006E666967757265205254432E2E2E2E0ABF
:104640000D0000007047000008B5002000901449DC
:104650001120086013484168416041684160416829
:104660003F2212049143416041680522D204114364
:10467000416001680122120611430160016889014D
:10468000FCD54168890889004160416802221143D4
:10469000416041680907890F0229FAD108BD00006D
:1046A000002002400010024010B500F00FF910BDCC
:1046B00010B5144801680122114301604168124A93
:1046C000114041600168114A1140016001680122F6
:1046D00092049143016041683F221204914341607A
:1046E000C16A09090901C162016BFF225432914379
:1046F0000163416B49084900416300218160FFF774
:10470000A3FF10BD001002400CB8FFF8FFFFF6FE3B
:1047100010B50C487D21C9000068FEF7F9FE0A4972
:10472000401E88420DD80949486109480722C369DB
:104730001B021B0A4C042343C361002088610A61E9
:1047400010BDFEE7E8000020FFFFFF0000E000E0F2
:1047500004ED00E010B5054C0121204600F067F89B
:104760000121204600F056F810BD00000020004056
:104770001FB501210220FFF71BFB102168460173C2
:10478000022141730121817303A8FFF74FFA03A8A7
:10479000FFF74CFA0920FF210190E03168460180C3
:1047A000002101814180074C6946204600F054F801
:1047B00001221146204600F046F80121204600F073
:1047C0002CF81FBD0004004010B50E4C01212046FE
:1047D00000F02DF8002811D00121204600F01AF831
:1047E00009490888401E088008480178491C017062
:1047F00007480178002902D00021017010BD012175
:10480000FBE700000004004000010020C000002081
:10481000E4000020C943018270470029018802D0CA
:104820000122114301E04908490001807047024616
:10483000138A002092890B400A40002B02D0002AE4
:1048400000D001207047002A828901D00A4300E08D
:104850008A4382817047000010B50288144B984249
:1048600006D00124A407A04202D0124CA04203D1DA
:104870007024A2434C8822430F4CA04203D00F4C1B
:1048800022400C89224302804A68C2620A8802855B
:10489000984208D00A4A904205D00A4A904202D073
:1048A000094A904201D1897A01860121818210BD95
:1048B000002C01400004004000100040FFFC0000FC
:1048C00000400140004401400048014010B5054847
:1048D0000168002902D00168491E016000F0EAF970
:1048E00010BD0000FC000020F0B50646012195B087
:1048F0004804FFF751FA01218803FFF765FA0921FF
:10490000CF0601223846FFF759F801220A2138461E
:10491000FFF754F80320400200900221684601711D
:10492000002484710125C57103214171694638460F
:10493000FFF70CF80E960C202A4E12900F9410944C
:1049400011940EA91394304600F0DEF801210846B8
:10495000FFF722FA244F3846FEF786FF21480794D6
:1049600024300390214804904120000106908020CB
:1049700008900320000305940C9009940A940B946A
:1049800003A90D943846FEF7A9FF01213846FEF72A
:104990005FFF00221649304600F0A0F801221549B9
:1049A000304600F09BF8306A102108433062002244
:1049B0001149304600F092F801224021304600F0C3
:1049C00069F80121304600F05BF81B21684601724E
:1049D0004472857202A8FFF729F90848847415B05B
:1049E000F0BD0000003801403000024056010020B8
:1049F0000601060004010400050105006609002007
:104A0000F8B51A4C1849204600F04CF800282AD076
:104A1000206A102108432062154E00213046FEF71F
:104A200017FF3046FEF756FF41273F01381A84B280
:104A3000601E791E88420ED20E4DA87C00280AD135
:104A40000D492246C819FEF7EBFC0C492C820020C8
:104A500008550120A87439463046FEF75DFF012154
:104A60003046FEF7F5FEF8BD0401040000380140B1
:104A70003000024066090020560100206605002033
:104A80000029016802D00122114301E049084900D0
:104A900001607047002A826801D00A4300E08A431F
:104AA0008260704730B50A04130E012214460025B7
:104AB0008C40012B0ED0022B0ED08368090C2340B2
:104AC000C0698A401040002B02D0002800D0012588
:104AD000284630BD0368F1E74368EFE710B50B04E3
:104AE0001C0E01238B40022C02D0032C02D002E0CA
:104AF000001D00E008300168002A01D0194300E0E1
:104B00009943016010BD000030B50446006887B0CD
:104B10000D46400840002060606803210903884377
:104B2000A9680143616020681749EA68084069681C
:104B300011432A69024311432160A068032109023D
:104B4000884369690143A1606846FFF749F90F4846
:104B5000844201D1069800E002982168090429687E
:104B600000D54000FEF7D4FC2A6852088A4200D8DB
:104B7000401C2168090404D50107054A490F10406B
:104B80000843A08107B030BDF3E9FFFF00380140C2
:104B9000F0FF00000149002088747047660900207A
:104BA00070B509260446F60601213046FEF716FFC9
:104BB0000025E009C001802812D002213046FEF70E
:104BC0000DFF6006040E01213046FEF709FF0121AA
:104BD0003046FEF703FF6D1CEDB2082DE9D370BD22
:104BE00002213046FEF7FCFEEBE710B50446FEF767
:104BF00012FF7820FFF7D4FFFEF731FF0020FFF708
:104C0000CFFFFEF72CFF2046FFF7CAFFFEF727FF76
:104C1000FEF715FF10BD10B50446FEF7FCFE782028
:104C2000FFF7BEFFFEF71BFF4020FFF7B9FFFEF7BF
:104C300016FF2046FFF7B4FFFEF711FFFEF7FFFE59
:104C400010BD30380A2801D201207047002070477B
:104C50007047000001B50348009901600168002910
:104C6000FCD108BDFC0000200349CA691206FCD52E
:104C700001492031088170470038014030B50020DB
:104C80000A4B0146FD24142242439950D218117454
:104C900051609160D160557C401C6D086D002540CD
:104CA00055740328EFD30248016030BDAC090020E1
:104CB0001001002002480168491C01607047000093
:104CC000100100200146002010B5C04303290ED278
:104CD0001422074B5143CA18547CA40707D5054832
:104CE00000685850507C012108435074002010BDCA
:104CF000AC09002010010020F0B5002785B03D462A
:104D000014202E46464317483418617C8A071DD567
:104D1000C9071BD01449825909688A1A61688A42F6
:104D200012D3214614226846FEF724FA029903980A
:104D30008847207C012810D00028607C01D0FD210C
:104D400008404008400060747F1CFFB26D1CEDB24B
:104D5000032DD5D3384605B0F0BD0348016801489E
:104D60008151F1E7AC0900201001002008B54F4D3A
:104D7000A8698047FFF7CCFCFEF7B4FEE1204002B3
:104D8000FFF7B2FDFFF77AFFFFF7F2FCFFF7BCFB7E
:104D9000FEF7A8FEFEF772FF45A200211E20FEF7D7
:104DA000CBFFFFF7E5FC0026FEF766FE01210904B4
:104DB00042A0FEF719FA474800F0A0F80120464C3F
:104DC00080022718B87C00285AD06878002855D16E
:104DD0002078AA284FD16078BB284CD1A078CC2865
:104DE00002D0EE283ED046E0E078DD2843D160894D
:104DF00041BA00910621201DFEF7F4FD0102000AD0
:104E0000014388B2009988422AD12079010660794D
:104E100000040843A17909020143E07908430D2108
:104E2000A86009036860884225D8218949BAE960E9
:104E3000FEF76EFB002900D00121401828610020F8
:104E40002549686164220C312448FEF72BFB286A4F
:104E5000FFF738FFE8698047062000F045F80DE0CD
:104E60000720FAE7BFF34F8F1E491D48C860BFF304
:104E70004F8F00BFFDE7174800F040F8FFF78AFEAC
:104E800028780A280ED3FEF713FE00202870FF2092
:104E9000F530761C864201D3002603E00A2E01D1AC
:104EA000FFF7C4FAFFF728FF8CE70000C0000020DE
:104EB0004F4C454420544553540000002D41505060
:104EC0002DD7DCBFD5BCE43A256C642042797465EB
:104ED00020000000FFFF00006605002024010020E4
:104EE0000400FA0500ED00E00349CA691206FCD58A
:104EF00001492031088170470038014000B5034660
:104F0000C0B2FFF7F1FF180AFFF7EEFF00BD000087
:104F10000000000000000000000000000000000091
:104F200000F8000000000000003330000000001016
:104F30000C06100C0600000000000000000040C03D
:104F40007840C0784000043F04043F04040000702F
:104F500088FC08300000001820FF211E0000F00827
:104F6000F000E018000000211C031E211E0000F0CC
:104F70000888700000001E21232419272110101614
:104F80000E00000000000000000000000000000013
:104F900000E0180402000000000718204000000292
:104FA0000418E00000000040201807000000404006
:104FB00080F0804040000202010F01020200000068
:104FC00000F0000000000101011F010101000000CC
:104FD00000000000000080B0700000000000000031
:104FE00000000000000000010101010101010000BA
:104FF0000000000000000030300000000000000051
:10500000000080601804006018060100000000E045
:1050100010080810E000000F102020100F000010F2
:1050200010F8000000000020203F20200000007049
:105030000808088870000030282422213000003041
:105040000888884830000018202020110E00000039
:10505000C02010F8000000070424243F240000F8BA
:105060000888880808000019212020110E0000E09F
:10507000108888180000000F112020110E00003841
:105080000808C83808000000003F00000000007059
:10509000880808887000001C222121221C0000E0E2
:1050A00010080810E0000000312222110F0000005B
:1050B00000C0C00000000000003030000000000010
:1050C0000080000000000000806000000000000080
:1050D0008040201008000001020408102000404019
:1050E000404040404000040404040404040000085C
:1050F0001020408000000020100804020100007011
:1051000048080808F0000000003036010000C030F8
:10511000C828E810E0000718272423140B0000001B
:10512000C038E0000000203C23020227382008F8A5
:10513000888888700000203F202020110E00C03099
:10514000080808083800071820202010080008F870
:1051500008080810E000203F202020100F0008F869
:105160008888E8081000203F20202320180008F835
:105170008888E8081000203F200003000000C030AD
:1051800008080838000007182020221E020008F82E
:1051900008000008F808203F210101213F200008F5
:1051A00008F8080800000020203F20200000000030
:1051B0000808F8080800C08080807F00000008F818
:1051C00088C028180800203F20012638200008F851
:1051D000080000000000203F20202020300008F8B8
:1051E000F800F8F80800203F003F003F200008F8D2
:1051F00030C00008F808203F200007183F00E010EA
:1052000008080810E0000F10202020100F0008F8F8
:1052100008080808F000203F210101010000E0100B
:1052200008080810E0000F18242438504F0008F830
:10523000888888887000203F2000030C3020007090
:105240008808080838000038202121221C0018088E
:1052500008F8080818000000203F2000000008F8A7
:1052600008000008F808001F202020201F000878F0
:10527000880000C83808000007380E010000F80850
:1052800000F80008F800033C0700073C030008187A
:1052900068808068180820302C03032C30200838E0
:1052A000C800C83808000000203F20000000100897
:1052B0000808C838080020382621202018000000DF
:1052C00000FE020202000000007F40404000000C8F
:1052D00030C000000000000000010638C0000002DD
:1052E0000202FE000000004040407F00000000007D
:1052F00004020202040000000000000000000000A0
:10530000000000000000808080808080808000029B
:105310000204000000000000000000000000000087
:105320008080808000000019242222223F2008F87B
:10533000008080000000003F112020110E000000BE
:10534000008080800000000E11202020110000004D
:1053500000808088F800000E112020103F200000FF
:10536000808080800000001F222222221300008003
:1053700080F0888888180020203F2020000000004E
:10538000808080808000006B94949493600008F883
:10539000008080800000203F210000203F2000800E
:1053A0009898000000000020203F2020000000000E
:1053B00000809898000000C08080807F000008F87E
:1053C000000080808000203F24022D302000000853
:1053D00008F8000000000020203F2020000080800E
:1053E000808080808000203F20003F20003F808020
:1053F000008080800000203F210000203F2000002E
:10540000808080800000001F202020201F008080DE
:1054100000808000000080FFA12020110E0000000D
:10542000008080808000000E112020A0FF808080FE
:1054300080008080800020203F21200001000000AB
:105440008080808080000033242424241900008080
:1054500080E0808000000000001F2020000080808D
:10546000000000808000001F202020103F2080804E
:1054700080000080808000010E30080601008080DE
:105480000080008080800F300C030C300F00008003
:105490008000808080000020312E0E31200080802E
:1054A00080000080808080818E701806010000805E
:1054B0008080808080000021302C2221300000007C
:1054C0000000807C020200000000003F404000001D
:1054D0000000FF00000000000000FF0000000002CC
:1054E000027C800000000040403F000000000006F9
:1054F000010102020404000000000000000000C1DD
:10550000814001C0804101C0804100C1814001C093
:10551000804100C1814000C1814001C0804101C083
:10552000804100C1814000C1814001C0804100C173
:10553000814001C0804101C0804100C1814001C063
:10554000804100C1814000C1814001C0804100C153
:10555000814001C0804101C0804100C1814000C143
:10556000814001C0804101C0804100C1814001C033
:10557000804100C1814000C1814001C0804101C023
:10558000804100C1814000C1814001C0804100C113
:10559000814001C0804101C0804100C1814000C103
:1055A000814001C0804101C0804100C1814001C0F3
:1055B000804100C1814000C1814001C0804100C1E3
:1055C000814001C0804101C0804100C1814001C0D3
:1055D000804100C1814000C1814001C0804101C0C3
:1055E000804100C1814000C1814001C0804100C1B3
:1055F000814001C0804101C0804100C1814000C0A4
:10560000C101C30302C2C60607C705C5C404CC0C4A
:105610000DCD0FCFCE0E0ACACB0BC90908C8D818BA
:1056200019D91BDBDA1A1EDEDF1FDD1D1CDC14D4CA
:10563000D515D71716D6D21213D311D1D010F030FA
:1056400031F133F3F23236F6F737F53534F43CFC0A
:10565000FD3DFF3F3EFEFA3A3BFB39F9F83828E8BA
:10566000E929EB2B2AEAEE2E2FEF2DEDEC2CE4248A
:1056700025E527E7E62622E2E323E12120E0A060FA
:1056800061A163A3A26266A6A767A56564A46CACCA
:10569000AD6DAF6F6EAEAA6A6BAB69A9A86878B83A
:1056A000B979BB7B7ABABE7E7FBF7DBDBC7CB4744A
:1056B00075B577B7B67672B2B373B17170B05090FA
:1056C00091519353529296565797559594549C5C8A
:1056D0005D9D5F9F9E5E5A9A9B5B9959589888483A
:1056E00049894B8B8A4A4E8E8F4F8D4D4C8C44840A
:1056F0008545874746868242438341818040040036
:10570000000800000000000000020001000010007E
:105710000A0D3D3D3D3D3D3D3D3D3D3D3D3D3D3D1C
:10572000416C61726D20412053657474696E6773BA
:105730003D3D3D3D3D3D3D3D3D3D3D3D3D3D3D3D99
:105740003D3D3D3D3D3D3D3D3D3D3D3D3D3D3D3D89
:105750003D3D3D3D3D0A0D0078570008C00000204A
:105760006400000004310008DC5700082401002018
:10577000240F00002031000800000000000000009D
:105780000000000000000000000000000000000019
:105790000110000861100008000000000000000077
:1057A000006CDC02000000000000000001020304A5
:1057B00006070809000000000000000000000000CB
:1057C00000000000000000000000000000000000D9
:0C57D0000102030401020304060708099B
:04000005080030C1FE
:00000001FF
